{
    "contractName": "EnglishAuction",
    "abi": [
        {
            "inputs": [
                {
                    "internalType": "uint256",
                    "name": "_duration",
                    "type": "uint256"
                },
                {
                    "internalType": "uint256",
                    "name": "_minBidIncrement",
                    "type": "uint256"
                }
            ],
            "stateMutability": "nonpayable",
            "type": "constructor"
        },
        {
            "anonymous": false,
            "inputs": [
                {
                    "indexed": false,
                    "internalType": "address",
                    "name": "winner",
                    "type": "address"
                },
                {
                    "indexed": false,
                    "internalType": "uint256",
                    "name": "amount",
                    "type": "uint256"
                }
            ],
            "name": "AuctionEnded",
            "type": "event"
        },
        {
            "anonymous": false,
            "inputs": [
                {
                    "indexed": true,
                    "internalType": "address",
                    "name": "bidder",
                    "type": "address"
                },
                {
                    "indexed": false,
                    "internalType": "uint256",
                    "name": "amount",
                    "type": "uint256"
                }
            ],
            "name": "NewBidPlaced",
            "type": "event"
        },
        {
            "inputs": [],
            "name": "auctionEndTime",
            "outputs": [
                {
                    "internalType": "uint256",
                    "name": "",
                    "type": "uint256"
                }
            ],
            "stateMutability": "view",
            "type": "function"
        },
        {
            "inputs": [],
            "name": "auctionEnded",
            "outputs": [
                {
                    "internalType": "bool",
                    "name": "",
                    "type": "bool"
                }
            ],
            "stateMutability": "view",
            "type": "function"
        },
        {
            "inputs": [],
            "name": "highestBid",
            "outputs": [
                {
                    "internalType": "uint256",
                    "name": "",
                    "type": "uint256"
                }
            ],
            "stateMutability": "view",
            "type": "function"
        },
        {
            "inputs": [],
            "name": "highestBidder",
            "outputs": [
                {
                    "internalType": "address",
                    "name": "",
                    "type": "address"
                }
            ],
            "stateMutability": "view",
            "type": "function"
        },
        {
            "inputs": [],
            "name": "minBidIncrement",
            "outputs": [
                {
                    "internalType": "uint256",
                    "name": "",
                    "type": "uint256"
                }
            ],
            "stateMutability": "view",
            "type": "function"
        },
        {
            "inputs": [],
            "name": "owner",
            "outputs": [
                {
                    "internalType": "address",
                    "name": "",
                    "type": "address"
                }
            ],
            "stateMutability": "view",
            "type": "function"
        },
        {
            "inputs": [],
            "name": "placeBid",
            "outputs": [],
            "stateMutability": "payable",
            "type": "function"
        },
        {
            "inputs": [],
            "name": "endAuction",
            "outputs": [],
            "stateMutability": "nonpayable",
            "type": "function"
        },
        {
            "inputs": [],
            "name": "withdrawBid",
            "outputs": [],
            "stateMutability": "nonpayable",
            "type": "function"
        },
        {
            "inputs": [],
            "name": "timeRemaining",
            "outputs": [
                {
                    "internalType": "uint256",
                    "name": "",
                    "type": "uint256"
                }
            ],
            "stateMutability": "view",
            "type": "function"
        }
    ],
    "bytecode": "0x608060405234801562000010575f80fd5b5060405162000fbf38038062000fbf8339818101604052810190620000369190620000f4565b335f806101000a81548173ffffffffffffffffffffffffffffffffffffffff021916908373ffffffffffffffffffffffffffffffffffffffff1602179055505f60035f6101000a81548160ff0219169083151502179055505f6002819055508142620000a3919062000166565b600481905550806005819055505050620001a0565b5f80fd5b5f819050919050565b620000d081620000bc565b8114620000db575f80fd5b50565b5f81519050620000ee81620000c5565b92915050565b5f80604083850312156200010d576200010c620000b8565b5b5f6200011c85828601620000de565b92505060206200012f85828601620000de565b9150509250929050565b7f4e487b71000000000000000000000000000000000000000000000000000000005f52601160045260245ffd5b5f6200017282620000bc565b91506200017f83620000bc565b92508282019050808211156200019a576200019962000139565b5b92915050565b610e1180620001ae5f395ff3fe608060405260043610610090575f3560e01c806391f901571161005857806391f9015714610152578063d57bde791461017c578063e3cfef60146101a6578063ecfc7ecc146101d0578063fe67a54b146101da57610090565b8063335b115e1461009457806337271cc7146100be5780634b449cba146100d457806386433374146100fe5780638da5cb5b14610128575b5f80fd5b34801561009f575f80fd5b506100a86101f0565b6040516100b5919061083a565b60405180910390f35b3480156100c9575f80fd5b506100d26101f6565b005b3480156100df575f80fd5b506100e86103ab565b6040516100f5919061083a565b60405180910390f35b348015610109575f80fd5b506101126103b1565b60405161011f919061086d565b60405180910390f35b348015610133575f80fd5b5061013c6103c3565b60405161014991906108c5565b60405180910390f35b34801561015d575f80fd5b506101666103e6565b60405161017391906108c5565b60405180910390f35b348015610187575f80fd5b5061019061040b565b60405161019d919061083a565b60405180910390f35b3480156101b1575f80fd5b506101ba610411565b6040516101c7919061083a565b60405180910390f35b6101d8610437565b005b3480156101e5575f80fd5b506101ee610624565b005b60055481565b60015f9054906101000a900473ffffffffffffffffffffffffffffffffffffffff1673ffffffffffffffffffffffffffffffffffffffff163373ffffffffffffffffffffffffffffffffffffffff1614610285576040517f08c379a000000000000000000000000000000000000000000000000000000000815260040161027c9061095e565b60405180910390fd5b60045442106102c9576040517f08c379a00000000000000000000000000000000000000000000000000000000081526004016102c0906109ec565b60405180910390fd5b5f60025490505f6002819055505f60015f6101000a81548173ffffffffffffffffffffffffffffffffffffffff021916908373ffffffffffffffffffffffffffffffffffffffff1602179055503373ffffffffffffffffffffffffffffffffffffffff166108fc8290811502906040515f60405180830381858888f19350505050158015610359573d5f803e3d5ffd5b503373ffffffffffffffffffffffffffffffffffffffff167f0c392f23045b2b8b64c77b9d568e610314c52ac5adfa73f8e8c31a15909186c45f6040516103a09190610a4c565b60405180910390a250565b60045481565b60035f9054906101000a900460ff1681565b5f8054906101000a900473ffffffffffffffffffffffffffffffffffffffff1681565b60015f9054906101000a900473ffffffffffffffffffffffffffffffffffffffff1681565b60025481565b5f6004544210610423575f9050610434565b426004546104319190610a92565b90505b90565b60035f9054906101000a900460ff1615610486576040517f08c379a000000000000000000000000000000000000000000000000000000000815260040161047d90610b0f565b60405180910390fd5b60045442106104ca576040517f08c379a00000000000000000000000000000000000000000000000000000000081526004016104c190610b77565b60405180910390fd5b6005546002546104da9190610b95565b341161051b576040517f08c379a000000000000000000000000000000000000000000000000000000000815260040161051290610c38565b60405180910390fd5b5f600254111561058d5760015f9054906101000a900473ffffffffffffffffffffffffffffffffffffffff1673ffffffffffffffffffffffffffffffffffffffff166108fc60025490811502906040515f60405180830381858888f1935050505015801561058b573d5f803e3d5ffd5b505b3360015f6101000a81548173ffffffffffffffffffffffffffffffffffffffff021916908373ffffffffffffffffffffffffffffffffffffffff160217905550346002819055503373ffffffffffffffffffffffffffffffffffffffff167f0c392f23045b2b8b64c77b9d568e610314c52ac5adfa73f8e8c31a15909186c43460405161061a919061083a565b60405180910390a2565b5f8054906101000a900473ffffffffffffffffffffffffffffffffffffffff1673ffffffffffffffffffffffffffffffffffffffff163373ffffffffffffffffffffffffffffffffffffffff16146106b1576040517f08c379a00000000000000000000000000000000000000000000000000000000081526004016106a890610cc6565b60405180910390fd5b6004544210156106f6576040517f08c379a00000000000000000000000000000000000000000000000000000000081526004016106ed90610d2e565b60405180910390fd5b60035f9054906101000a900460ff1615610745576040517f08c379a000000000000000000000000000000000000000000000000000000000815260040161073c90610d96565b60405180910390fd5b600160035f6101000a81548160ff0219169083151502179055505f8054906101000a900473ffffffffffffffffffffffffffffffffffffffff1673ffffffffffffffffffffffffffffffffffffffff166108fc60025490811502906040515f60405180830381858888f193505050501580156107c3573d5f803e3d5ffd5b507fdaec4582d5d9595688c8c98545fdd1c696d41c6aeaeb636737e84ed2f5c00eda60015f9054906101000a900473ffffffffffffffffffffffffffffffffffffffff16600254604051610818929190610db4565b60405180910390a1565b5f819050919050565b61083481610822565b82525050565b5f60208201905061084d5f83018461082b565b92915050565b5f8115159050919050565b61086781610853565b82525050565b5f6020820190506108805f83018461085e565b92915050565b5f73ffffffffffffffffffffffffffffffffffffffff82169050919050565b5f6108af82610886565b9050919050565b6108bf816108a5565b82525050565b5f6020820190506108d85f8301846108b6565b92915050565b5f82825260208201905092915050565b7f4f6e6c79207468652068696768657374206269646465722063616e20776974685f8201527f6472617700000000000000000000000000000000000000000000000000000000602082015250565b5f6109486024836108de565b9150610953826108ee565b604082019050919050565b5f6020820190508181035f8301526109758161093c565b9050919050565b7f41756374696f6e2068617320656e6465642c2063616e6e6f74207769746864725f8201527f6177000000000000000000000000000000000000000000000000000000000000602082015250565b5f6109d66022836108de565b91506109e18261097c565b604082019050919050565b5f6020820190508181035f830152610a03816109ca565b9050919050565b5f819050919050565b5f819050919050565b5f610a36610a31610a2c84610a0a565b610a13565b610822565b9050919050565b610a4681610a1c565b82525050565b5f602082019050610a5f5f830184610a3d565b92915050565b7f4e487b71000000000000000000000000000000000000000000000000000000005f52601160045260245ffd5b5f610a9c82610822565b9150610aa783610822565b9250828203905081811115610abf57610abe610a65565b5b92915050565b7f41756374696f6e2068617320656e6465640000000000000000000000000000005f82015250565b5f610af96011836108de565b9150610b0482610ac5565b602082019050919050565b5f6020820190508181035f830152610b2681610aed565b9050919050565b7f41756374696f6e206861732065787069726564000000000000000000000000005f82015250565b5f610b616013836108de565b9150610b6c82610b2d565b602082019050919050565b5f6020820190508181035f830152610b8e81610b55565b9050919050565b5f610b9f82610822565b9150610baa83610822565b9250828201905080821115610bc257610bc1610a65565b5b92915050565b7f426964206d75737420626520686967686572207468616e2063757272656e74205f8201527f62696420706c757320746865206d696e696d756d20696e6372656d656e740000602082015250565b5f610c22603e836108de565b9150610c2d82610bc8565b604082019050919050565b5f6020820190508181035f830152610c4f81610c16565b9050919050565b7f4f6e6c7920746865206f776e65722063616e20656e64207468652061756374695f8201527f6f6e000000000000000000000000000000000000000000000000000000000000602082015250565b5f610cb06022836108de565b9150610cbb82610c56565b604082019050919050565b5f6020820190508181035f830152610cdd81610ca4565b9050919050565b7f41756374696f6e20686173206e6f742079657420656e646564000000000000005f82015250565b5f610d186019836108de565b9150610d2382610ce4565b602082019050919050565b5f6020820190508181035f830152610d4581610d0c565b9050919050565b7f41756374696f6e20616c726561647920656e64656400000000000000000000005f82015250565b5f610d806015836108de565b9150610d8b82610d4c565b602082019050919050565b5f6020820190508181035f830152610dad81610d74565b9050919050565b5f604082019050610dc75f8301856108b6565b610dd4602083018461082b565b939250505056fea2646970667358221220470280544ad00a5e770d3b4fc73815320b35dc05a956b9506111b04563b9de7364736f6c63430008150033",
    "immutableReferences": {},
    "source": "// SPDX-License-Identifier: MIT\r\npragma solidity ^0.8.0;\r\n\r\ncontract EnglishAuction {\r\n    address public owner;\r\n    address public highestBidder;\r\n    uint256 public highestBid;\r\n    bool public auctionEnded;\r\n    uint256 public auctionEndTime;\r\n    uint256 public minBidIncrement;\r\n\r\n    // Events for tracking auction state\r\n    event NewBidPlaced(address indexed bidder, uint256 amount);\r\n    event AuctionEnded(address winner, uint256 amount);\r\n\r\n    constructor(uint256 _duration, uint256 _minBidIncrement) {\r\n        owner = msg.sender;\r\n        auctionEnded = false;\r\n        highestBid = 0;\r\n        auctionEndTime = block.timestamp + _duration; // Set auction duration\r\n        minBidIncrement = _minBidIncrement; // Set minimum bid increment\r\n    }\r\n\r\n    // Modifier to check if the auction has ended\r\n    modifier auctionActive() {\r\n        require(!auctionEnded, \"Auction has ended\");\r\n        require(block.timestamp < auctionEndTime, \"Auction has expired\");\r\n        _;\r\n    }\r\n\r\n    // Function to place a bid\r\n    function placeBid() external payable auctionActive {\r\n        require(msg.value > highestBid + minBidIncrement, \"Bid must be higher than current bid plus the minimum increment\");\r\n\r\n        // Refund the previous highest bidder\r\n        if (highestBid > 0) {\r\n            payable(highestBidder).transfer(highestBid);\r\n        }\r\n\r\n        // Update the highest bid and bidder\r\n        highestBidder = msg.sender;\r\n        highestBid = msg.value;\r\n\r\n        // Emit event for a new bid\r\n        emit NewBidPlaced(msg.sender, msg.value);\r\n    }\r\n\r\n    // Function to end the auction manually (owner only)\r\n    function endAuction() external {\r\n        require(msg.sender == owner, \"Only the owner can end the auction\");\r\n        require(block.timestamp >= auctionEndTime, \"Auction has not yet ended\");\r\n        require(!auctionEnded, \"Auction already ended\");\r\n\r\n        auctionEnded = true;\r\n\r\n        // Transfer funds to the owner\r\n        payable(owner).transfer(highestBid);\r\n\r\n        // Emit event for auction end\r\n        emit AuctionEnded(highestBidder, highestBid);\r\n    }\r\n\r\n    // Function to withdraw bid if you are the highest bidder (before auction ends)\r\n    function withdrawBid() external {\r\n        require(msg.sender == highestBidder, \"Only the highest bidder can withdraw\");\r\n        require(block.timestamp < auctionEndTime, \"Auction has ended, cannot withdraw\");\r\n\r\n        uint256 amount = highestBid;\r\n        highestBid = 0;\r\n        highestBidder = address(0);\r\n\r\n        payable(msg.sender).transfer(amount);\r\n\r\n        emit NewBidPlaced(msg.sender, 0); // Emit zero bid event for withdrawal\r\n    }\r\n\r\n    // Get current auction time remaining\r\n    function timeRemaining() external view returns (uint256) {\r\n        if (block.timestamp >= auctionEndTime) {\r\n            return 0;\r\n        }\r\n        return auctionEndTime - block.timestamp;\r\n    }\r\n}\r\n",
    "sourcePath": "/Users/pansaarkerdpol/Blockchain_Auction/contracts/LegacyEnglish.sol",
    "compiler": {
        "name": "solc",
        "version": "0.8.21+commit.d9974bed.Emscripten.clang"
    },
    "schemaVersion": "3.4.16",
    "updatedAt": "2024-12-04T07:25:09.769Z",
    "devdoc": {
        "kind": "dev",
        "methods": {},
        "version": 1
    },
    "userdoc": {
        "kind": "user",
        "methods": {},
        "version": 1
    }
}