{
  "contractName": "EnglishAuction",
  "abi": [
    {
      "inputs": [],
      "name": "FailedCall",
      "type": "error"
    },
    {
      "inputs": [
        {
          "internalType": "uint256",
          "name": "balance",
          "type": "uint256"
        },
        {
          "internalType": "uint256",
          "name": "needed",
          "type": "uint256"
        }
      ],
      "name": "InsufficientBalance",
      "type": "error"
    },
    {
      "anonymous": false,
      "inputs": [
        {
          "indexed": false,
          "internalType": "uint256",
          "name": "auctionId",
          "type": "uint256"
        },
        {
          "indexed": false,
          "internalType": "uint256",
          "name": "duration",
          "type": "uint256"
        },
        {
          "indexed": false,
          "internalType": "uint256",
          "name": "minBidIncrement",
          "type": "uint256"
        },
        {
          "indexed": false,
          "internalType": "uint256",
          "name": "startingPrice",
          "type": "uint256"
        },
        {
          "indexed": false,
          "internalType": "address",
          "name": "creator",
          "type": "address"
        }
      ],
      "name": "AuctionCreated",
      "type": "event"
    },
    {
      "anonymous": false,
      "inputs": [
        {
          "indexed": false,
          "internalType": "uint256",
          "name": "auctionId",
          "type": "uint256"
        },
        {
          "indexed": false,
          "internalType": "address",
          "name": "winner",
          "type": "address"
        },
        {
          "indexed": false,
          "internalType": "uint256",
          "name": "amount",
          "type": "uint256"
        }
      ],
      "name": "AuctionEnded",
      "type": "event"
    },
    {
      "anonymous": false,
      "inputs": [
        {
          "indexed": false,
          "internalType": "uint256",
          "name": "auctionId",
          "type": "uint256"
        },
        {
          "indexed": false,
          "internalType": "uint256",
          "name": "duration",
          "type": "uint256"
        },
        {
          "indexed": false,
          "internalType": "uint256",
          "name": "minBidIncrement",
          "type": "uint256"
        },
        {
          "indexed": false,
          "internalType": "uint256",
          "name": "startingPrice",
          "type": "uint256"
        },
        {
          "indexed": false,
          "internalType": "address",
          "name": "nftContract",
          "type": "address"
        },
        {
          "indexed": false,
          "internalType": "uint256",
          "name": "tokenId",
          "type": "uint256"
        },
        {
          "indexed": false,
          "internalType": "address",
          "name": "creator",
          "type": "address"
        }
      ],
      "name": "DebugAuction",
      "type": "event"
    },
    {
      "anonymous": false,
      "inputs": [
        {
          "indexed": false,
          "internalType": "uint256",
          "name": "auctionId",
          "type": "uint256"
        },
        {
          "indexed": false,
          "internalType": "uint256",
          "name": "duration",
          "type": "uint256"
        },
        {
          "indexed": false,
          "internalType": "uint256",
          "name": "minBidIncrement",
          "type": "uint256"
        },
        {
          "indexed": false,
          "internalType": "uint256",
          "name": "startingPrice",
          "type": "uint256"
        },
        {
          "indexed": false,
          "internalType": "address",
          "name": "nftContract",
          "type": "address"
        },
        {
          "indexed": false,
          "internalType": "uint256",
          "name": "tokenId",
          "type": "uint256"
        },
        {
          "indexed": false,
          "internalType": "address",
          "name": "creator",
          "type": "address"
        }
      ],
      "name": "DebugCreateAuction",
      "type": "event"
    },
    {
      "anonymous": false,
      "inputs": [
        {
          "indexed": false,
          "internalType": "string",
          "name": "message",
          "type": "string"
        }
      ],
      "name": "DebugLog",
      "type": "event"
    },
    {
      "anonymous": false,
      "inputs": [
        {
          "indexed": false,
          "internalType": "address",
          "name": "from",
          "type": "address"
        },
        {
          "indexed": false,
          "internalType": "address",
          "name": "to",
          "type": "address"
        },
        {
          "indexed": false,
          "internalType": "uint256",
          "name": "tokenId",
          "type": "uint256"
        }
      ],
      "name": "DebugNFTTransfer",
      "type": "event"
    },
    {
      "anonymous": false,
      "inputs": [
        {
          "indexed": false,
          "internalType": "uint256",
          "name": "auctionId",
          "type": "uint256"
        },
        {
          "indexed": false,
          "internalType": "uint256",
          "name": "amount",
          "type": "uint256"
        },
        {
          "indexed": true,
          "internalType": "address",
          "name": "creator",
          "type": "address"
        }
      ],
      "name": "FundsWithdrawn",
      "type": "event"
    },
    {
      "anonymous": false,
      "inputs": [
        {
          "indexed": false,
          "internalType": "uint256",
          "name": "auctionId",
          "type": "uint256"
        },
        {
          "indexed": true,
          "internalType": "address",
          "name": "bidder",
          "type": "address"
        },
        {
          "indexed": false,
          "internalType": "uint256",
          "name": "amount",
          "type": "uint256"
        }
      ],
      "name": "NewBidPlaced",
      "type": "event"
    },
    {
      "anonymous": false,
      "inputs": [
        {
          "indexed": false,
          "internalType": "uint256",
          "name": "auctionId",
          "type": "uint256"
        },
        {
          "indexed": true,
          "internalType": "address",
          "name": "bidder",
          "type": "address"
        },
        {
          "indexed": false,
          "internalType": "uint256",
          "name": "amount",
          "type": "uint256"
        }
      ],
      "name": "RefundIssued",
      "type": "event"
    },
    {
      "inputs": [],
      "name": "MAX_DURATION",
      "outputs": [
        {
          "internalType": "uint256",
          "name": "",
          "type": "uint256"
        }
      ],
      "stateMutability": "view",
      "type": "function"
    },
    {
      "inputs": [
        {
          "internalType": "uint256",
          "name": "",
          "type": "uint256"
        }
      ],
      "name": "auctionIds",
      "outputs": [
        {
          "internalType": "uint256",
          "name": "",
          "type": "uint256"
        }
      ],
      "stateMutability": "view",
      "type": "function"
    },
    {
      "inputs": [
        {
          "internalType": "uint256",
          "name": "",
          "type": "uint256"
        }
      ],
      "name": "auctions",
      "outputs": [
        {
          "internalType": "uint256",
          "name": "auctionId",
          "type": "uint256"
        },
        {
          "internalType": "address",
          "name": "highestBidder",
          "type": "address"
        },
        {
          "internalType": "uint256",
          "name": "highestBid",
          "type": "uint256"
        },
        {
          "internalType": "uint256",
          "name": "auctionEndTime",
          "type": "uint256"
        },
        {
          "internalType": "bool",
          "name": "auctionEnded",
          "type": "bool"
        },
        {
          "internalType": "uint256",
          "name": "minBidIncrement",
          "type": "uint256"
        },
        {
          "internalType": "address",
          "name": "creator",
          "type": "address"
        },
        {
          "internalType": "bool",
          "name": "withdrawn",
          "type": "bool"
        },
        {
          "internalType": "uint256",
          "name": "startingPrice",
          "type": "uint256"
        },
        {
          "internalType": "address",
          "name": "nftContract",
          "type": "address"
        },
        {
          "internalType": "uint256",
          "name": "tokenId",
          "type": "uint256"
        }
      ],
      "stateMutability": "view",
      "type": "function"
    },
    {
      "inputs": [
        {
          "internalType": "uint256",
          "name": "auctionId",
          "type": "uint256"
        },
        {
          "internalType": "uint256",
          "name": "_duration",
          "type": "uint256"
        },
        {
          "internalType": "uint256",
          "name": "_minBidIncrement",
          "type": "uint256"
        },
        {
          "internalType": "uint256",
          "name": "_startingPrice",
          "type": "uint256"
        },
        {
          "internalType": "address",
          "name": "_nftContract",
          "type": "address"
        },
        {
          "internalType": "uint256",
          "name": "_tokenId",
          "type": "uint256"
        }
      ],
      "name": "createAuction",
      "outputs": [],
      "stateMutability": "nonpayable",
      "type": "function"
    },
    {
      "inputs": [
        {
          "internalType": "uint256",
          "name": "auctionId",
          "type": "uint256"
        }
      ],
      "name": "placeBid",
      "outputs": [],
      "stateMutability": "payable",
      "type": "function"
    },
    {
      "inputs": [
        {
          "internalType": "uint256",
          "name": "auctionId",
          "type": "uint256"
        }
      ],
      "name": "endAuction",
      "outputs": [],
      "stateMutability": "nonpayable",
      "type": "function"
    },
    {
      "inputs": [],
      "name": "getAuctionIds",
      "outputs": [
        {
          "internalType": "uint256[]",
          "name": "",
          "type": "uint256[]"
        }
      ],
      "stateMutability": "view",
      "type": "function"
    },
    {
      "inputs": [
        {
          "internalType": "uint256",
          "name": "auctionId",
          "type": "uint256"
        }
      ],
      "name": "withdraw",
      "outputs": [],
      "stateMutability": "nonpayable",
      "type": "function"
    },
    {
      "inputs": [
        {
          "internalType": "address",
          "name": "",
          "type": "address"
        },
        {
          "internalType": "address",
          "name": "",
          "type": "address"
        },
        {
          "internalType": "uint256",
          "name": "",
          "type": "uint256"
        },
        {
          "internalType": "bytes",
          "name": "",
          "type": "bytes"
        }
      ],
      "name": "onERC721Received",
      "outputs": [
        {
          "internalType": "bytes4",
          "name": "",
          "type": "bytes4"
        }
      ],
      "stateMutability": "pure",
      "type": "function"
    }
  ],
  "bytecode": "0x60806040526002805460ff1916905534801561001a57600080fd5b506116218061002a6000396000f3fe6080604052600436106100865760003560e01c80632e1a7d4d116100595780632e1a7d4d1461014b578063571a26a01461016b5780639979ef4514610254578063b1724b4614610267578063b9a2de3a1461027e57600080fd5b80631094db1b1461008b578063150b7a02146100b657806328012606146100fb5780632a6433be1461011d575b600080fd5b34801561009757600080fd5b506100a061029e565b6040516100ad919061138f565b60405180910390f35b3480156100c257600080fd5b506100e26100d13660046113ef565b630a85bd0160e11b95945050505050565b6040516001600160e01b031990911681526020016100ad565b34801561010757600080fd5b5061011b61011636600461148a565b6102f6565b005b34801561012957600080fd5b5061013d6101383660046114db565b610884565b6040519081526020016100ad565b34801561015757600080fd5b5061011b6101663660046114db565b6108a5565b34801561017757600080fd5b506101f36101863660046114db565b600060208190529081526040902080546001820154600283015460038401546004850154600586015460068701546007880154600889015460099099015497986001600160a01b03978816989697959660ff95861696949585851695600160a01b9095041693909116908b565b604080519b8c526001600160a01b039a8b1660208d01528b019890985260608a0196909652931515608089015260a0880192909252851660c0870152151560e0860152610100850152909116610120830152610140820152610160016100ad565b61011b6102623660046114db565b610c7e565b34801561027357600080fd5b5061013d620186a081565b34801561028a57600080fd5b5061011b6102993660046114db565b6110bd565b606060018054806020026020016040519081016040528092919081815260200182805480156102ec57602002820191906000526020600020905b8154815260200190600101908083116102d8575b5050505050905090565b6040805187815260208101879052908101859052606081018490526001600160a01b038316608082015260a081018290523360c08201527f699757777118faee40852f717612417c2fe2bb1fde0f05f45a8e10a1afac2a3f9060e00160405180910390a1600086815260208190526040902060030154156103b75760405162461bcd60e51b815260206004820152601660248201527541756374696f6e20616c72656164792065786973747360501b60448201526064015b60405180910390fd5b6000851180156103ca5750620186a08511155b6104165760405162461bcd60e51b815260206004820152601860248201527f496e76616c69642061756374696f6e206475726174696f6e000000000000000060448201526064016103ae565b6000841161047e5760405162461bcd60e51b815260206004820152602f60248201527f4d696e696d756d2062696420696e6372656d656e74206d75737420626520677260448201526e6561746572207468616e207a65726f60881b60648201526084016103ae565b600083116104df5760405162461bcd60e51b815260206004820152602860248201527f5374617274696e67207072696365206d7573742062652067726561746572207460448201526768616e207a65726f60c01b60648201526084016103ae565b6040516301ffc9a760e01b81526380ac58cd60e01b60048201526001600160a01b038316906301ffc9a790602401602060405180830381865afa15801561052a573d6000803e3d6000fd5b505050506040513d601f19601f8201168201806040525081019061054e91906114f4565b6105ad5760405162461bcd60e51b815260206004820152602a60248201527f50726f766964656420636f6e747261637420646f6573206e6f7420737570706f6044820152697274204552432d37323160b01b60648201526084016103ae565b604080513381523060208201529081018290527f4442ac4a0e03fdab25caf0d61201c50313d3438be6115b71cbc7bba311f1ae539060600160405180910390a1604051632142170760e11b8152336004820152306024820152604481018290526001600160a01b038316906342842e0e90606401600060405180830381600087803b15801561063b57600080fd5b505af115801561064f573d6000803e3d6000fd5b5050505060008543610661919061151d565b905060405180610160016040528088815260200160006001600160a01b03168152602001858152602001828152602001600015158152602001868152602001336001600160a01b03168152602001600015158152602001858152602001846001600160a01b03168152602001838152506000808981526020019081526020016000206000820151816000015560208201518160010160006101000a8154816001600160a01b0302191690836001600160a01b03160217905550604082015181600201556060820151816003015560808201518160040160006101000a81548160ff02191690831515021790555060a0820151816005015560c08201518160060160006101000a8154816001600160a01b0302191690836001600160a01b0316021790555060e08201518160060160146101000a81548160ff02191690831515021790555061010082015181600701556101208201518160080160006101000a8154816001600160a01b0302191690836001600160a01b03160217905550610140820151816009015590505060018790806001815401808255809150506001900390600052602060002001600090919091909150557ffe21114808b55d6a54bec91c46a20e8dfe7f033edf3f058a5012a829d8d0e3ca87878787336040516108739594939291909485526020850193909352604084019190915260608301526001600160a01b0316608082015260a00190565b60405180910390a150505050505050565b6001818154811061089457600080fd5b600091825260209091200154905081565b60008181526020819052604090206006015481906001600160a01b031633146108e05760405162461bcd60e51b81526004016103ae90611544565b60025460ff16156109035760405162461bcd60e51b81526004016103ae90611594565b6002805460ff191660011790556040516000805160206115cc8339815191529061095e906020808252601a908201527f456e746572696e672077697468647261772066756e6374696f6e000000000000604082015260600190565b60405180910390a16000828152602081905260409020600481015460ff166109c45760405162461bcd60e51b8152602060048201526019602482015278105d58dd1a5bdb881a185cc81b9bdd081e595d08195b991959603a1b60448201526064016103ae565b6006810154600160a01b900460ff1615610a205760405162461bcd60e51b815260206004820152601760248201527f46756e647320616c72656164792077697468647261776e00000000000000000060448201526064016103ae565b8060070154816002015411610a6e5760405162461bcd60e51b81526020600482015260146024820152734e6f2066756e647320746f20776974686472617760601b60448201526064016103ae565b6000805160206115cc833981519152604051610abb906020808252601a908201527f57697468647261772076616c69646174696f6e20706173736564000000000000604082015260600190565b60405180910390a1600281018054600090915560068201805460ff60a01b198116600160a01b17909155610af8906001600160a01b0316826112ec565b6000805160206115cc833981519152604051610b45906020808252601c908201527f46756e64732077697468647261776e207375636365737366756c6c7900000000604082015260600190565b60405180910390a1600882015460018301546009840154604051632142170760e11b81523060048201526001600160a01b03928316602482015260448101919091529116906342842e0e90606401600060405180830381600087803b158015610bad57600080fd5b505af1158015610bc1573d6000803e3d6000fd5b505050506000805160206115cc833981519152604051610c1c9060208082526021908201527f4e4654207472616e7366657272656420746f20686967686573742062696464656040820152603960f91b606082015260800190565b60405180910390a1600682015460408051868152602081018490526001600160a01b03909216917ff3b5906e5672f3e524854103bcafbbdba80dbdfeca2c35e116127b1060a68318910160405180910390a250506002805460ff191690555050565b6000818152602081905260409020600301548190610cd75760405162461bcd60e51b8152602060048201526016602482015275105d58dd1a5bdb88191bd95cc81b9bdd08195e1a5cdd60521b60448201526064016103ae565b6000818152602081905260409020600301544310610d2d5760405162461bcd60e51b8152602060048201526013602482015272105d58dd1a5bdb881a185cc8195e1c1a5c9959606a1b60448201526064016103ae565b60008181526020819052604090206004015460ff1615610d8f5760405162461bcd60e51b815260206004820152601960248201527f41756374696f6e2068617320616c726561647920656e6465640000000000000060448201526064016103ae565b60025460ff1615610db25760405162461bcd60e51b81526004016103ae90611594565b6002805460ff191660011790556040516000805160206115cc83398151915290610e0d906020808252601a908201527f456e746572696e6720706c6163654269642066756e6374696f6e000000000000604082015260600190565b60405180910390a1600082815260208190526040902060068101546001600160a01b03163303610e8d5760405162461bcd60e51b815260206004820152602560248201527f4f776e65722063616e6e6f7420626964206f6e207468656972206f776e20617560448201526431ba34b7b760d91b60648201526084016103ae565b80600501548160020154610ea1919061151d565b341015610f215760405162461bcd60e51b815260206004820152604260248201527f426964206d75737420626520686967686572207468616e20746865206375727260448201527f656e742062696420706c757320746865206d696e696d756d20696e6372656d656064820152611b9d60f21b608482015260a4016103ae565b60018101546001600160a01b03163303610f885760405162461bcd60e51b815260206004820152602260248201527f596f752061726520616c7265616479207468652068696768657374206269646460448201526132b960f11b60648201526084016103ae565b6000805160206115cc833981519152604051610fcd90602080825260159082015274109a59081d985b1a59185d1a5bdb881c185cdcd959605a1b604082015260600190565b60405180910390a18060070154816002015411156110555760028101546001820154611004916001600160a01b03909116906112ec565b600181015460028201546040805186815260208101929092526001600160a01b03909216917f7a482fdeb6bc9a1376f597068a214a7a39472bb2eff1b8cad21ba04f49ddca1b910160405180910390a25b6001810180546001600160a01b0319163390811790915534600283018190556040805186815260208101929092527f7136042fc8b502cb7b2f9c23ef190a14de582a02a0ffd89b1c399bb8dd8e6ad3910160405180910390a250506002805460ff1916905550565b60008181526020819052604090206006015481906001600160a01b031633146110f85760405162461bcd60e51b81526004016103ae90611544565b60025460ff161561111b5760405162461bcd60e51b81526004016103ae90611594565b6002805460ff191660011790556040516000805160206115cc83398151915290611176906020808252601c908201527f456e746572696e6720656e6441756374696f6e2066756e6374696f6e00000000604082015260600190565b60405180910390a1600082815260208190526040902060038101544310156111dc5760405162461bcd60e51b8152602060048201526019602482015278105d58dd1a5bdb881a185cc81b9bdd081e595d08195b991959603a1b60448201526064016103ae565b600481015460ff16156112295760405162461bcd60e51b8152602060048201526015602482015274105d58dd1a5bdb88185b1c9958591e48195b991959605a1b60448201526064016103ae565b6000805160206115cc833981519152604051611274906020808252818101527f41756374696f6e20656e64696e6720636f6e646974696f6e7320706173736564604082015260600190565b60405180910390a160048101805460ff191660019081179091558101546002820154604080518681526001600160a01b0390931660208401528201527fd2aa34a4fdbbc6dff6a3e56f46e0f3ae2a31d7785ff3487aa5c95c642acea5019060600160405180910390a150506002805460ff1916905550565b804710156113165760405163cf47918160e01b8152476004820152602481018290526044016103ae565b6000826001600160a01b03168260405160006040518083038185875af1925050503d8060008114611363576040519150601f19603f3d011682016040523d82523d6000602084013e611368565b606091505b505090508061138a5760405163d6bda27560e01b815260040160405180910390fd5b505050565b6020808252825182820181905260009190848201906040850190845b818110156113c7578351835292840192918401916001016113ab565b50909695505050505050565b80356001600160a01b03811681146113ea57600080fd5b919050565b60008060008060006080868803121561140757600080fd5b611410866113d3565b945061141e602087016113d3565b935060408601359250606086013567ffffffffffffffff8082111561144257600080fd5b818801915088601f83011261145657600080fd5b81358181111561146557600080fd5b89602082850101111561147757600080fd5b9699959850939650602001949392505050565b60008060008060008060c087890312156114a357600080fd5b863595506020870135945060408701359350606087013592506114c8608088016113d3565b915060a087013590509295509295509295565b6000602082840312156114ed57600080fd5b5035919050565b60006020828403121561150657600080fd5b8151801515811461151657600080fd5b9392505050565b8082018082111561153e57634e487b7160e01b600052601160045260246000fd5b92915050565b60208082526030908201527f4f6e6c79207468652061756374696f6e2063726561746f722063616e2070657260408201526f3337b936903a3434b99030b1ba34b7b760811b606082015260800190565b60208082526017908201527f5265656e7472616e742063616c6c20646574656374656400000000000000000060408201526060019056fe4be5e2ddd7b814bfc07153581bbbda6ea3d62d61c270f9788cae2f0297e18ae8a2646970667358221220396ebd7bebfd5cd9165d7e02c7fc3e9814eab802c54ff905a78ef8c5439bcf6664736f6c63430008150033",
  "immutableReferences": {},
  "source": "// SPDX-License-Identifier: MIT\r\n\r\npragma solidity ^0.8.20;\r\n\r\nimport \"@openzeppelin/contracts/access/Ownable.sol\";\r\nimport \"@openzeppelin/contracts/utils/Address.sol\";\r\nimport \"@openzeppelin/contracts/token/ERC721/IERC721.sol\";\r\n\r\ncontract EnglishAuction {\r\n    using Address for address payable;\r\n\r\n    struct Auction {\r\n        uint256 auctionId;\r\n        address highestBidder;\r\n        uint256 highestBid;\r\n        uint256 auctionEndTime;\r\n        bool auctionEnded;\r\n        uint256 minBidIncrement;\r\n        address creator;\r\n        bool withdrawn;\r\n        uint256 startingPrice;\r\n        address nftContract;\r\n        uint256 tokenId;\r\n    }\r\n\r\n    mapping(uint256 => Auction) public auctions;\r\n    uint256[] public auctionIds;\r\n    bool private locked = false;\r\n\r\n    uint256 public constant MAX_DURATION = 100000; // Example maximum block duration\r\n\r\n    event AuctionCreated(uint256 auctionId, uint256 duration, uint256 minBidIncrement, uint256 startingPrice, address creator);\r\n    event NewBidPlaced(uint256 auctionId, address indexed bidder, uint256 amount);\r\n    event RefundIssued(uint256 auctionId, address indexed bidder, uint256 amount);\r\n    event AuctionEnded(uint256 auctionId, address winner, uint256 amount);\r\n    event FundsWithdrawn(uint256 auctionId, uint256 amount, address indexed creator);\r\n    event DebugLog(string message);\r\n    event DebugAuction(uint256 auctionId, uint256 duration, uint256 minBidIncrement, uint256 startingPrice, address nftContract, uint256 tokenId, address creator);\r\n\r\n    modifier nonReentrant() {\r\n        require(!locked, \"Reentrant call detected\");\r\n        locked = true;\r\n        _;\r\n        locked = false;\r\n    }\r\n\r\n    modifier auctionActive(uint256 auctionId) {\r\n        require(auctions[auctionId].auctionEndTime > 0, \"Auction does not exist\");\r\n        require(block.number < auctions[auctionId].auctionEndTime, \"Auction has expired\");\r\n        require(!auctions[auctionId].auctionEnded, \"Auction has already ended\");\r\n        _;\r\n    }\r\n\r\n    modifier auctionExists(uint256 auctionId) {\r\n        require(auctions[auctionId].auctionEndTime > 0, \"Auction does not exist\");\r\n        _;\r\n    }\r\n\r\n    modifier onlyAuctionCreator(uint256 auctionId) {\r\n        require(msg.sender == auctions[auctionId].creator, \"Only the auction creator can perform this action\");\r\n        _;\r\n    }\r\n\r\n    event DebugCreateAuction(\r\n    uint256 auctionId,\r\n    uint256 duration,\r\n    uint256 minBidIncrement,\r\n    uint256 startingPrice,\r\n    address nftContract,\r\n    uint256 tokenId,\r\n    address creator\r\n);\r\n\r\nevent DebugNFTTransfer(address from, address to, uint256 tokenId);\r\n\r\n\r\n    function createAuction(\r\n        uint256 auctionId,\r\n        uint256 _duration,\r\n        uint256 _minBidIncrement,\r\n        uint256 _startingPrice,\r\n        address _nftContract,\r\n        uint256 _tokenId\r\n    ) external {\r\n        emit DebugCreateAuction(auctionId, _duration, _minBidIncrement, _startingPrice, _nftContract, _tokenId, msg.sender);\r\n\r\n        require(auctions[auctionId].auctionEndTime == 0, \"Auction already exists\");\r\n        require(_duration > 0 && _duration <= MAX_DURATION, \"Invalid auction duration\");\r\n        require(_minBidIncrement > 0, \"Minimum bid increment must be greater than zero\");\r\n        require(_startingPrice > 0, \"Starting price must be greater than zero\");\r\n\r\n        require(\r\n            IERC721(_nftContract).supportsInterface(type(IERC721).interfaceId),\r\n            \"Provided contract does not support ERC-721\"\r\n        );\r\n\r\n        emit DebugNFTTransfer(msg.sender, address(this), _tokenId);\r\n\r\n        IERC721(_nftContract).safeTransferFrom(msg.sender, address(this), _tokenId);\r\n\r\n        uint256 auctionEndBlock = block.number + _duration;\r\n\r\n        auctions[auctionId] = Auction({\r\n            auctionId: auctionId,\r\n            highestBidder: address(0),\r\n            highestBid: _startingPrice,\r\n            auctionEndTime: auctionEndBlock,\r\n            auctionEnded: false,\r\n            minBidIncrement: _minBidIncrement,\r\n            creator: msg.sender,\r\n            withdrawn: false,\r\n            startingPrice: _startingPrice,\r\n            nftContract: _nftContract,\r\n            tokenId: _tokenId\r\n        });\r\n\r\n        auctionIds.push(auctionId);\r\n        emit AuctionCreated(auctionId, _duration, _minBidIncrement, _startingPrice, msg.sender);\r\n    }\r\n\r\n    function placeBid(uint256 auctionId) external payable auctionActive(auctionId) nonReentrant {\r\n        emit DebugLog(\"Entering placeBid function\");\r\n        Auction storage auction = auctions[auctionId];\r\n\r\n        require(msg.sender != auction.creator, \"Owner cannot bid on their own auction\");\r\n        require(msg.value >= auction.highestBid + auction.minBidIncrement, \"Bid must be higher than the current bid plus the minimum increment\");\r\n        require(msg.sender != auction.highestBidder, \"You are already the highest bidder\");\r\n        emit DebugLog(\"Bid validation passed\");\r\n\r\n        if (auction.highestBid > auction.startingPrice) {\r\n            payable(auction.highestBidder).sendValue(auction.highestBid);\r\n            emit RefundIssued(auctionId, auction.highestBidder, auction.highestBid);\r\n        }\r\n\r\n        auction.highestBidder = msg.sender;\r\n        auction.highestBid = msg.value;\r\n\r\n        emit NewBidPlaced(auctionId, msg.sender, msg.value);\r\n    }\r\n\r\n    function endAuction(uint256 auctionId) external onlyAuctionCreator(auctionId) nonReentrant {\r\n        emit DebugLog(\"Entering endAuction function\");\r\n        Auction storage auction = auctions[auctionId];\r\n\r\n        require(block.number >= auction.auctionEndTime, \"Auction has not yet ended\");\r\n        require(!auction.auctionEnded, \"Auction already ended\");\r\n        emit DebugLog(\"Auction ending conditions passed\");\r\n\r\n        auction.auctionEnded = true;\r\n        emit AuctionEnded(auctionId, auction.highestBidder, auction.highestBid);\r\n    }\r\n\r\n    function getAuctionIds() external view returns (uint256[] memory) {\r\n    return auctionIds;\r\n    }\r\n\r\n    function withdraw(uint256 auctionId) external onlyAuctionCreator(auctionId) nonReentrant {\r\n        emit DebugLog(\"Entering withdraw function\");\r\n        Auction storage auction = auctions[auctionId];\r\n\r\n        require(auction.auctionEnded, \"Auction has not yet ended\");\r\n        require(!auction.withdrawn, \"Funds already withdrawn\");\r\n        require(auction.highestBid > auction.startingPrice, \"No funds to withdraw\");\r\n        emit DebugLog(\"Withdraw validation passed\");\r\n\r\n        uint256 amount = auction.highestBid;\r\n        auction.highestBid = 0; // Reset before external call\r\n        auction.withdrawn = true;\r\n\r\n        payable(auction.creator).sendValue(amount);\r\n        emit DebugLog(\"Funds withdrawn successfully\");\r\n\r\n        IERC721(auction.nftContract).safeTransferFrom(\r\n            address(this),\r\n            auction.highestBidder,\r\n            auction.tokenId\r\n        );\r\n        emit DebugLog(\"NFT transferred to highest bidder\");\r\n\r\n        emit FundsWithdrawn(auctionId, amount, auction.creator);\r\n    }\r\n\r\n    function onERC721Received(\r\n    address, /*operator*/\r\n    address, /*from*/\r\n    uint256, /*tokenId*/\r\n    bytes calldata /*data*/\r\n) external pure returns (bytes4) {\r\n    return this.onERC721Received.selector;\r\n    }\r\n}",
  "sourcePath": "C:\\Users\\three\\OneDrive\\Documents\\GitHub\\Blockchain_Auction\\contracts\\EnglishAuction.sol",
  "compiler": {
    "name": "solc",
    "version": "0.8.21+commit.d9974bed.Emscripten.clang"
  },
  "schemaVersion": "3.4.16",
  "updatedAt": "2024-12-16T03:16:24.418Z",
  "devdoc": {
    "errors": {
      "FailedCall()": [
        {
          "details": "A call to an address target failed. The target may have reverted."
        }
      ],
      "InsufficientBalance(uint256,uint256)": [
        {
          "details": "The ETH balance of the account is not enough to perform the operation."
        }
      ]
    },
    "kind": "dev",
    "methods": {},
    "version": 1
  },
  "userdoc": {
    "kind": "user",
    "methods": {},
    "version": 1
  }
}