{
  "contractName": "EnglishAuction",
  "abi": [
    {
      "inputs": [
        {
          "internalType": "string",
          "name": "_name",
          "type": "string"
        },
        {
          "internalType": "string",
          "name": "_symbol",
          "type": "string"
        }
      ],
      "stateMutability": "nonpayable",
      "type": "constructor"
    },
    {
      "inputs": [
        {
          "internalType": "address",
          "name": "sender",
          "type": "address"
        },
        {
          "internalType": "uint256",
          "name": "tokenId",
          "type": "uint256"
        },
        {
          "internalType": "address",
          "name": "owner",
          "type": "address"
        }
      ],
      "name": "ERC721IncorrectOwner",
      "type": "error"
    },
    {
      "inputs": [
        {
          "internalType": "address",
          "name": "operator",
          "type": "address"
        },
        {
          "internalType": "uint256",
          "name": "tokenId",
          "type": "uint256"
        }
      ],
      "name": "ERC721InsufficientApproval",
      "type": "error"
    },
    {
      "inputs": [
        {
          "internalType": "address",
          "name": "approver",
          "type": "address"
        }
      ],
      "name": "ERC721InvalidApprover",
      "type": "error"
    },
    {
      "inputs": [
        {
          "internalType": "address",
          "name": "operator",
          "type": "address"
        }
      ],
      "name": "ERC721InvalidOperator",
      "type": "error"
    },
    {
      "inputs": [
        {
          "internalType": "address",
          "name": "owner",
          "type": "address"
        }
      ],
      "name": "ERC721InvalidOwner",
      "type": "error"
    },
    {
      "inputs": [
        {
          "internalType": "address",
          "name": "receiver",
          "type": "address"
        }
      ],
      "name": "ERC721InvalidReceiver",
      "type": "error"
    },
    {
      "inputs": [
        {
          "internalType": "address",
          "name": "sender",
          "type": "address"
        }
      ],
      "name": "ERC721InvalidSender",
      "type": "error"
    },
    {
      "inputs": [
        {
          "internalType": "uint256",
          "name": "tokenId",
          "type": "uint256"
        }
      ],
      "name": "ERC721NonexistentToken",
      "type": "error"
    },
    {
      "inputs": [],
      "name": "FailedCall",
      "type": "error"
    },
    {
      "inputs": [
        {
          "internalType": "uint256",
          "name": "balance",
          "type": "uint256"
        },
        {
          "internalType": "uint256",
          "name": "needed",
          "type": "uint256"
        }
      ],
      "name": "InsufficientBalance",
      "type": "error"
    },
    {
      "inputs": [
        {
          "internalType": "address",
          "name": "owner",
          "type": "address"
        }
      ],
      "name": "OwnableInvalidOwner",
      "type": "error"
    },
    {
      "inputs": [
        {
          "internalType": "address",
          "name": "account",
          "type": "address"
        }
      ],
      "name": "OwnableUnauthorizedAccount",
      "type": "error"
    },
    {
      "anonymous": false,
      "inputs": [
        {
          "indexed": true,
          "internalType": "address",
          "name": "owner",
          "type": "address"
        },
        {
          "indexed": true,
          "internalType": "address",
          "name": "approved",
          "type": "address"
        },
        {
          "indexed": true,
          "internalType": "uint256",
          "name": "tokenId",
          "type": "uint256"
        }
      ],
      "name": "Approval",
      "type": "event"
    },
    {
      "anonymous": false,
      "inputs": [
        {
          "indexed": true,
          "internalType": "address",
          "name": "owner",
          "type": "address"
        },
        {
          "indexed": true,
          "internalType": "address",
          "name": "operator",
          "type": "address"
        },
        {
          "indexed": false,
          "internalType": "bool",
          "name": "approved",
          "type": "bool"
        }
      ],
      "name": "ApprovalForAll",
      "type": "event"
    },
    {
      "anonymous": false,
      "inputs": [
        {
          "indexed": false,
          "internalType": "uint256",
          "name": "auctionId",
          "type": "uint256"
        },
        {
          "indexed": false,
          "internalType": "uint256",
          "name": "duration",
          "type": "uint256"
        },
        {
          "indexed": false,
          "internalType": "uint256",
          "name": "minBidIncrement",
          "type": "uint256"
        },
        {
          "indexed": false,
          "internalType": "uint256",
          "name": "startingPrice",
          "type": "uint256"
        },
        {
          "indexed": false,
          "internalType": "address",
          "name": "creator",
          "type": "address"
        },
        {
          "indexed": false,
          "internalType": "uint256",
          "name": "tokenId",
          "type": "uint256"
        },
        {
          "indexed": false,
          "internalType": "address",
          "name": "nftContract",
          "type": "address"
        }
      ],
      "name": "AuctionCreated",
      "type": "event"
    },
    {
      "anonymous": false,
      "inputs": [
        {
          "indexed": false,
          "internalType": "uint256",
          "name": "auctionId",
          "type": "uint256"
        },
        {
          "indexed": false,
          "internalType": "address",
          "name": "winner",
          "type": "address"
        },
        {
          "indexed": false,
          "internalType": "uint256",
          "name": "amount",
          "type": "uint256"
        }
      ],
      "name": "AuctionEnded",
      "type": "event"
    },
    {
      "anonymous": false,
      "inputs": [
        {
          "indexed": false,
          "internalType": "uint256",
          "name": "_fromTokenId",
          "type": "uint256"
        },
        {
          "indexed": false,
          "internalType": "uint256",
          "name": "_toTokenId",
          "type": "uint256"
        }
      ],
      "name": "BatchMetadataUpdate",
      "type": "event"
    },
    {
      "anonymous": false,
      "inputs": [
        {
          "indexed": false,
          "internalType": "uint256",
          "name": "auctionId",
          "type": "uint256"
        },
        {
          "indexed": false,
          "internalType": "uint256",
          "name": "amount",
          "type": "uint256"
        },
        {
          "indexed": true,
          "internalType": "address",
          "name": "creator",
          "type": "address"
        }
      ],
      "name": "FundsWithdrawn",
      "type": "event"
    },
    {
      "anonymous": false,
      "inputs": [
        {
          "indexed": false,
          "internalType": "uint256",
          "name": "_tokenId",
          "type": "uint256"
        }
      ],
      "name": "MetadataUpdate",
      "type": "event"
    },
    {
      "anonymous": false,
      "inputs": [
        {
          "indexed": false,
          "internalType": "uint256",
          "name": "auctionId",
          "type": "uint256"
        },
        {
          "indexed": true,
          "internalType": "address",
          "name": "bidder",
          "type": "address"
        },
        {
          "indexed": false,
          "internalType": "uint256",
          "name": "amount",
          "type": "uint256"
        }
      ],
      "name": "NewBidPlaced",
      "type": "event"
    },
    {
      "anonymous": false,
      "inputs": [
        {
          "indexed": true,
          "internalType": "address",
          "name": "previousOwner",
          "type": "address"
        },
        {
          "indexed": true,
          "internalType": "address",
          "name": "newOwner",
          "type": "address"
        }
      ],
      "name": "OwnershipTransferred",
      "type": "event"
    },
    {
      "anonymous": false,
      "inputs": [
        {
          "indexed": false,
          "internalType": "uint256",
          "name": "auctionId",
          "type": "uint256"
        },
        {
          "indexed": true,
          "internalType": "address",
          "name": "bidder",
          "type": "address"
        },
        {
          "indexed": false,
          "internalType": "uint256",
          "name": "amount",
          "type": "uint256"
        }
      ],
      "name": "RefundIssued",
      "type": "event"
    },
    {
      "anonymous": false,
      "inputs": [
        {
          "indexed": true,
          "internalType": "address",
          "name": "from",
          "type": "address"
        },
        {
          "indexed": true,
          "internalType": "address",
          "name": "to",
          "type": "address"
        },
        {
          "indexed": true,
          "internalType": "uint256",
          "name": "tokenId",
          "type": "uint256"
        }
      ],
      "name": "Transfer",
      "type": "event"
    },
    {
      "inputs": [
        {
          "internalType": "address",
          "name": "to",
          "type": "address"
        },
        {
          "internalType": "uint256",
          "name": "tokenId",
          "type": "uint256"
        }
      ],
      "name": "approve",
      "outputs": [],
      "stateMutability": "nonpayable",
      "type": "function"
    },
    {
      "inputs": [
        {
          "internalType": "uint256",
          "name": "",
          "type": "uint256"
        }
      ],
      "name": "auctionIds",
      "outputs": [
        {
          "internalType": "uint256",
          "name": "",
          "type": "uint256"
        }
      ],
      "stateMutability": "view",
      "type": "function"
    },
    {
      "inputs": [
        {
          "internalType": "uint256",
          "name": "",
          "type": "uint256"
        }
      ],
      "name": "auctions",
      "outputs": [
        {
          "internalType": "uint256",
          "name": "auctionId",
          "type": "uint256"
        },
        {
          "internalType": "address",
          "name": "highestBidder",
          "type": "address"
        },
        {
          "internalType": "uint256",
          "name": "highestBid",
          "type": "uint256"
        },
        {
          "internalType": "uint256",
          "name": "auctionEndTime",
          "type": "uint256"
        },
        {
          "internalType": "bool",
          "name": "auctionEnded",
          "type": "bool"
        },
        {
          "internalType": "uint256",
          "name": "minBidIncrement",
          "type": "uint256"
        },
        {
          "internalType": "address",
          "name": "creator",
          "type": "address"
        },
        {
          "internalType": "bool",
          "name": "withdrawn",
          "type": "bool"
        },
        {
          "internalType": "uint256",
          "name": "tokenId",
          "type": "uint256"
        },
        {
          "internalType": "address",
          "name": "nftContract",
          "type": "address"
        }
      ],
      "stateMutability": "view",
      "type": "function"
    },
    {
      "inputs": [
        {
          "internalType": "address",
          "name": "owner",
          "type": "address"
        }
      ],
      "name": "balanceOf",
      "outputs": [
        {
          "internalType": "uint256",
          "name": "",
          "type": "uint256"
        }
      ],
      "stateMutability": "view",
      "type": "function"
    },
    {
      "inputs": [
        {
          "internalType": "uint256",
          "name": "tokenId",
          "type": "uint256"
        }
      ],
      "name": "getApproved",
      "outputs": [
        {
          "internalType": "address",
          "name": "",
          "type": "address"
        }
      ],
      "stateMutability": "view",
      "type": "function"
    },
    {
      "inputs": [
        {
          "internalType": "address",
          "name": "owner",
          "type": "address"
        },
        {
          "internalType": "address",
          "name": "operator",
          "type": "address"
        }
      ],
      "name": "isApprovedForAll",
      "outputs": [
        {
          "internalType": "bool",
          "name": "",
          "type": "bool"
        }
      ],
      "stateMutability": "view",
      "type": "function"
    },
    {
      "inputs": [],
      "name": "name",
      "outputs": [
        {
          "internalType": "string",
          "name": "",
          "type": "string"
        }
      ],
      "stateMutability": "view",
      "type": "function"
    },
    {
      "inputs": [],
      "name": "owner",
      "outputs": [
        {
          "internalType": "address",
          "name": "",
          "type": "address"
        }
      ],
      "stateMutability": "view",
      "type": "function"
    },
    {
      "inputs": [
        {
          "internalType": "uint256",
          "name": "tokenId",
          "type": "uint256"
        }
      ],
      "name": "ownerOf",
      "outputs": [
        {
          "internalType": "address",
          "name": "",
          "type": "address"
        }
      ],
      "stateMutability": "view",
      "type": "function"
    },
    {
      "inputs": [],
      "name": "renounceOwnership",
      "outputs": [],
      "stateMutability": "nonpayable",
      "type": "function"
    },
    {
      "inputs": [
        {
          "internalType": "address",
          "name": "from",
          "type": "address"
        },
        {
          "internalType": "address",
          "name": "to",
          "type": "address"
        },
        {
          "internalType": "uint256",
          "name": "tokenId",
          "type": "uint256"
        }
      ],
      "name": "safeTransferFrom",
      "outputs": [],
      "stateMutability": "nonpayable",
      "type": "function"
    },
    {
      "inputs": [
        {
          "internalType": "address",
          "name": "from",
          "type": "address"
        },
        {
          "internalType": "address",
          "name": "to",
          "type": "address"
        },
        {
          "internalType": "uint256",
          "name": "tokenId",
          "type": "uint256"
        },
        {
          "internalType": "bytes",
          "name": "data",
          "type": "bytes"
        }
      ],
      "name": "safeTransferFrom",
      "outputs": [],
      "stateMutability": "nonpayable",
      "type": "function"
    },
    {
      "inputs": [
        {
          "internalType": "address",
          "name": "operator",
          "type": "address"
        },
        {
          "internalType": "bool",
          "name": "approved",
          "type": "bool"
        }
      ],
      "name": "setApprovalForAll",
      "outputs": [],
      "stateMutability": "nonpayable",
      "type": "function"
    },
    {
      "inputs": [
        {
          "internalType": "bytes4",
          "name": "interfaceId",
          "type": "bytes4"
        }
      ],
      "name": "supportsInterface",
      "outputs": [
        {
          "internalType": "bool",
          "name": "",
          "type": "bool"
        }
      ],
      "stateMutability": "view",
      "type": "function"
    },
    {
      "inputs": [],
      "name": "symbol",
      "outputs": [
        {
          "internalType": "string",
          "name": "",
          "type": "string"
        }
      ],
      "stateMutability": "view",
      "type": "function"
    },
    {
      "inputs": [
        {
          "internalType": "uint256",
          "name": "tokenId",
          "type": "uint256"
        }
      ],
      "name": "tokenURI",
      "outputs": [
        {
          "internalType": "string",
          "name": "",
          "type": "string"
        }
      ],
      "stateMutability": "view",
      "type": "function"
    },
    {
      "inputs": [
        {
          "internalType": "address",
          "name": "from",
          "type": "address"
        },
        {
          "internalType": "address",
          "name": "to",
          "type": "address"
        },
        {
          "internalType": "uint256",
          "name": "tokenId",
          "type": "uint256"
        }
      ],
      "name": "transferFrom",
      "outputs": [],
      "stateMutability": "nonpayable",
      "type": "function"
    },
    {
      "inputs": [
        {
          "internalType": "address",
          "name": "newOwner",
          "type": "address"
        }
      ],
      "name": "transferOwnership",
      "outputs": [],
      "stateMutability": "nonpayable",
      "type": "function"
    },
    {
      "inputs": [
        {
          "internalType": "uint256",
          "name": "auctionId",
          "type": "uint256"
        },
        {
          "internalType": "address",
          "name": "nftContract",
          "type": "address"
        },
        {
          "internalType": "uint256",
          "name": "tokenId",
          "type": "uint256"
        },
        {
          "internalType": "uint256",
          "name": "_duration",
          "type": "uint256"
        },
        {
          "internalType": "uint256",
          "name": "_minBidIncrement",
          "type": "uint256"
        },
        {
          "internalType": "uint256",
          "name": "_startingPrice",
          "type": "uint256"
        }
      ],
      "name": "createAuction",
      "outputs": [],
      "stateMutability": "nonpayable",
      "type": "function"
    },
    {
      "inputs": [
        {
          "internalType": "uint256",
          "name": "auctionId",
          "type": "uint256"
        }
      ],
      "name": "placeBid",
      "outputs": [],
      "stateMutability": "payable",
      "type": "function"
    },
    {
      "inputs": [
        {
          "internalType": "uint256",
          "name": "auctionId",
          "type": "uint256"
        }
      ],
      "name": "endAuction",
      "outputs": [],
      "stateMutability": "nonpayable",
      "type": "function"
    },
    {
      "inputs": [
        {
          "internalType": "uint256",
          "name": "auctionId",
          "type": "uint256"
        }
      ],
      "name": "withdraw",
      "outputs": [],
      "stateMutability": "nonpayable",
      "type": "function"
    },
    {
      "inputs": [],
      "name": "getAuctionIds",
      "outputs": [
        {
          "internalType": "uint256[]",
          "name": "",
          "type": "uint256[]"
        }
      ],
      "stateMutability": "view",
      "type": "function"
    },
    {
      "inputs": [
        {
          "internalType": "uint256",
          "name": "auctionId",
          "type": "uint256"
        }
      ],
      "name": "getAuctionDetails",
      "outputs": [
        {
          "internalType": "uint256",
          "name": "id",
          "type": "uint256"
        },
        {
          "internalType": "address",
          "name": "highestBidder",
          "type": "address"
        },
        {
          "internalType": "uint256",
          "name": "highestBid",
          "type": "uint256"
        },
        {
          "internalType": "uint256",
          "name": "auctionEndTime",
          "type": "uint256"
        },
        {
          "internalType": "bool",
          "name": "auctionEnded",
          "type": "bool"
        },
        {
          "internalType": "uint256",
          "name": "minBidIncrement",
          "type": "uint256"
        },
        {
          "internalType": "address",
          "name": "creator",
          "type": "address"
        },
        {
          "internalType": "bool",
          "name": "withdrawn",
          "type": "bool"
        },
        {
          "internalType": "uint256",
          "name": "tokenId",
          "type": "uint256"
        },
        {
          "internalType": "address",
          "name": "nftContract",
          "type": "address"
        }
      ],
      "stateMutability": "view",
      "type": "function"
    }
  ],
  "bytecode": "0x6080604052600a805460ff191690553480156200001b57600080fd5b50604051620026e0380380620026e08339810160408190526200003e91620001bb565b33828260006200004f8382620002b4565b5060016200005e8282620002b4565b5050506001600160a01b0381166200009057604051631e4fbdf760e01b81526000600482015260240160405180910390fd5b6200009b81620000a4565b50505062000380565b600780546001600160a01b038381166001600160a01b0319831681179093556040519116919082907f8be0079c531659141344cd1fd0a4f28419497f9722a3daafe3b4186f6b6457e090600090a35050565b634e487b7160e01b600052604160045260246000fd5b600082601f8301126200011e57600080fd5b81516001600160401b03808211156200013b576200013b620000f6565b604051601f8301601f19908116603f01168101908282118183101715620001665762000166620000f6565b816040528381526020925086838588010111156200018357600080fd5b600091505b83821015620001a7578582018301518183018401529082019062000188565b600093810190920192909252949350505050565b60008060408385031215620001cf57600080fd5b82516001600160401b0380821115620001e757600080fd5b620001f5868387016200010c565b935060208501519150808211156200020c57600080fd5b506200021b858286016200010c565b9150509250929050565b600181811c908216806200023a57607f821691505b6020821081036200025b57634e487b7160e01b600052602260045260246000fd5b50919050565b601f821115620002af57600081815260208120601f850160051c810160208610156200028a5750805b601f850160051c820191505b81811015620002ab5782815560010162000296565b5050505b505050565b81516001600160401b03811115620002d057620002d0620000f6565b620002e881620002e1845462000225565b8462000261565b602080601f831160018114620003205760008415620003075750858301515b600019600386901b1c1916600185901b178555620002ab565b600085815260208120601f198616915b82811015620003515788860151825594840194600190910190840162000330565b5085821015620003705787850151600019600388901b60f8161c191681555b5050505050600190811b01905550565b61235080620003906000396000f3fe60806040526004361061014b5760003560e01c806370a08231116100b6578063b88d4fde1161006f578063b88d4fde1461046a578063b9a2de3a1461048a578063c87b56dd146104aa578063e985e9c5146104ca578063f20e5e35146104ea578063f2fde38b1461050a57600080fd5b806370a08231146103cf578063715018a6146103ef5780638da5cb5b1461040457806395d89b41146104225780639979ef4514610437578063a22cb4651461044a57600080fd5b806323b872dd1161010857806323b872dd146102435780632a6433be146102635780632e1a7d4d1461029157806342842e0e146102b1578063571a26a0146102d15780636352211e146103af57600080fd5b806301ffc9a71461015057806306fdde0314610185578063081812fc146101a7578063095ea7b3146101df5780631094db1b146102015780632303db3b14610223575b600080fd5b34801561015c57600080fd5b5061017061016b366004611e64565b61052a565b60405190151581526020015b60405180910390f35b34801561019157600080fd5b5061019a610555565b60405161017c9190611ed1565b3480156101b357600080fd5b506101c76101c2366004611ee4565b6105e7565b6040516001600160a01b03909116815260200161017c565b3480156101eb57600080fd5b506101ff6101fa366004611f12565b610610565b005b34801561020d57600080fd5b5061021661061f565b60405161017c9190611f3e565b34801561022f57600080fd5b506101ff61023e366004611f82565b610676565b34801561024f57600080fd5b506101ff61025e366004611fd2565b610a1d565b34801561026f57600080fd5b5061028361027e366004611ee4565b610aa8565b60405190815260200161017c565b34801561029d57600080fd5b506101ff6102ac366004611ee4565b610ac9565b3480156102bd57600080fd5b506101ff6102cc366004611fd2565b610cc8565b3480156102dd57600080fd5b506103566102ec366004611ee4565b600860208190526000918252604090912080546001820154600283015460038401546004850154600586015460068701546007880154979098015495976001600160a01b03958616979496939560ff93841695929482821694600160a01b9093049092169291168a565b604080519a8b526001600160a01b03998a1660208c01528a01979097526060890195909552921515608088015260a0870191909152841660c0860152151560e0850152610100840152166101208201526101400161017c565b3480156103bb57600080fd5b506101c76103ca366004611ee4565b610ce8565b3480156103db57600080fd5b506102836103ea366004612013565b610cf3565b3480156103fb57600080fd5b506101ff610d3b565b34801561041057600080fd5b506007546001600160a01b03166101c7565b34801561042e57600080fd5b5061019a610d4f565b6101ff610445366004611ee4565b610d5e565b34801561045657600080fd5b506101ff610465366004612030565b6110e9565b34801561047657600080fd5b506101ff610485366004612084565b6110f4565b34801561049657600080fd5b506101ff6104a5366004611ee4565b61110c565b3480156104b657600080fd5b5061019a6104c5366004611ee4565b611376565b3480156104d657600080fd5b506101706104e5366004612164565b611487565b3480156104f657600080fd5b50610356610505366004611ee4565b6114b5565b34801561051657600080fd5b506101ff610525366004612013565b6115ed565b60006001600160e01b03198216632483248360e11b148061054f575061054f8261162b565b92915050565b60606000805461056490612192565b80601f016020809104026020016040519081016040528092919081815260200182805461059090612192565b80156105dd5780601f106105b2576101008083540402835291602001916105dd565b820191906000526020600020905b8154815290600101906020018083116105c057829003601f168201915b5050505050905090565b60006105f28261167b565b506000828152600460205260409020546001600160a01b031661054f565b61061b8282336116b4565b5050565b606060098054806020026020016040519081016040528092919081815260200182805480156105dd57602002820191906000526020600020905b815481526020019060010190808311610659575050505050905090565b600086815260086020526040902060030154156106d35760405162461bcd60e51b815260206004820152601660248201527541756374696f6e20616c72656164792065786973747360501b60448201526064015b60405180910390fd5b6000831161072e5760405162461bcd60e51b815260206004820152602260248201527f4475726174696f6e206d7573742062652067726561746572207468616e207a65604482015261726f60f01b60648201526084016106ca565b6040516331a9108f60e11b81526004810185905233906001600160a01b03871690636352211e90602401602060405180830381865afa158015610775573d6000803e3d6000fd5b505050506040513d601f19601f8201168201806040525081019061079991906121cc565b6001600160a01b0316146107e35760405162461bcd60e51b81526020600482015260116024820152702737ba103a34329027232a1037bbb732b960791b60448201526064016106ca565b6040516323b872dd60e01b8152336004820152306024820152604481018590526001600160a01b038616906323b872dd90606401600060405180830381600087803b15801561083157600080fd5b505af1158015610845573d6000803e3d6000fd5b50506040805161014081018252898152600060208201529081018490529150506060810161087385426121e9565b8152600060208083018290526040808401879052336060808601829052608080870186905260a08088018d90526001600160a01b038e811660c0998a01528f885260088088528689208b518155978b0151600189810180549285166001600160a01b03199384161790558c89015160028b0155958c015160038a0155938b015160048901805491151560ff19909216919091179055918a015160058801559789015160068701805460e08c01511515600160a01b026001600160a81b0319909116928b16929092179190911790556101008901516007870155610120909801519490970180549490961693909616929092179093556009805494850181559091527f6e1540171b6c0c960b71a7020d9f60077f6af931a8bbf590da0223dacf75c7af909201889055517ff6975a2350fdee0d97b958c837a921e7be30e6e9ef7828bb4598a5ea2dfb35ac91610a0d9189918791879187918b908d909687526020870195909552604086019390935260608501919091526001600160a01b03908116608085015260a08401919091521660c082015260e00190565b60405180910390a1505050505050565b6001600160a01b038216610a4757604051633250574960e11b8152600060048201526024016106ca565b6000610a548383336116c1565b9050836001600160a01b0316816001600160a01b031614610aa2576040516364283d7b60e01b81526001600160a01b03808616600483015260248201849052821660448201526064016106ca565b50505050565b60098181548110610ab857600080fd5b600091825260209091200154905081565b60008181526008602052604090206006015481906001600160a01b03163314610b045760405162461bcd60e51b81526004016106ca9061220a565b600a5460ff1615610b275760405162461bcd60e51b81526004016106ca9061225a565b600a805460ff191660011790556000828152600860205260409020600481015460ff16610b925760405162461bcd60e51b8152602060048201526019602482015278105d58dd1a5bdb881a185cc81b9bdd081e595d08195b991959603a1b60448201526064016106ca565b6006810154600160a01b900460ff1615610bee5760405162461bcd60e51b815260206004820152601760248201527f46756e647320616c72656164792077697468647261776e00000000000000000060448201526064016106ca565b6000816002015411610c395760405162461bcd60e51b81526020600482015260146024820152734e6f2066756e647320746f20776974686472617760601b60448201526064016106ca565b600281018054600090915560068201805460ff60a01b198116600160a01b17909155610c6e906001600160a01b0316826117ba565b600682015460408051868152602081018490526001600160a01b03909216917ff3b5906e5672f3e524854103bcafbbdba80dbdfeca2c35e116127b1060a68318910160405180910390a25050600a805460ff191690555050565b610ce3838383604051806020016040528060008152506110f4565b505050565b600061054f8261167b565b60006001600160a01b038216610d1f576040516322718ad960e21b8152600060048201526024016106ca565b506001600160a01b031660009081526003602052604090205490565b610d43611858565b610d4d6000611885565b565b60606001805461056490612192565b6000818152600860205260409020600301548190610db75760405162461bcd60e51b8152602060048201526016602482015275105d58dd1a5bdb88191bd95cc81b9bdd08195e1a5cdd60521b60448201526064016106ca565b6000818152600860205260409020600301544210610e0d5760405162461bcd60e51b8152602060048201526013602482015272105d58dd1a5bdb881a185cc8195e1c1a5c9959606a1b60448201526064016106ca565b60008181526008602052604090206004015460ff1615610e6f5760405162461bcd60e51b815260206004820152601960248201527f41756374696f6e2068617320616c726561647920656e6465640000000000000060448201526064016106ca565b600a5460ff1615610e925760405162461bcd60e51b81526004016106ca9061225a565b600a805460ff19166001179055600082815260086020526040902060068101546001600160a01b03163303610f175760405162461bcd60e51b815260206004820152602560248201527f4f776e65722063616e6e6f7420626964206f6e207468656972206f776e20617560448201526431ba34b7b760d91b60648201526084016106ca565b80600501548160020154610f2b91906121e9565b341015610fa05760405162461bcd60e51b815260206004820152603e60248201527f426964206d75737420626520686967686572207468616e2063757272656e742060448201527f62696420706c757320746865206d696e696d756d20696e6372656d656e74000060648201526084016106ca565b60018101546001600160a01b031633036110075760405162461bcd60e51b815260206004820152602260248201527f596f752061726520616c7265616479207468652068696768657374206269646460448201526132b960f11b60648201526084016106ca565b6002810154156110815760028101546001820154611030916001600160a01b03909116906117ba565b600181015460028201546040805186815260208101929092526001600160a01b03909216917f7a482fdeb6bc9a1376f597068a214a7a39472bb2eff1b8cad21ba04f49ddca1b910160405180910390a25b6001810180546001600160a01b0319163390811790915534600283018190556040805186815260208101929092527f7136042fc8b502cb7b2f9c23ef190a14de582a02a0ffd89b1c399bb8dd8e6ad3910160405180910390a25050600a805460ff1916905550565b61061b3383836118d7565b6110ff848484610a1d565b610aa23385858585611976565b60008181526008602052604090206006015481906001600160a01b031633146111475760405162461bcd60e51b81526004016106ca9061220a565b600a5460ff161561116a5760405162461bcd60e51b81526004016106ca9061225a565b600a805460ff19166001179055600082815260086020526040902060038101544210156111d55760405162461bcd60e51b8152602060048201526019602482015278105d58dd1a5bdb881a185cc81b9bdd081e595d08195b991959603a1b60448201526064016106ca565b600481015460ff16156112225760405162461bcd60e51b8152602060048201526015602482015274105d58dd1a5bdb88185b1c9958591e48195b991959605a1b60448201526064016106ca565b60048101805460ff191660019081179091558101546001600160a01b031615801590611252575060008160020154115b1561131657600881015460018201546007830154604051632142170760e11b81523060048201526001600160a01b03928316602482015260448101919091529116906342842e0e90606401600060405180830381600087803b1580156112b757600080fd5b505af19250505080156112c8575060015b611316573d8080156112f6576040519150601f19603f3d011682016040523d82523d6000602084013e6112fb565b606091505b508060405162461bcd60e51b81526004016106ca9190611ed1565b60018101546002820154604080518681526001600160a01b0390931660208401528201527fd2aa34a4fdbbc6dff6a3e56f46e0f3ae2a31d7785ff3487aa5c95c642acea5019060600160405180910390a15050600a805460ff1916905550565b60606113818261167b565b506000828152600660205260408120805461139b90612192565b80601f01602080910402602001604051908101604052809291908181526020018280546113c790612192565b80156114145780601f106113e957610100808354040283529160200191611414565b820191906000526020600020905b8154815290600101906020018083116113f757829003601f168201915b50505050509050600061143260408051602081019091526000815290565b90508051600003611444575092915050565b81511561147657808260405160200161145e929190612291565b60405160208183030381529060405292505050919050565b61147f84611aa1565b949350505050565b6001600160a01b03918216600090815260056020908152604080832093909416825291909152205460ff1690565b6000806000806000806000806000808a60006008600083815260200190815260200160002060030154116115245760405162461bcd60e51b8152602060048201526016602482015275105d58dd1a5bdb88191bd95cc81b9bdd08195e1a5cdd60521b60448201526064016106ca565b5050506000988952505060086020818152604098899020895161014081018b52815480825260018301546001600160a01b0390811694830185905260028401549c83018d9052600384015460608401819052600485015460ff908116151560808601819052600587015460a08701819052600688015480861660c08901819052600160a01b909104909316151560e088018190526007890154610100890181905298909a0154909416610120909601869052939f969e9d50909b50919950975095509293509190565b6115f5611858565b6001600160a01b03811661161f57604051631e4fbdf760e01b8152600060048201526024016106ca565b61162881611885565b50565b60006001600160e01b031982166380ac58cd60e01b148061165c57506001600160e01b03198216635b5e139f60e01b145b8061054f57506301ffc9a760e01b6001600160e01b031983161461054f565b6000818152600260205260408120546001600160a01b03168061054f57604051637e27328960e01b8152600481018490526024016106ca565b610ce38383836001611b16565b6000828152600260205260408120546001600160a01b03908116908316156116ee576116ee818486611c1c565b6001600160a01b0381161561172c5761170b600085600080611b16565b6001600160a01b038116600090815260036020526040902080546000190190555b6001600160a01b0385161561175b576001600160a01b0385166000908152600360205260409020805460010190555b60008481526002602052604080822080546001600160a01b0319166001600160a01b0389811691821790925591518793918516917fddf252ad1be2c89b69c2b068fc378daa952ba7f163c4a11628f55a4df523b3ef91a4949350505050565b804710156117e45760405163cf47918160e01b8152476004820152602481018290526044016106ca565b6000826001600160a01b03168260405160006040518083038185875af1925050503d8060008114611831576040519150601f19603f3d011682016040523d82523d6000602084013e611836565b606091505b5050905080610ce35760405163d6bda27560e01b815260040160405180910390fd5b6007546001600160a01b03163314610d4d5760405163118cdaa760e01b81523360048201526024016106ca565b600780546001600160a01b038381166001600160a01b0319831681179093556040519116919082907f8be0079c531659141344cd1fd0a4f28419497f9722a3daafe3b4186f6b6457e090600090a35050565b6001600160a01b03821661190957604051630b61174360e31b81526001600160a01b03831660048201526024016106ca565b6001600160a01b03838116600081815260056020908152604080832094871680845294825291829020805460ff191686151590811790915591519182527f17307eab39ab6107e8899845ad3d59bd9653f200f220920489ca2b5937696c31910160405180910390a3505050565b6001600160a01b0383163b15611a9a57604051630a85bd0160e11b81526001600160a01b0384169063150b7a02906119b89088908890879087906004016122c0565b6020604051808303816000875af19250505080156119f3575060408051601f3d908101601f191682019092526119f0918101906122fd565b60015b611a5c573d808015611a21576040519150601f19603f3d011682016040523d82523d6000602084013e611a26565b606091505b508051600003611a5457604051633250574960e11b81526001600160a01b03851660048201526024016106ca565b805181602001fd5b6001600160e01b03198116630a85bd0160e11b14611a9857604051633250574960e11b81526001600160a01b03851660048201526024016106ca565b505b5050505050565b6060611aac8261167b565b506000611ac460408051602081019091526000815290565b90506000815111611ae45760405180602001604052806000815250611b0f565b80611aee84611c80565b604051602001611aff929190612291565b6040516020818303038152906040525b9392505050565b8080611b2a57506001600160a01b03821615155b15611bec576000611b3a8461167b565b90506001600160a01b03831615801590611b665750826001600160a01b0316816001600160a01b031614155b8015611b795750611b778184611487565b155b15611ba25760405163a9fbf51f60e01b81526001600160a01b03841660048201526024016106ca565b8115611bea5783856001600160a01b0316826001600160a01b03167f8c5be1e5ebec7d5bd14f71427d1e84f3dd0314c0f7b2291e5b200ac8c7c3b92560405160405180910390a45b505b5050600090815260046020526040902080546001600160a01b0319166001600160a01b0392909216919091179055565b611c27838383611d13565b610ce3576001600160a01b038316611c5557604051637e27328960e01b8152600481018290526024016106ca565b60405163177e802f60e01b81526001600160a01b0383166004820152602481018290526044016106ca565b60606000611c8d83611d76565b600101905060008167ffffffffffffffff811115611cad57611cad61206e565b6040519080825280601f01601f191660200182016040528015611cd7576020820181803683370190505b5090508181016020015b600019016f181899199a1a9b1b9c1cb0b131b232b360811b600a86061a8153600a8504945084611ce157509392505050565b60006001600160a01b0383161580159061147f5750826001600160a01b0316846001600160a01b03161480611d4d5750611d4d8484611487565b8061147f5750506000908152600460205260409020546001600160a01b03908116911614919050565b60008072184f03e93ff9f4daa797ed6e38ed64bf6a1f0160401b8310611db55772184f03e93ff9f4daa797ed6e38ed64bf6a1f0160401b830492506040015b6d04ee2d6d415b85acef81000000008310611de1576d04ee2d6d415b85acef8100000000830492506020015b662386f26fc100008310611dff57662386f26fc10000830492506010015b6305f5e1008310611e17576305f5e100830492506008015b6127108310611e2b57612710830492506004015b60648310611e3d576064830492506002015b600a831061054f5760010192915050565b6001600160e01b03198116811461162857600080fd5b600060208284031215611e7657600080fd5b8135611b0f81611e4e565b60005b83811015611e9c578181015183820152602001611e84565b50506000910152565b60008151808452611ebd816020860160208601611e81565b601f01601f19169290920160200192915050565b602081526000611b0f6020830184611ea5565b600060208284031215611ef657600080fd5b5035919050565b6001600160a01b038116811461162857600080fd5b60008060408385031215611f2557600080fd5b8235611f3081611efd565b946020939093013593505050565b6020808252825182820181905260009190848201906040850190845b81811015611f7657835183529284019291840191600101611f5a565b50909695505050505050565b60008060008060008060c08789031215611f9b57600080fd5b863595506020870135611fad81611efd565b95989597505050506040840135936060810135936080820135935060a0909101359150565b600080600060608486031215611fe757600080fd5b8335611ff281611efd565b9250602084013561200281611efd565b929592945050506040919091013590565b60006020828403121561202557600080fd5b8135611b0f81611efd565b6000806040838503121561204357600080fd5b823561204e81611efd565b91506020830135801515811461206357600080fd5b809150509250929050565b634e487b7160e01b600052604160045260246000fd5b6000806000806080858703121561209a57600080fd5b84356120a581611efd565b935060208501356120b581611efd565b925060408501359150606085013567ffffffffffffffff808211156120d957600080fd5b818701915087601f8301126120ed57600080fd5b8135818111156120ff576120ff61206e565b604051601f8201601f19908116603f011681019083821181831017156121275761212761206e565b816040528281528a602084870101111561214057600080fd5b82602086016020830137600060208483010152809550505050505092959194509250565b6000806040838503121561217757600080fd5b823561218281611efd565b9150602083013561206381611efd565b600181811c908216806121a657607f821691505b6020821081036121c657634e487b7160e01b600052602260045260246000fd5b50919050565b6000602082840312156121de57600080fd5b8151611b0f81611efd565b8082018082111561054f57634e487b7160e01b600052601160045260246000fd5b60208082526030908201527f4f6e6c79207468652061756374696f6e2063726561746f722063616e2070657260408201526f3337b936903a3434b99030b1ba34b7b760811b606082015260800190565b60208082526017908201527f5265656e7472616e742063616c6c206465746563746564000000000000000000604082015260600190565b600083516122a3818460208801611e81565b8351908301906122b7818360208801611e81565b01949350505050565b6001600160a01b03858116825284166020820152604081018390526080606082018190526000906122f390830184611ea5565b9695505050505050565b60006020828403121561230f57600080fd5b8151611b0f81611e4e56fea2646970667358221220125ef0491129e03946aa351029d11ef9e896b076bffb6cca0c7b70362c21ec7a64736f6c63430008150033",
  "immutableReferences": {},
  "source": "// SPDX-License-Identifier: MIT\npragma solidity ^0.8.20;\n\nimport \"@openzeppelin/contracts/access/Ownable.sol\";\nimport \"@openzeppelin/contracts/token/ERC721/extensions/ERC721URIStorage.sol\"; // For metadata support\nimport \"@openzeppelin/contracts/token/ERC721/IERC721.sol\"; // For interaction with ERC721 tokens\nimport \"@openzeppelin/contracts/utils/Address.sol\";\n\ncontract EnglishAuction is ERC721URIStorage, Ownable {\n    using Address for address payable;\n\n    struct Auction {\n        uint256 auctionId;\n        address highestBidder;\n        uint256 highestBid;\n        uint256 auctionEndTime;\n        bool auctionEnded;\n        uint256 minBidIncrement;\n        address creator;\n        bool withdrawn; // Track if funds have been withdrawn\n        uint256 tokenId; // NFT being auctioned\n        address nftContract; // Address of the NFT contract (ERC-721)\n    }\n\n    mapping(uint256 => Auction) public auctions; // Store auctions by ID\n    uint256[] public auctionIds; // Array to store auction IDs\n    bool private locked = false; // Reentrancy guard\n\n    event AuctionCreated(uint256 auctionId, uint256 duration, uint256 minBidIncrement, uint256 startingPrice, address creator, uint256 tokenId, address nftContract);\n    event NewBidPlaced(uint256 auctionId, address indexed bidder, uint256 amount);\n    event RefundIssued(uint256 auctionId, address indexed bidder, uint256 amount);\n    event AuctionEnded(uint256 auctionId, address winner, uint256 amount);\n    event FundsWithdrawn(uint256 auctionId, uint256 amount, address indexed creator);\n\n    modifier nonReentrant() {\n        require(!locked, \"Reentrant call detected\");\n        locked = true;\n        _;\n        locked = false;\n    }\n\n    modifier auctionActive(uint256 auctionId) {\n        require(auctions[auctionId].auctionEndTime > 0, \"Auction does not exist\");\n        require(block.timestamp < auctions[auctionId].auctionEndTime, \"Auction has expired\");\n        require(!auctions[auctionId].auctionEnded, \"Auction has already ended\");\n        _; \n    }\n\n    modifier auctionExists(uint256 auctionId) {\n        require(auctions[auctionId].auctionEndTime > 0, \"Auction does not exist\");\n        _; \n    }\n\n    modifier onlyAuctionCreator(uint256 auctionId) {\n        require(msg.sender == auctions[auctionId].creator, \"Only the auction creator can perform this action\");\n        _; \n    }\n\n    // Constructor that takes name and symbol for ERC721\n    constructor(string memory _name, string memory _symbol) ERC721(_name, _symbol) Ownable(msg.sender) {}\n\n    // Create the auction and specify the NFT being auctioned\n    function createAuction(\n        uint256 auctionId,\n        address nftContract,\n        uint256 tokenId,\n        uint256 _duration,\n        uint256 _minBidIncrement,\n        uint256 _startingPrice\n    ) external {\n        require(auctions[auctionId].auctionEndTime == 0, \"Auction already exists\");\n        require(_duration > 0, \"Duration must be greater than zero\");\n        require(IERC721(nftContract).ownerOf(tokenId) == msg.sender, \"Not the NFT owner\");\n\n        // Ensure the creator owns the token and it's an ERC-721 token\n        IERC721(nftContract).transferFrom(msg.sender, address(this), tokenId);\n\n        auctions[auctionId] = Auction({\n            auctionId: auctionId,\n            highestBidder: address(0),\n            highestBid: _startingPrice,\n            auctionEndTime: block.timestamp + _duration,\n            auctionEnded: false,\n            minBidIncrement: _minBidIncrement,\n            creator: msg.sender,\n            withdrawn: false,\n            tokenId: tokenId,\n            nftContract: nftContract\n        });\n\n        auctionIds.push(auctionId);\n        emit AuctionCreated(auctionId, _duration, _minBidIncrement, _startingPrice, msg.sender, tokenId, nftContract);\n    }\n\n    // Place a bid on the auction\n    function placeBid(uint256 auctionId) external payable auctionActive(auctionId) nonReentrant {\n        Auction storage auction = auctions[auctionId];\n\n        require(msg.sender != auction.creator, \"Owner cannot bid on their own auction\");\n        require(msg.value >= auction.highestBid + auction.minBidIncrement, \"Bid must be higher than current bid plus the minimum increment\");\n        require(msg.sender != auction.highestBidder, \"You are already the highest bidder\");\n\n        if (auction.highestBid > 0) {\n            // Refund the previous highest bidder\n            payable(auction.highestBidder).sendValue(auction.highestBid);\n            emit RefundIssued(auctionId, auction.highestBidder, auction.highestBid);\n        }\n\n        auction.highestBidder = msg.sender;\n        auction.highestBid = msg.value;\n\n        emit NewBidPlaced(auctionId, msg.sender, msg.value);\n    }\n\n    // End the auction and transfer the NFT to the highest bidder\n    function endAuction(uint256 auctionId) external onlyAuctionCreator(auctionId) nonReentrant {\n        Auction storage auction = auctions[auctionId];\n        require(block.timestamp >= auction.auctionEndTime, \"Auction has not yet ended\");\n        require(!auction.auctionEnded, \"Auction already ended\");\n\n        auction.auctionEnded = true;\n        if (auction.highestBidder != address(0) && auction.highestBid > 0) {\n            // Transfer the NFT to the highest bidder\n            try IERC721(auction.nftContract).safeTransferFrom(address(this), auction.highestBidder, auction.tokenId) {\n                // Success\n            } catch (bytes memory error) {\n                revert(string(error)); // Catch and revert with error message\n            }\n        }\n\n        emit AuctionEnded(auctionId, auction.highestBidder, auction.highestBid);\n    }\n\n    // Withdraw the funds after the auction ends\n    function withdraw(uint256 auctionId) external onlyAuctionCreator(auctionId) nonReentrant {\n        Auction storage auction = auctions[auctionId];\n\n        require(auction.auctionEnded, \"Auction has not yet ended\");\n        require(!auction.withdrawn, \"Funds already withdrawn\");\n        require(auction.highestBid > 0, \"No funds to withdraw\");\n\n        uint256 amount = auction.highestBid;\n        auction.highestBid = 0;\n        auction.withdrawn = true;\n\n        payable(auction.creator).sendValue(amount);\n        emit FundsWithdrawn(auctionId, amount, auction.creator);\n    }\n\n    // Get the list of all auction IDs\n    function getAuctionIds() external view returns (uint256[] memory) {\n        return auctionIds;\n    }\n\n    // Get the details of a specific auction\n    function getAuctionDetails(uint256 auctionId)\n        external\n        view\n        auctionExists(auctionId)\n        returns (\n            uint256 id,\n            address highestBidder,\n            uint256 highestBid,\n            uint256 auctionEndTime,\n            bool auctionEnded,\n            uint256 minBidIncrement,\n            address creator,\n            bool withdrawn,\n            uint256 tokenId,\n            address nftContract\n        )\n    {\n        Auction memory auction = auctions[auctionId];\n        return (\n            auction.auctionId,\n            auction.highestBidder,\n            auction.highestBid,\n            auction.auctionEndTime,\n            auction.auctionEnded,\n            auction.minBidIncrement,\n            auction.creator,\n            auction.withdrawn,\n            auction.tokenId,\n            auction.nftContract\n        );\n    }\n\n    // Optional: To set the URI for a specific NFT if using ERC721URIStorage (metadata)\n    function _setTokenURI(uint256 tokenId, string memory _tokenURI) internal virtual override {\n        super._setTokenURI(tokenId, _tokenURI);\n    }\n}\n",
  "sourcePath": "C:\\Users\\three\\OneDrive\\Documents\\GitHub\\Blockchain_Auction\\contracts\\EnglishAuction.sol",
  "compiler": {
    "name": "solc",
    "version": "0.8.21+commit.d9974bed.Emscripten.clang"
  },
  "schemaVersion": "3.4.16",
  "updatedAt": "2024-12-13T15:55:55.025Z",
  "devdoc": {
    "errors": {
      "ERC721IncorrectOwner(address,uint256,address)": [
        {
          "details": "Indicates an error related to the ownership over a particular token. Used in transfers.",
          "params": {
            "owner": "Address of the current owner of a token.",
            "sender": "Address whose tokens are being transferred.",
            "tokenId": "Identifier number of a token."
          }
        }
      ],
      "ERC721InsufficientApproval(address,uint256)": [
        {
          "details": "Indicates a failure with the `operator`s approval. Used in transfers.",
          "params": {
            "operator": "Address that may be allowed to operate on tokens without being their owner.",
            "tokenId": "Identifier number of a token."
          }
        }
      ],
      "ERC721InvalidApprover(address)": [
        {
          "details": "Indicates a failure with the `approver` of a token to be approved. Used in approvals.",
          "params": {
            "approver": "Address initiating an approval operation."
          }
        }
      ],
      "ERC721InvalidOperator(address)": [
        {
          "details": "Indicates a failure with the `operator` to be approved. Used in approvals.",
          "params": {
            "operator": "Address that may be allowed to operate on tokens without being their owner."
          }
        }
      ],
      "ERC721InvalidOwner(address)": [
        {
          "details": "Indicates that an address can't be an owner. For example, `address(0)` is a forbidden owner in ERC-20. Used in balance queries.",
          "params": {
            "owner": "Address of the current owner of a token."
          }
        }
      ],
      "ERC721InvalidReceiver(address)": [
        {
          "details": "Indicates a failure with the token `receiver`. Used in transfers.",
          "params": {
            "receiver": "Address to which tokens are being transferred."
          }
        }
      ],
      "ERC721InvalidSender(address)": [
        {
          "details": "Indicates a failure with the token `sender`. Used in transfers.",
          "params": {
            "sender": "Address whose tokens are being transferred."
          }
        }
      ],
      "ERC721NonexistentToken(uint256)": [
        {
          "details": "Indicates a `tokenId` whose `owner` is the zero address.",
          "params": {
            "tokenId": "Identifier number of a token."
          }
        }
      ],
      "FailedCall()": [
        {
          "details": "A call to an address target failed. The target may have reverted."
        }
      ],
      "InsufficientBalance(uint256,uint256)": [
        {
          "details": "The ETH balance of the account is not enough to perform the operation."
        }
      ],
      "OwnableInvalidOwner(address)": [
        {
          "details": "The owner is not a valid owner account. (eg. `address(0)`)"
        }
      ],
      "OwnableUnauthorizedAccount(address)": [
        {
          "details": "The caller account is not authorized to perform an operation."
        }
      ]
    },
    "events": {
      "Approval(address,address,uint256)": {
        "details": "Emitted when `owner` enables `approved` to manage the `tokenId` token."
      },
      "ApprovalForAll(address,address,bool)": {
        "details": "Emitted when `owner` enables or disables (`approved`) `operator` to manage all of its assets."
      },
      "BatchMetadataUpdate(uint256,uint256)": {
        "details": "This event emits when the metadata of a range of tokens is changed. So that the third-party platforms such as NFT market could timely update the images and related attributes of the NFTs."
      },
      "MetadataUpdate(uint256)": {
        "details": "This event emits when the metadata of a token is changed. So that the third-party platforms such as NFT market could timely update the images and related attributes of the NFT."
      },
      "Transfer(address,address,uint256)": {
        "details": "Emitted when `tokenId` token is transferred from `from` to `to`."
      }
    },
    "kind": "dev",
    "methods": {
      "approve(address,uint256)": {
        "details": "See {IERC721-approve}."
      },
      "balanceOf(address)": {
        "details": "See {IERC721-balanceOf}."
      },
      "getApproved(uint256)": {
        "details": "See {IERC721-getApproved}."
      },
      "isApprovedForAll(address,address)": {
        "details": "See {IERC721-isApprovedForAll}."
      },
      "name()": {
        "details": "See {IERC721Metadata-name}."
      },
      "owner()": {
        "details": "Returns the address of the current owner."
      },
      "ownerOf(uint256)": {
        "details": "See {IERC721-ownerOf}."
      },
      "renounceOwnership()": {
        "details": "Leaves the contract without owner. It will not be possible to call `onlyOwner` functions. Can only be called by the current owner. NOTE: Renouncing ownership will leave the contract without an owner, thereby disabling any functionality that is only available to the owner."
      },
      "safeTransferFrom(address,address,uint256)": {
        "details": "See {IERC721-safeTransferFrom}."
      },
      "safeTransferFrom(address,address,uint256,bytes)": {
        "details": "See {IERC721-safeTransferFrom}."
      },
      "setApprovalForAll(address,bool)": {
        "details": "See {IERC721-setApprovalForAll}."
      },
      "supportsInterface(bytes4)": {
        "details": "See {IERC165-supportsInterface}"
      },
      "symbol()": {
        "details": "See {IERC721Metadata-symbol}."
      },
      "tokenURI(uint256)": {
        "details": "See {IERC721Metadata-tokenURI}."
      },
      "transferFrom(address,address,uint256)": {
        "details": "See {IERC721-transferFrom}."
      },
      "transferOwnership(address)": {
        "details": "Transfers ownership of the contract to a new account (`newOwner`). Can only be called by the current owner."
      }
    },
    "version": 1
  },
  "userdoc": {
    "kind": "user",
    "methods": {},
    "version": 1
  }
}