{
  "contractName": "EnglishAuction",
  "abi": [
    {
      "inputs": [],
      "name": "FailedCall",
      "type": "error"
    },
    {
      "inputs": [
        {
          "internalType": "uint256",
          "name": "balance",
          "type": "uint256"
        },
        {
          "internalType": "uint256",
          "name": "needed",
          "type": "uint256"
        }
      ],
      "name": "InsufficientBalance",
      "type": "error"
    },
    {
      "anonymous": false,
      "inputs": [
        {
          "indexed": false,
          "internalType": "uint256",
          "name": "auctionId",
          "type": "uint256"
        },
        {
          "indexed": false,
          "internalType": "uint256",
          "name": "duration",
          "type": "uint256"
        },
        {
          "indexed": false,
          "internalType": "uint256",
          "name": "minBidIncrement",
          "type": "uint256"
        },
        {
          "indexed": false,
          "internalType": "uint256",
          "name": "startingPrice",
          "type": "uint256"
        },
        {
          "indexed": false,
          "internalType": "address",
          "name": "creator",
          "type": "address"
        }
      ],
      "name": "AuctionCreated",
      "type": "event"
    },
    {
      "anonymous": false,
      "inputs": [
        {
          "indexed": false,
          "internalType": "uint256",
          "name": "auctionId",
          "type": "uint256"
        },
        {
          "indexed": false,
          "internalType": "address",
          "name": "winner",
          "type": "address"
        },
        {
          "indexed": false,
          "internalType": "uint256",
          "name": "amount",
          "type": "uint256"
        }
      ],
      "name": "AuctionEnded",
      "type": "event"
    },
    {
      "anonymous": false,
      "inputs": [
        {
          "indexed": false,
          "internalType": "uint256",
          "name": "auctionId",
          "type": "uint256"
        },
        {
          "indexed": false,
          "internalType": "uint256",
          "name": "amount",
          "type": "uint256"
        },
        {
          "indexed": true,
          "internalType": "address",
          "name": "creator",
          "type": "address"
        }
      ],
      "name": "FundsWithdrawn",
      "type": "event"
    },
    {
      "anonymous": false,
      "inputs": [
        {
          "indexed": false,
          "internalType": "uint256",
          "name": "auctionId",
          "type": "uint256"
        },
        {
          "indexed": true,
          "internalType": "address",
          "name": "bidder",
          "type": "address"
        },
        {
          "indexed": false,
          "internalType": "uint256",
          "name": "amount",
          "type": "uint256"
        }
      ],
      "name": "NewBidPlaced",
      "type": "event"
    },
    {
      "anonymous": false,
      "inputs": [
        {
          "indexed": false,
          "internalType": "uint256",
          "name": "auctionId",
          "type": "uint256"
        },
        {
          "indexed": true,
          "internalType": "address",
          "name": "bidder",
          "type": "address"
        },
        {
          "indexed": false,
          "internalType": "uint256",
          "name": "amount",
          "type": "uint256"
        }
      ],
      "name": "RefundIssued",
      "type": "event"
    },
    {
      "inputs": [
        {
          "internalType": "uint256",
          "name": "",
          "type": "uint256"
        }
      ],
      "name": "auctionIds",
      "outputs": [
        {
          "internalType": "uint256",
          "name": "",
          "type": "uint256"
        }
      ],
      "stateMutability": "view",
      "type": "function"
    },
    {
      "inputs": [
        {
          "internalType": "uint256",
          "name": "",
          "type": "uint256"
        }
      ],
      "name": "auctions",
      "outputs": [
        {
          "internalType": "uint256",
          "name": "auctionId",
          "type": "uint256"
        },
        {
          "internalType": "address",
          "name": "highestBidder",
          "type": "address"
        },
        {
          "internalType": "uint256",
          "name": "highestBid",
          "type": "uint256"
        },
        {
          "internalType": "uint256",
          "name": "auctionEndTime",
          "type": "uint256"
        },
        {
          "internalType": "bool",
          "name": "auctionEnded",
          "type": "bool"
        },
        {
          "internalType": "uint256",
          "name": "minBidIncrement",
          "type": "uint256"
        },
        {
          "internalType": "address",
          "name": "creator",
          "type": "address"
        },
        {
          "internalType": "bool",
          "name": "withdrawn",
          "type": "bool"
        }
      ],
      "stateMutability": "view",
      "type": "function"
    },
    {
      "inputs": [
        {
          "internalType": "uint256",
          "name": "auctionId",
          "type": "uint256"
        },
        {
          "internalType": "uint256",
          "name": "_duration",
          "type": "uint256"
        },
        {
          "internalType": "uint256",
          "name": "_minBidIncrement",
          "type": "uint256"
        },
        {
          "internalType": "uint256",
          "name": "_startingPrice",
          "type": "uint256"
        }
      ],
      "name": "createAuction",
      "outputs": [],
      "stateMutability": "nonpayable",
      "type": "function"
    },
    {
      "inputs": [
        {
          "internalType": "uint256",
          "name": "auctionId",
          "type": "uint256"
        }
      ],
      "name": "placeBid",
      "outputs": [],
      "stateMutability": "payable",
      "type": "function"
    },
    {
      "inputs": [
        {
          "internalType": "uint256",
          "name": "auctionId",
          "type": "uint256"
        }
      ],
      "name": "endAuction",
      "outputs": [],
      "stateMutability": "nonpayable",
      "type": "function"
    },
    {
      "inputs": [
        {
          "internalType": "uint256",
          "name": "auctionId",
          "type": "uint256"
        }
      ],
      "name": "withdraw",
      "outputs": [],
      "stateMutability": "nonpayable",
      "type": "function"
    },
    {
      "inputs": [],
      "name": "getAuctionIds",
      "outputs": [
        {
          "internalType": "uint256[]",
          "name": "",
          "type": "uint256[]"
        }
      ],
      "stateMutability": "view",
      "type": "function"
    },
    {
      "inputs": [
        {
          "internalType": "uint256",
          "name": "auctionId",
          "type": "uint256"
        }
      ],
      "name": "getAuctionDetails",
      "outputs": [
        {
          "internalType": "uint256",
          "name": "id",
          "type": "uint256"
        },
        {
          "internalType": "address",
          "name": "highestBidder",
          "type": "address"
        },
        {
          "internalType": "uint256",
          "name": "highestBid",
          "type": "uint256"
        },
        {
          "internalType": "uint256",
          "name": "auctionEndTime",
          "type": "uint256"
        },
        {
          "internalType": "bool",
          "name": "auctionEnded",
          "type": "bool"
        },
        {
          "internalType": "uint256",
          "name": "minBidIncrement",
          "type": "uint256"
        },
        {
          "internalType": "address",
          "name": "creator",
          "type": "address"
        },
        {
          "internalType": "bool",
          "name": "withdrawn",
          "type": "bool"
        }
      ],
      "stateMutability": "view",
      "type": "function"
    }
  ],
  "bytecode": "0x60806040526002805460ff1916905534801561001a57600080fd5b50610f128061002a6000396000f3fe60806040526004361061007b5760003560e01c8063571a26a01161004e578063571a26a01461011b5780639979ef45146101d9578063b9a2de3a146101ec578063f20e5e351461020c57600080fd5b80631094db1b146100805780632a6433be146100ab5780632e1a7d4d146100d9578063431f21da146100fb575b600080fd5b34801561008c57600080fd5b5061009561022c565b6040516100a29190610d9f565b60405180910390f35b3480156100b757600080fd5b506100cb6100c6366004610de3565b610284565b6040519081526020016100a2565b3480156100e557600080fd5b506100f96100f4366004610de3565b6102a5565b005b34801561010757600080fd5b506100f9610116366004610dfc565b6104ad565b34801561012757600080fd5b5061018f610136366004610de3565b600060208190529081526040902080546001820154600283015460038401546004850154600586015460069096015494956001600160a01b03948516959394929360ff92831693919291811691600160a01b9091041688565b604080519889526001600160a01b0397881660208a01528801959095526060870193909352901515608086015260a085015290911660c0830152151560e0820152610100016100a2565b6100f96101e7366004610de3565b6106dc565b3480156101f857600080fd5b506100f9610207366004610de3565b610a67565b34801561021857600080fd5b5061018f610227366004610de3565b610bed565b6060600180548060200260200160405190810160405280929190818152602001828054801561027a57602002820191906000526020600020905b815481526020019060010190808311610266575b5050505050905090565b6001818154811061029457600080fd5b600091825260209091200154905081565b60008181526020819052604090206006015481906001600160a01b031633146102e95760405162461bcd60e51b81526004016102e090610e2e565b60405180910390fd5b60025460ff161561030c5760405162461bcd60e51b81526004016102e090610e7e565b6002805460ff191660011790556000828152602081905260409020600481015460ff166103775760405162461bcd60e51b8152602060048201526019602482015278105d58dd1a5bdb881a185cc81b9bdd081e595d08195b991959603a1b60448201526064016102e0565b6006810154600160a01b900460ff16156103d35760405162461bcd60e51b815260206004820152601760248201527f46756e647320616c72656164792077697468647261776e00000000000000000060448201526064016102e0565b600081600201541161041e5760405162461bcd60e51b81526020600482015260146024820152734e6f2066756e647320746f20776974686472617760601b60448201526064016102e0565b600281018054600090915560068201805460ff60a01b198116600160a01b17909155610453906001600160a01b031682610cfc565b600682015460408051868152602081018490526001600160a01b03909216917ff3b5906e5672f3e524854103bcafbbdba80dbdfeca2c35e116127b1060a68318910160405180910390a250506002805460ff191690555050565b600084815260208190526040902060030154156105055760405162461bcd60e51b815260206004820152601660248201527541756374696f6e20616c72656164792065786973747360501b60448201526064016102e0565b600083116105605760405162461bcd60e51b815260206004820152602260248201527f4475726174696f6e206d7573742062652067726561746572207468616e207a65604482015261726f60f01b60648201526084016102e0565b6000808311610570576000610572565b825b6040805161010081018252878152600060208201529081018490529091506060810161059e8642610eb5565b815260006020808301829052604080840186905233606080860182905260809586018590528b85528484528285208751815587850151600180830180546001600160a01b0319166001600160a01b039384161790558986015160028401558984015160038401558989015160048401805460ff191691151591909117905560a0808b0151600585015560c08b01516006909401805460e0909c0151949093166001600160a81b0319909b169a909a17600160a01b931515939093029290921790558054808201825595527fb10e2d527612073b26eecdfd717e6a320cf44b4afac2b0732d9fcbe2b7fa0cf69094018b905581518b81529283018a9052908201869052918101869052918201527ffe21114808b55d6a54bec91c46a20e8dfe7f033edf3f058a5012a829d8d0e3ca910160405180910390a15050505050565b60008181526020819052604090206003015481906107355760405162461bcd60e51b8152602060048201526016602482015275105d58dd1a5bdb88191bd95cc81b9bdd08195e1a5cdd60521b60448201526064016102e0565b600081815260208190526040902060030154421061078b5760405162461bcd60e51b8152602060048201526013602482015272105d58dd1a5bdb881a185cc8195e1c1a5c9959606a1b60448201526064016102e0565b60008181526020819052604090206004015460ff16156107ed5760405162461bcd60e51b815260206004820152601960248201527f41756374696f6e2068617320616c726561647920656e6465640000000000000060448201526064016102e0565b60025460ff16156108105760405162461bcd60e51b81526004016102e090610e7e565b6002805460ff19166001179055600082815260208190526040902060068101546001600160a01b031633036108955760405162461bcd60e51b815260206004820152602560248201527f4f776e65722063616e6e6f7420626964206f6e207468656972206f776e20617560448201526431ba34b7b760d91b60648201526084016102e0565b806005015481600201546108a99190610eb5565b34101561091e5760405162461bcd60e51b815260206004820152603e60248201527f426964206d75737420626520686967686572207468616e2063757272656e742060448201527f62696420706c757320746865206d696e696d756d20696e6372656d656e74000060648201526084016102e0565b60018101546001600160a01b031633036109855760405162461bcd60e51b815260206004820152602260248201527f596f752061726520616c7265616479207468652068696768657374206269646460448201526132b960f11b60648201526084016102e0565b6002810154156109ff57600281015460018201546109ae916001600160a01b0390911690610cfc565b600181015460028201546040805186815260208101929092526001600160a01b03909216917f7a482fdeb6bc9a1376f597068a214a7a39472bb2eff1b8cad21ba04f49ddca1b910160405180910390a25b6001810180546001600160a01b0319163390811790915534600283018190556040805186815260208101929092527f7136042fc8b502cb7b2f9c23ef190a14de582a02a0ffd89b1c399bb8dd8e6ad3910160405180910390a250506002805460ff1916905550565b60008181526020819052604090206006015481906001600160a01b03163314610aa25760405162461bcd60e51b81526004016102e090610e2e565b60025460ff1615610ac55760405162461bcd60e51b81526004016102e090610e7e565b6002805460ff1916600117905560008281526020819052604090206003810154421015610b305760405162461bcd60e51b8152602060048201526019602482015278105d58dd1a5bdb881a185cc81b9bdd081e595d08195b991959603a1b60448201526064016102e0565b600481015460ff1615610b7d5760405162461bcd60e51b8152602060048201526015602482015274105d58dd1a5bdb88185b1c9958591e48195b991959605a1b60448201526064016102e0565b60048101805460ff191660019081179091558101546002820154604080518681526001600160a01b0390931660208401528201527fd2aa34a4fdbbc6dff6a3e56f46e0f3ae2a31d7785ff3487aa5c95c642acea5019060600160405180910390a150506002805460ff1916905550565b6000806000806000806000808860008060008381526020019081526020016000206003015411610c585760405162461bcd60e51b8152602060048201526016602482015275105d58dd1a5bdb88191bd95cc81b9bdd08195e1a5cdd60521b60448201526064016102e0565b50505060009687525050506020848152604094859020855161010081018752815480825260018301546001600160a01b039081169483018590526002840154988301899052600384015460608401819052600485015460ff908116151560808601819052600587015460a0870181905260069097015493841660c08701819052600160a01b909404909116151560e0909501859052929a9599985096509094509192565b80471015610d265760405163cf47918160e01b8152476004820152602481018290526044016102e0565b6000826001600160a01b03168260405160006040518083038185875af1925050503d8060008114610d73576040519150601f19603f3d011682016040523d82523d6000602084013e610d78565b606091505b5050905080610d9a5760405163d6bda27560e01b815260040160405180910390fd5b505050565b6020808252825182820181905260009190848201906040850190845b81811015610dd757835183529284019291840191600101610dbb565b50909695505050505050565b600060208284031215610df557600080fd5b5035919050565b60008060008060808587031215610e1257600080fd5b5050823594602084013594506040840135936060013592509050565b60208082526030908201527f4f6e6c79207468652061756374696f6e2063726561746f722063616e2070657260408201526f3337b936903a3434b99030b1ba34b7b760811b606082015260800190565b60208082526017908201527f5265656e7472616e742063616c6c206465746563746564000000000000000000604082015260600190565b80820180821115610ed657634e487b7160e01b600052601160045260246000fd5b9291505056fea2646970667358221220a3cf73b46acf53ed095f47de03ca80913da1648cce8c79dff4726d4160a959ef64736f6c63430008150033",
  "immutableReferences": {},
  "source": "// SPDX-License-Identifier: MIT\npragma solidity ^0.8.20;\n\nimport \"@openzeppelin/contracts/access/Ownable.sol\";\nimport \"@openzeppelin/contracts/utils/Address.sol\";\n\ncontract EnglishAuction {\n    using Address for address payable;\n\n    struct Auction {\n        uint256 auctionId;\n        address highestBidder;\n        uint256 highestBid;\n        uint256 auctionEndTime;\n        bool auctionEnded;\n        uint256 minBidIncrement;\n        address creator;\n        bool withdrawn; // Track if funds have been withdrawn\n    }\n\n    mapping(uint256 => Auction) public auctions; // Store auctions by ID\n    uint256[] public auctionIds; // Array to store auction IDs\n    bool private locked = false; // Reentrancy guard\n\n    event AuctionCreated(uint256 auctionId, uint256 duration, uint256 minBidIncrement, uint256 startingPrice, address creator);\n    event NewBidPlaced(uint256 auctionId, address indexed bidder, uint256 amount);\n    event RefundIssued(uint256 auctionId, address indexed bidder, uint256 amount);\n    event AuctionEnded(uint256 auctionId, address winner, uint256 amount);\n    event FundsWithdrawn(uint256 auctionId, uint256 amount, address indexed creator);\n\n    modifier nonReentrant() {\n        require(!locked, \"Reentrant call detected\");\n        locked = true;\n        _;\n        locked = false;\n    }\n\n    modifier auctionActive(uint256 auctionId) {\n        require(auctions[auctionId].auctionEndTime > 0, \"Auction does not exist\");\n        require(block.timestamp < auctions[auctionId].auctionEndTime, \"Auction has expired\");\n        require(!auctions[auctionId].auctionEnded, \"Auction has already ended\");\n        _; \n    }\n\n    modifier auctionExists(uint256 auctionId) {\n        require(auctions[auctionId].auctionEndTime > 0, \"Auction does not exist\");\n        _; \n    }\n\n    modifier onlyAuctionCreator(uint256 auctionId) {\n        require(msg.sender == auctions[auctionId].creator, \"Only the auction creator can perform this action\");\n        _; \n    }\n\n    // Modify the auction creation to accept a starting price\n    function createAuction(\n        uint256 auctionId,\n        uint256 _duration,\n        uint256 _minBidIncrement, // Starting price can be omitted and defaults to 0\n        uint256 _startingPrice // Add starting price parameter\n    ) external {\n        require(auctions[auctionId].auctionEndTime == 0, \"Auction already exists\");\n        require(_duration > 0, \"Duration must be greater than zero\");\n\n        // Default values for starting price and minBidIncrement to 0 if not provided\n        uint256 minBidIncrement = _minBidIncrement > 0 ? _minBidIncrement : 0;\n\n        auctions[auctionId] = Auction({\n            auctionId: auctionId,\n            highestBidder: address(0),\n            highestBid: _startingPrice, // Set starting price here\n            auctionEndTime: block.timestamp + _duration,\n            auctionEnded: false,\n            minBidIncrement: minBidIncrement,\n            creator: msg.sender,\n            withdrawn: false // Initialize withdrawn status as false\n        });\n\n        auctionIds.push(auctionId);\n        emit AuctionCreated(auctionId, _duration, minBidIncrement, _startingPrice, msg.sender);\n    }\n\n    // Place a bid, ensuring it's valid according to the minBidIncrement\n    function placeBid(uint256 auctionId) external payable auctionActive(auctionId) nonReentrant {\n        Auction storage auction = auctions[auctionId];\n\n        require(msg.sender != auction.creator, \"Owner cannot bid on their own auction\");\n        require(msg.value >= auction.highestBid + auction.minBidIncrement, \"Bid must be higher than current bid plus the minimum increment\");\n        require(msg.sender != auction.highestBidder, \"You are already the highest bidder\");\n\n        if (auction.highestBid > 0) {\n            // Refund the previous highest bidder\n            payable(auction.highestBidder).sendValue(auction.highestBid);\n            emit RefundIssued(auctionId, auction.highestBidder, auction.highestBid);\n        }\n\n        auction.highestBidder = msg.sender;\n        auction.highestBid = msg.value;\n\n        emit NewBidPlaced(auctionId, msg.sender, msg.value);\n    }\n\n    // End the auction and emit the result\n    function endAuction(uint256 auctionId) external onlyAuctionCreator(auctionId) nonReentrant {\n        Auction storage auction = auctions[auctionId];\n        require(block.timestamp >= auction.auctionEndTime, \"Auction has not yet ended\");\n        require(!auction.auctionEnded, \"Auction already ended\");\n\n        auction.auctionEnded = true;\n        emit AuctionEnded(auctionId, auction.highestBidder, auction.highestBid);\n    }\n\n    // Withdraw the funds after auction ends\n    function withdraw(uint256 auctionId) external onlyAuctionCreator(auctionId) nonReentrant {\n        Auction storage auction = auctions[auctionId];\n\n        require(auction.auctionEnded, \"Auction has not yet ended\");\n        require(!auction.withdrawn, \"Funds already withdrawn\"); // Check withdrawal status\n        require(auction.highestBid > 0, \"No funds to withdraw\");\n\n        uint256 amount = auction.highestBid;\n        auction.highestBid = 0;\n        auction.withdrawn = true; // Mark as withdrawn\n\n        payable(auction.creator).sendValue(amount);\n        emit FundsWithdrawn(auctionId, amount, auction.creator);\n    }\n\n    // Get the list of all auction IDs\n    function getAuctionIds() external view returns (uint256[] memory) {\n        return auctionIds;\n    }\n\n    // Get the details of a specific auction\n    function getAuctionDetails(uint256 auctionId)\n        external\n        view\n        auctionExists(auctionId)\n        returns (\n            uint256 id,\n            address highestBidder,\n            uint256 highestBid,\n            uint256 auctionEndTime,\n            bool auctionEnded,\n            uint256 minBidIncrement,\n            address creator,\n            bool withdrawn // Include withdrawn status in details\n        )\n    {\n        Auction memory auction = auctions[auctionId];\n        return (\n            auction.auctionId,\n            auction.highestBidder,\n            auction.highestBid,\n            auction.auctionEndTime,\n            auction.auctionEnded,\n            auction.minBidIncrement,\n            auction.creator,\n            auction.withdrawn\n        );\n    }\n}\n",
  "sourcePath": "C:\\Users\\three\\OneDrive\\Documents\\GitHub\\Blockchain_Auction\\contracts\\EnglishAuction.sol",
  "compiler": {
    "name": "solc",
    "version": "0.8.21+commit.d9974bed.Emscripten.clang"
  },
  "schemaVersion": "3.4.16",
  "updatedAt": "2024-12-13T09:39:43.165Z",
  "devdoc": {
    "errors": {
      "FailedCall()": [
        {
          "details": "A call to an address target failed. The target may have reverted."
        }
      ],
      "InsufficientBalance(uint256,uint256)": [
        {
          "details": "The ETH balance of the account is not enough to perform the operation."
        }
      ]
    },
    "kind": "dev",
    "methods": {},
    "version": 1
  },
  "userdoc": {
    "kind": "user",
    "methods": {},
    "version": 1
  }
}