{
  "contractName": "ERC721Mock",
  "abi": [
    {
      "inputs": [
        {
          "internalType": "string",
          "name": "name",
          "type": "string"
        },
        {
          "internalType": "string",
          "name": "symbol",
          "type": "string"
        }
      ],
      "stateMutability": "nonpayable",
      "type": "constructor"
    },
    {
      "inputs": [
        {
          "internalType": "address",
          "name": "sender",
          "type": "address"
        },
        {
          "internalType": "uint256",
          "name": "tokenId",
          "type": "uint256"
        },
        {
          "internalType": "address",
          "name": "owner",
          "type": "address"
        }
      ],
      "name": "ERC721IncorrectOwner",
      "type": "error"
    },
    {
      "inputs": [
        {
          "internalType": "address",
          "name": "operator",
          "type": "address"
        },
        {
          "internalType": "uint256",
          "name": "tokenId",
          "type": "uint256"
        }
      ],
      "name": "ERC721InsufficientApproval",
      "type": "error"
    },
    {
      "inputs": [
        {
          "internalType": "address",
          "name": "approver",
          "type": "address"
        }
      ],
      "name": "ERC721InvalidApprover",
      "type": "error"
    },
    {
      "inputs": [
        {
          "internalType": "address",
          "name": "operator",
          "type": "address"
        }
      ],
      "name": "ERC721InvalidOperator",
      "type": "error"
    },
    {
      "inputs": [
        {
          "internalType": "address",
          "name": "owner",
          "type": "address"
        }
      ],
      "name": "ERC721InvalidOwner",
      "type": "error"
    },
    {
      "inputs": [
        {
          "internalType": "address",
          "name": "receiver",
          "type": "address"
        }
      ],
      "name": "ERC721InvalidReceiver",
      "type": "error"
    },
    {
      "inputs": [
        {
          "internalType": "address",
          "name": "sender",
          "type": "address"
        }
      ],
      "name": "ERC721InvalidSender",
      "type": "error"
    },
    {
      "inputs": [
        {
          "internalType": "uint256",
          "name": "tokenId",
          "type": "uint256"
        }
      ],
      "name": "ERC721NonexistentToken",
      "type": "error"
    },
    {
      "inputs": [
        {
          "internalType": "address",
          "name": "owner",
          "type": "address"
        }
      ],
      "name": "OwnableInvalidOwner",
      "type": "error"
    },
    {
      "inputs": [
        {
          "internalType": "address",
          "name": "account",
          "type": "address"
        }
      ],
      "name": "OwnableUnauthorizedAccount",
      "type": "error"
    },
    {
      "anonymous": false,
      "inputs": [
        {
          "indexed": true,
          "internalType": "address",
          "name": "owner",
          "type": "address"
        },
        {
          "indexed": true,
          "internalType": "address",
          "name": "approved",
          "type": "address"
        },
        {
          "indexed": true,
          "internalType": "uint256",
          "name": "tokenId",
          "type": "uint256"
        }
      ],
      "name": "Approval",
      "type": "event"
    },
    {
      "anonymous": false,
      "inputs": [
        {
          "indexed": true,
          "internalType": "address",
          "name": "owner",
          "type": "address"
        },
        {
          "indexed": true,
          "internalType": "address",
          "name": "operator",
          "type": "address"
        },
        {
          "indexed": false,
          "internalType": "bool",
          "name": "approved",
          "type": "bool"
        }
      ],
      "name": "ApprovalForAll",
      "type": "event"
    },
    {
      "anonymous": false,
      "inputs": [
        {
          "indexed": true,
          "internalType": "address",
          "name": "previousOwner",
          "type": "address"
        },
        {
          "indexed": true,
          "internalType": "address",
          "name": "newOwner",
          "type": "address"
        }
      ],
      "name": "OwnershipTransferred",
      "type": "event"
    },
    {
      "anonymous": false,
      "inputs": [
        {
          "indexed": true,
          "internalType": "address",
          "name": "to",
          "type": "address"
        },
        {
          "indexed": false,
          "internalType": "uint256",
          "name": "tokenId",
          "type": "uint256"
        }
      ],
      "name": "TokenMinted",
      "type": "event"
    },
    {
      "anonymous": false,
      "inputs": [
        {
          "indexed": true,
          "internalType": "address",
          "name": "from",
          "type": "address"
        },
        {
          "indexed": true,
          "internalType": "address",
          "name": "to",
          "type": "address"
        },
        {
          "indexed": true,
          "internalType": "uint256",
          "name": "tokenId",
          "type": "uint256"
        }
      ],
      "name": "Transfer",
      "type": "event"
    },
    {
      "inputs": [
        {
          "internalType": "address",
          "name": "to",
          "type": "address"
        },
        {
          "internalType": "uint256",
          "name": "tokenId",
          "type": "uint256"
        }
      ],
      "name": "approve",
      "outputs": [],
      "stateMutability": "nonpayable",
      "type": "function"
    },
    {
      "inputs": [
        {
          "internalType": "address",
          "name": "owner",
          "type": "address"
        }
      ],
      "name": "balanceOf",
      "outputs": [
        {
          "internalType": "uint256",
          "name": "",
          "type": "uint256"
        }
      ],
      "stateMutability": "view",
      "type": "function"
    },
    {
      "inputs": [
        {
          "internalType": "uint256",
          "name": "tokenId",
          "type": "uint256"
        }
      ],
      "name": "getApproved",
      "outputs": [
        {
          "internalType": "address",
          "name": "",
          "type": "address"
        }
      ],
      "stateMutability": "view",
      "type": "function"
    },
    {
      "inputs": [
        {
          "internalType": "address",
          "name": "owner",
          "type": "address"
        },
        {
          "internalType": "address",
          "name": "operator",
          "type": "address"
        }
      ],
      "name": "isApprovedForAll",
      "outputs": [
        {
          "internalType": "bool",
          "name": "",
          "type": "bool"
        }
      ],
      "stateMutability": "view",
      "type": "function"
    },
    {
      "inputs": [],
      "name": "name",
      "outputs": [
        {
          "internalType": "string",
          "name": "",
          "type": "string"
        }
      ],
      "stateMutability": "view",
      "type": "function"
    },
    {
      "inputs": [],
      "name": "owner",
      "outputs": [
        {
          "internalType": "address",
          "name": "",
          "type": "address"
        }
      ],
      "stateMutability": "view",
      "type": "function"
    },
    {
      "inputs": [
        {
          "internalType": "uint256",
          "name": "tokenId",
          "type": "uint256"
        }
      ],
      "name": "ownerOf",
      "outputs": [
        {
          "internalType": "address",
          "name": "",
          "type": "address"
        }
      ],
      "stateMutability": "view",
      "type": "function"
    },
    {
      "inputs": [],
      "name": "renounceOwnership",
      "outputs": [],
      "stateMutability": "nonpayable",
      "type": "function"
    },
    {
      "inputs": [
        {
          "internalType": "address",
          "name": "from",
          "type": "address"
        },
        {
          "internalType": "address",
          "name": "to",
          "type": "address"
        },
        {
          "internalType": "uint256",
          "name": "tokenId",
          "type": "uint256"
        }
      ],
      "name": "safeTransferFrom",
      "outputs": [],
      "stateMutability": "nonpayable",
      "type": "function"
    },
    {
      "inputs": [
        {
          "internalType": "address",
          "name": "from",
          "type": "address"
        },
        {
          "internalType": "address",
          "name": "to",
          "type": "address"
        },
        {
          "internalType": "uint256",
          "name": "tokenId",
          "type": "uint256"
        },
        {
          "internalType": "bytes",
          "name": "data",
          "type": "bytes"
        }
      ],
      "name": "safeTransferFrom",
      "outputs": [],
      "stateMutability": "nonpayable",
      "type": "function"
    },
    {
      "inputs": [
        {
          "internalType": "address",
          "name": "operator",
          "type": "address"
        },
        {
          "internalType": "bool",
          "name": "approved",
          "type": "bool"
        }
      ],
      "name": "setApprovalForAll",
      "outputs": [],
      "stateMutability": "nonpayable",
      "type": "function"
    },
    {
      "inputs": [
        {
          "internalType": "bytes4",
          "name": "interfaceId",
          "type": "bytes4"
        }
      ],
      "name": "supportsInterface",
      "outputs": [
        {
          "internalType": "bool",
          "name": "",
          "type": "bool"
        }
      ],
      "stateMutability": "view",
      "type": "function"
    },
    {
      "inputs": [],
      "name": "symbol",
      "outputs": [
        {
          "internalType": "string",
          "name": "",
          "type": "string"
        }
      ],
      "stateMutability": "view",
      "type": "function"
    },
    {
      "inputs": [
        {
          "internalType": "uint256",
          "name": "tokenId",
          "type": "uint256"
        }
      ],
      "name": "tokenURI",
      "outputs": [
        {
          "internalType": "string",
          "name": "",
          "type": "string"
        }
      ],
      "stateMutability": "view",
      "type": "function"
    },
    {
      "inputs": [
        {
          "internalType": "address",
          "name": "from",
          "type": "address"
        },
        {
          "internalType": "address",
          "name": "to",
          "type": "address"
        },
        {
          "internalType": "uint256",
          "name": "tokenId",
          "type": "uint256"
        }
      ],
      "name": "transferFrom",
      "outputs": [],
      "stateMutability": "nonpayable",
      "type": "function"
    },
    {
      "inputs": [
        {
          "internalType": "address",
          "name": "newOwner",
          "type": "address"
        }
      ],
      "name": "transferOwnership",
      "outputs": [],
      "stateMutability": "nonpayable",
      "type": "function"
    },
    {
      "inputs": [
        {
          "internalType": "address",
          "name": "to",
          "type": "address"
        },
        {
          "internalType": "uint256",
          "name": "tokenId",
          "type": "uint256"
        }
      ],
      "name": "mint",
      "outputs": [],
      "stateMutability": "nonpayable",
      "type": "function"
    },
    {
      "inputs": [
        {
          "internalType": "address",
          "name": "to",
          "type": "address"
        }
      ],
      "name": "mintNext",
      "outputs": [
        {
          "internalType": "uint256",
          "name": "",
          "type": "uint256"
        }
      ],
      "stateMutability": "nonpayable",
      "type": "function"
    }
  ],
  "bytecode": "0x60806040523480156200001157600080fd5b5060405162001523380380620015238339810160408190526200003491620001b1565b3382826000620000458382620002aa565b506001620000548282620002aa565b5050506001600160a01b0381166200008657604051631e4fbdf760e01b81526000600482015260240160405180910390fd5b62000091816200009a565b50505062000376565b600680546001600160a01b038381166001600160a01b0319831681179093556040519116919082907f8be0079c531659141344cd1fd0a4f28419497f9722a3daafe3b4186f6b6457e090600090a35050565b634e487b7160e01b600052604160045260246000fd5b600082601f8301126200011457600080fd5b81516001600160401b0380821115620001315762000131620000ec565b604051601f8301601f19908116603f011681019082821181831017156200015c576200015c620000ec565b816040528381526020925086838588010111156200017957600080fd5b600091505b838210156200019d57858201830151818301840152908201906200017e565b600093810190920192909252949350505050565b60008060408385031215620001c557600080fd5b82516001600160401b0380821115620001dd57600080fd5b620001eb8683870162000102565b935060208501519150808211156200020257600080fd5b50620002118582860162000102565b9150509250929050565b600181811c908216806200023057607f821691505b6020821081036200025157634e487b7160e01b600052602260045260246000fd5b50919050565b601f821115620002a557600081815260208120601f850160051c81016020861015620002805750805b601f850160051c820191505b81811015620002a1578281556001016200028c565b5050505b505050565b81516001600160401b03811115620002c657620002c6620000ec565b620002de81620002d784546200021b565b8462000257565b602080601f831160018114620003165760008415620002fd5750858301515b600019600386901b1c1916600185901b178555620002a1565b600085815260208120601f198616915b82811015620003475788860151825594840194600190910190840162000326565b5085821015620003665787850151600019600388901b60f8161c191681555b5050505050600190811b01905550565b61119d80620003866000396000f3fe608060405234801561001057600080fd5b50600436106101165760003560e01c806370a08231116100a2578063a22cb46511610071578063a22cb46514610239578063b88d4fde1461024c578063c87b56dd1461025f578063e985e9c514610272578063f2fde38b1461028557600080fd5b806370a0823114610205578063715018a6146102185780638da5cb5b1461022057806395d89b411461023157600080fd5b8063095ea7b3116100e9578063095ea7b3146101a457806323b872dd146101b957806340c10f19146101cc57806342842e0e146101df5780636352211e146101f257600080fd5b8063016ea35a1461011b57806301ffc9a71461014157806306fdde0314610164578063081812fc14610179575b600080fd5b61012e610129366004610dec565b610298565b6040519081526020015b60405180910390f35b61015461014f366004610e1d565b61030e565b6040519015158152602001610138565b61016c610360565b6040516101389190610e8a565b61018c610187366004610e9d565b6103f2565b6040516001600160a01b039091168152602001610138565b6101b76101b2366004610eb6565b61041b565b005b6101b76101c7366004610ee0565b61042a565b6101b76101da366004610eb6565b6104ba565b6101b76101ed366004610ee0565b610513565b61018c610200366004610e9d565b610533565b61012e610213366004610dec565b61053e565b6101b7610586565b6006546001600160a01b031661018c565b61016c61059a565b6101b7610247366004610f1c565b6105a9565b6101b761025a366004610f6e565b6105b4565b61016c61026d366004610e9d565b6105cc565b61015461028036600461104a565b610641565b6101b7610293366004610dec565b61066f565b60006102a26106ad565b6007805490819060006102b48361107d565b91905055506102c383826106da565b826001600160a01b03167fb9144c96c86541f6fa89c9f2f02495cccf4b08cd6643e26d34ee00aa586558a8826040516102fe91815260200190565b60405180910390a290505b919050565b60006001600160e01b031982166380ac58cd60e01b148061033f57506001600160e01b03198216635b5e139f60e01b145b8061035a57506301ffc9a760e01b6001600160e01b03198316145b92915050565b60606000805461036f906110a4565b80601f016020809104026020016040519081016040528092919081815260200182805461039b906110a4565b80156103e85780601f106103bd576101008083540402835291602001916103e8565b820191906000526020600020905b8154815290600101906020018083116103cb57829003601f168201915b5050505050905090565b60006103fd8261073f565b506000828152600460205260409020546001600160a01b031661035a565b610426828233610778565b5050565b6001600160a01b03821661045957604051633250574960e11b8152600060048201526024015b60405180910390fd5b6000610466838333610785565b9050836001600160a01b0316816001600160a01b0316146104b4576040516364283d7b60e01b81526001600160a01b0380861660048301526024820184905282166044820152606401610450565b50505050565b6104c26106ad565b6104cc82826106da565b816001600160a01b03167fb9144c96c86541f6fa89c9f2f02495cccf4b08cd6643e26d34ee00aa586558a88260405161050791815260200190565b60405180910390a25050565b61052e838383604051806020016040528060008152506105b4565b505050565b600061035a8261073f565b60006001600160a01b03821661056a576040516322718ad960e21b815260006004820152602401610450565b506001600160a01b031660009081526003602052604090205490565b61058e6106ad565b610598600061087e565b565b60606001805461036f906110a4565b6104263383836108d0565b6105bf84848461042a565b6104b4338585858561096f565b60606105d78261073f565b5060006105ef60408051602081019091526000815290565b9050600081511161060f576040518060200160405280600081525061063a565b8061061984610a9a565b60405160200161062a9291906110de565b6040516020818303038152906040525b9392505050565b6001600160a01b03918216600090815260056020908152604080832093909416825291909152205460ff1690565b6106776106ad565b6001600160a01b0381166106a157604051631e4fbdf760e01b815260006004820152602401610450565b6106aa8161087e565b50565b6006546001600160a01b031633146105985760405163118cdaa760e01b8152336004820152602401610450565b6001600160a01b03821661070457604051633250574960e11b815260006004820152602401610450565b600061071283836000610785565b90506001600160a01b0381161561052e576040516339e3563760e11b815260006004820152602401610450565b6000818152600260205260408120546001600160a01b03168061035a57604051637e27328960e01b815260048101849052602401610450565b61052e8383836001610b2d565b6000828152600260205260408120546001600160a01b03908116908316156107b2576107b2818486610c33565b6001600160a01b038116156107f0576107cf600085600080610b2d565b6001600160a01b038116600090815260036020526040902080546000190190555b6001600160a01b0385161561081f576001600160a01b0385166000908152600360205260409020805460010190555b60008481526002602052604080822080546001600160a01b0319166001600160a01b0389811691821790925591518793918516917fddf252ad1be2c89b69c2b068fc378daa952ba7f163c4a11628f55a4df523b3ef91a4949350505050565b600680546001600160a01b038381166001600160a01b0319831681179093556040519116919082907f8be0079c531659141344cd1fd0a4f28419497f9722a3daafe3b4186f6b6457e090600090a35050565b6001600160a01b03821661090257604051630b61174360e31b81526001600160a01b0383166004820152602401610450565b6001600160a01b03838116600081815260056020908152604080832094871680845294825291829020805460ff191686151590811790915591519182527f17307eab39ab6107e8899845ad3d59bd9653f200f220920489ca2b5937696c31910160405180910390a3505050565b6001600160a01b0383163b15610a9357604051630a85bd0160e11b81526001600160a01b0384169063150b7a02906109b190889088908790879060040161110d565b6020604051808303816000875af19250505080156109ec575060408051601f3d908101601f191682019092526109e99181019061114a565b60015b610a55573d808015610a1a576040519150601f19603f3d011682016040523d82523d6000602084013e610a1f565b606091505b508051600003610a4d57604051633250574960e11b81526001600160a01b0385166004820152602401610450565b805181602001fd5b6001600160e01b03198116630a85bd0160e11b14610a9157604051633250574960e11b81526001600160a01b0385166004820152602401610450565b505b5050505050565b60606000610aa783610c97565b600101905060008167ffffffffffffffff811115610ac757610ac7610f58565b6040519080825280601f01601f191660200182016040528015610af1576020820181803683370190505b5090508181016020015b600019016f181899199a1a9b1b9c1cb0b131b232b360811b600a86061a8153600a8504945084610afb57509392505050565b8080610b4157506001600160a01b03821615155b15610c03576000610b518461073f565b90506001600160a01b03831615801590610b7d5750826001600160a01b0316816001600160a01b031614155b8015610b905750610b8e8184610641565b155b15610bb95760405163a9fbf51f60e01b81526001600160a01b0384166004820152602401610450565b8115610c015783856001600160a01b0316826001600160a01b03167f8c5be1e5ebec7d5bd14f71427d1e84f3dd0314c0f7b2291e5b200ac8c7c3b92560405160405180910390a45b505b5050600090815260046020526040902080546001600160a01b0319166001600160a01b0392909216919091179055565b610c3e838383610d6f565b61052e576001600160a01b038316610c6c57604051637e27328960e01b815260048101829052602401610450565b60405163177e802f60e01b81526001600160a01b038316600482015260248101829052604401610450565b60008072184f03e93ff9f4daa797ed6e38ed64bf6a1f0160401b8310610cd65772184f03e93ff9f4daa797ed6e38ed64bf6a1f0160401b830492506040015b6d04ee2d6d415b85acef81000000008310610d02576d04ee2d6d415b85acef8100000000830492506020015b662386f26fc100008310610d2057662386f26fc10000830492506010015b6305f5e1008310610d38576305f5e100830492506008015b6127108310610d4c57612710830492506004015b60648310610d5e576064830492506002015b600a831061035a5760010192915050565b60006001600160a01b03831615801590610dcd5750826001600160a01b0316846001600160a01b03161480610da95750610da98484610641565b80610dcd57506000828152600460205260409020546001600160a01b038481169116145b949350505050565b80356001600160a01b038116811461030957600080fd5b600060208284031215610dfe57600080fd5b61063a82610dd5565b6001600160e01b0319811681146106aa57600080fd5b600060208284031215610e2f57600080fd5b813561063a81610e07565b60005b83811015610e55578181015183820152602001610e3d565b50506000910152565b60008151808452610e76816020860160208601610e3a565b601f01601f19169290920160200192915050565b60208152600061063a6020830184610e5e565b600060208284031215610eaf57600080fd5b5035919050565b60008060408385031215610ec957600080fd5b610ed283610dd5565b946020939093013593505050565b600080600060608486031215610ef557600080fd5b610efe84610dd5565b9250610f0c60208501610dd5565b9150604084013590509250925092565b60008060408385031215610f2f57600080fd5b610f3883610dd5565b915060208301358015158114610f4d57600080fd5b809150509250929050565b634e487b7160e01b600052604160045260246000fd5b60008060008060808587031215610f8457600080fd5b610f8d85610dd5565b9350610f9b60208601610dd5565b925060408501359150606085013567ffffffffffffffff80821115610fbf57600080fd5b818701915087601f830112610fd357600080fd5b813581811115610fe557610fe5610f58565b604051601f8201601f19908116603f0116810190838211818310171561100d5761100d610f58565b816040528281528a602084870101111561102657600080fd5b82602086016020830137600060208483010152809550505050505092959194509250565b6000806040838503121561105d57600080fd5b61106683610dd5565b915061107460208401610dd5565b90509250929050565b60006001820161109d57634e487b7160e01b600052601160045260246000fd5b5060010190565b600181811c908216806110b857607f821691505b6020821081036110d857634e487b7160e01b600052602260045260246000fd5b50919050565b600083516110f0818460208801610e3a565b835190830190611104818360208801610e3a565b01949350505050565b6001600160a01b038581168252841660208201526040810183905260806060820181905260009061114090830184610e5e565b9695505050505050565b60006020828403121561115c57600080fd5b815161063a81610e0756fea2646970667358221220b7ff6bca248e52d384dcc33be622b8a7b971b541d5ee981005c135d4b86cbb2664736f6c63430008150033",
  "immutableReferences": {},
  "source": "// SPDX-License-Identifier: MIT\r\npragma solidity ^0.8.20;\r\n\r\nimport \"@openzeppelin/contracts/token/ERC721/ERC721.sol\";\r\nimport \"@openzeppelin/contracts/access/Ownable.sol\";\r\n\r\ncontract ERC721Mock is ERC721, Ownable {\r\n    uint256 private _nextTokenId;\r\n\r\n    event TokenMinted(address indexed to, uint256 tokenId);\r\n\r\n    constructor(string memory name, string memory symbol) ERC721(name, symbol) Ownable(msg.sender) {}\r\n\r\n   function mint(address to, uint256 tokenId) public onlyOwner {\r\n    _mint(to, tokenId);\r\n    emit TokenMinted(to, tokenId); // Emit event\r\n}\r\n\r\nfunction mintNext(address to) public onlyOwner returns (uint256) {\r\n    uint256 tokenId = _nextTokenId;\r\n    _nextTokenId++;\r\n    _mint(to, tokenId);\r\n    emit TokenMinted(to, tokenId); // Emit event\r\n    return tokenId;\r\n}\r\n}",
  "sourcePath": "C:\\Users\\three\\OneDrive\\Documents\\GitHub\\Blockchain_Auction\\contracts\\ERC721Mock.sol",
  "compiler": {
    "name": "solc",
    "version": "0.8.21+commit.d9974bed.Emscripten.clang"
  },
  "schemaVersion": "3.4.16",
  "updatedAt": "2024-12-16T03:16:24.410Z",
  "devdoc": {
    "errors": {
      "ERC721IncorrectOwner(address,uint256,address)": [
        {
          "details": "Indicates an error related to the ownership over a particular token. Used in transfers.",
          "params": {
            "owner": "Address of the current owner of a token.",
            "sender": "Address whose tokens are being transferred.",
            "tokenId": "Identifier number of a token."
          }
        }
      ],
      "ERC721InsufficientApproval(address,uint256)": [
        {
          "details": "Indicates a failure with the `operator`s approval. Used in transfers.",
          "params": {
            "operator": "Address that may be allowed to operate on tokens without being their owner.",
            "tokenId": "Identifier number of a token."
          }
        }
      ],
      "ERC721InvalidApprover(address)": [
        {
          "details": "Indicates a failure with the `approver` of a token to be approved. Used in approvals.",
          "params": {
            "approver": "Address initiating an approval operation."
          }
        }
      ],
      "ERC721InvalidOperator(address)": [
        {
          "details": "Indicates a failure with the `operator` to be approved. Used in approvals.",
          "params": {
            "operator": "Address that may be allowed to operate on tokens without being their owner."
          }
        }
      ],
      "ERC721InvalidOwner(address)": [
        {
          "details": "Indicates that an address can't be an owner. For example, `address(0)` is a forbidden owner in ERC-20. Used in balance queries.",
          "params": {
            "owner": "Address of the current owner of a token."
          }
        }
      ],
      "ERC721InvalidReceiver(address)": [
        {
          "details": "Indicates a failure with the token `receiver`. Used in transfers.",
          "params": {
            "receiver": "Address to which tokens are being transferred."
          }
        }
      ],
      "ERC721InvalidSender(address)": [
        {
          "details": "Indicates a failure with the token `sender`. Used in transfers.",
          "params": {
            "sender": "Address whose tokens are being transferred."
          }
        }
      ],
      "ERC721NonexistentToken(uint256)": [
        {
          "details": "Indicates a `tokenId` whose `owner` is the zero address.",
          "params": {
            "tokenId": "Identifier number of a token."
          }
        }
      ],
      "OwnableInvalidOwner(address)": [
        {
          "details": "The owner is not a valid owner account. (eg. `address(0)`)"
        }
      ],
      "OwnableUnauthorizedAccount(address)": [
        {
          "details": "The caller account is not authorized to perform an operation."
        }
      ]
    },
    "events": {
      "Approval(address,address,uint256)": {
        "details": "Emitted when `owner` enables `approved` to manage the `tokenId` token."
      },
      "ApprovalForAll(address,address,bool)": {
        "details": "Emitted when `owner` enables or disables (`approved`) `operator` to manage all of its assets."
      },
      "Transfer(address,address,uint256)": {
        "details": "Emitted when `tokenId` token is transferred from `from` to `to`."
      }
    },
    "kind": "dev",
    "methods": {
      "approve(address,uint256)": {
        "details": "See {IERC721-approve}."
      },
      "balanceOf(address)": {
        "details": "See {IERC721-balanceOf}."
      },
      "getApproved(uint256)": {
        "details": "See {IERC721-getApproved}."
      },
      "isApprovedForAll(address,address)": {
        "details": "See {IERC721-isApprovedForAll}."
      },
      "name()": {
        "details": "See {IERC721Metadata-name}."
      },
      "owner()": {
        "details": "Returns the address of the current owner."
      },
      "ownerOf(uint256)": {
        "details": "See {IERC721-ownerOf}."
      },
      "renounceOwnership()": {
        "details": "Leaves the contract without owner. It will not be possible to call `onlyOwner` functions. Can only be called by the current owner. NOTE: Renouncing ownership will leave the contract without an owner, thereby disabling any functionality that is only available to the owner."
      },
      "safeTransferFrom(address,address,uint256)": {
        "details": "See {IERC721-safeTransferFrom}."
      },
      "safeTransferFrom(address,address,uint256,bytes)": {
        "details": "See {IERC721-safeTransferFrom}."
      },
      "setApprovalForAll(address,bool)": {
        "details": "See {IERC721-setApprovalForAll}."
      },
      "supportsInterface(bytes4)": {
        "details": "See {IERC165-supportsInterface}."
      },
      "symbol()": {
        "details": "See {IERC721Metadata-symbol}."
      },
      "tokenURI(uint256)": {
        "details": "See {IERC721Metadata-tokenURI}."
      },
      "transferFrom(address,address,uint256)": {
        "details": "See {IERC721-transferFrom}."
      },
      "transferOwnership(address)": {
        "details": "Transfers ownership of the contract to a new account (`newOwner`). Can only be called by the current owner."
      }
    },
    "version": 1
  },
  "userdoc": {
    "kind": "user",
    "methods": {},
    "version": 1
  }
}