{
  "contractName": "ERC721Mock",
  "abi": [
    {
      "inputs": [
        {
          "internalType": "string",
          "name": "name",
          "type": "string"
        },
        {
          "internalType": "string",
          "name": "symbol",
          "type": "string"
        }
      ],
      "stateMutability": "nonpayable",
      "type": "constructor"
    },
    {
      "inputs": [
        {
          "internalType": "address",
          "name": "sender",
          "type": "address"
        },
        {
          "internalType": "uint256",
          "name": "tokenId",
          "type": "uint256"
        },
        {
          "internalType": "address",
          "name": "owner",
          "type": "address"
        }
      ],
      "name": "ERC721IncorrectOwner",
      "type": "error"
    },
    {
      "inputs": [
        {
          "internalType": "address",
          "name": "operator",
          "type": "address"
        },
        {
          "internalType": "uint256",
          "name": "tokenId",
          "type": "uint256"
        }
      ],
      "name": "ERC721InsufficientApproval",
      "type": "error"
    },
    {
      "inputs": [
        {
          "internalType": "address",
          "name": "approver",
          "type": "address"
        }
      ],
      "name": "ERC721InvalidApprover",
      "type": "error"
    },
    {
      "inputs": [
        {
          "internalType": "address",
          "name": "operator",
          "type": "address"
        }
      ],
      "name": "ERC721InvalidOperator",
      "type": "error"
    },
    {
      "inputs": [
        {
          "internalType": "address",
          "name": "owner",
          "type": "address"
        }
      ],
      "name": "ERC721InvalidOwner",
      "type": "error"
    },
    {
      "inputs": [
        {
          "internalType": "address",
          "name": "receiver",
          "type": "address"
        }
      ],
      "name": "ERC721InvalidReceiver",
      "type": "error"
    },
    {
      "inputs": [
        {
          "internalType": "address",
          "name": "sender",
          "type": "address"
        }
      ],
      "name": "ERC721InvalidSender",
      "type": "error"
    },
    {
      "inputs": [
        {
          "internalType": "uint256",
          "name": "tokenId",
          "type": "uint256"
        }
      ],
      "name": "ERC721NonexistentToken",
      "type": "error"
    },
    {
      "inputs": [
        {
          "internalType": "address",
          "name": "owner",
          "type": "address"
        }
      ],
      "name": "OwnableInvalidOwner",
      "type": "error"
    },
    {
      "inputs": [
        {
          "internalType": "address",
          "name": "account",
          "type": "address"
        }
      ],
      "name": "OwnableUnauthorizedAccount",
      "type": "error"
    },
    {
      "anonymous": false,
      "inputs": [
        {
          "indexed": true,
          "internalType": "address",
          "name": "owner",
          "type": "address"
        },
        {
          "indexed": true,
          "internalType": "address",
          "name": "approved",
          "type": "address"
        },
        {
          "indexed": true,
          "internalType": "uint256",
          "name": "tokenId",
          "type": "uint256"
        }
      ],
      "name": "Approval",
      "type": "event"
    },
    {
      "anonymous": false,
      "inputs": [
        {
          "indexed": true,
          "internalType": "address",
          "name": "owner",
          "type": "address"
        },
        {
          "indexed": true,
          "internalType": "address",
          "name": "operator",
          "type": "address"
        },
        {
          "indexed": false,
          "internalType": "bool",
          "name": "approved",
          "type": "bool"
        }
      ],
      "name": "ApprovalForAll",
      "type": "event"
    },
    {
      "anonymous": false,
      "inputs": [
        {
          "indexed": true,
          "internalType": "address",
          "name": "previousOwner",
          "type": "address"
        },
        {
          "indexed": true,
          "internalType": "address",
          "name": "newOwner",
          "type": "address"
        }
      ],
      "name": "OwnershipTransferred",
      "type": "event"
    },
    {
      "anonymous": false,
      "inputs": [
        {
          "indexed": true,
          "internalType": "address",
          "name": "from",
          "type": "address"
        },
        {
          "indexed": true,
          "internalType": "address",
          "name": "to",
          "type": "address"
        },
        {
          "indexed": true,
          "internalType": "uint256",
          "name": "tokenId",
          "type": "uint256"
        }
      ],
      "name": "Transfer",
      "type": "event"
    },
    {
      "inputs": [
        {
          "internalType": "address",
          "name": "to",
          "type": "address"
        },
        {
          "internalType": "uint256",
          "name": "tokenId",
          "type": "uint256"
        }
      ],
      "name": "approve",
      "outputs": [],
      "stateMutability": "nonpayable",
      "type": "function"
    },
    {
      "inputs": [
        {
          "internalType": "address",
          "name": "owner",
          "type": "address"
        }
      ],
      "name": "balanceOf",
      "outputs": [
        {
          "internalType": "uint256",
          "name": "",
          "type": "uint256"
        }
      ],
      "stateMutability": "view",
      "type": "function"
    },
    {
      "inputs": [
        {
          "internalType": "uint256",
          "name": "tokenId",
          "type": "uint256"
        }
      ],
      "name": "getApproved",
      "outputs": [
        {
          "internalType": "address",
          "name": "",
          "type": "address"
        }
      ],
      "stateMutability": "view",
      "type": "function"
    },
    {
      "inputs": [
        {
          "internalType": "address",
          "name": "owner",
          "type": "address"
        },
        {
          "internalType": "address",
          "name": "operator",
          "type": "address"
        }
      ],
      "name": "isApprovedForAll",
      "outputs": [
        {
          "internalType": "bool",
          "name": "",
          "type": "bool"
        }
      ],
      "stateMutability": "view",
      "type": "function"
    },
    {
      "inputs": [],
      "name": "name",
      "outputs": [
        {
          "internalType": "string",
          "name": "",
          "type": "string"
        }
      ],
      "stateMutability": "view",
      "type": "function"
    },
    {
      "inputs": [],
      "name": "owner",
      "outputs": [
        {
          "internalType": "address",
          "name": "",
          "type": "address"
        }
      ],
      "stateMutability": "view",
      "type": "function"
    },
    {
      "inputs": [
        {
          "internalType": "uint256",
          "name": "tokenId",
          "type": "uint256"
        }
      ],
      "name": "ownerOf",
      "outputs": [
        {
          "internalType": "address",
          "name": "",
          "type": "address"
        }
      ],
      "stateMutability": "view",
      "type": "function"
    },
    {
      "inputs": [],
      "name": "renounceOwnership",
      "outputs": [],
      "stateMutability": "nonpayable",
      "type": "function"
    },
    {
      "inputs": [
        {
          "internalType": "address",
          "name": "from",
          "type": "address"
        },
        {
          "internalType": "address",
          "name": "to",
          "type": "address"
        },
        {
          "internalType": "uint256",
          "name": "tokenId",
          "type": "uint256"
        }
      ],
      "name": "safeTransferFrom",
      "outputs": [],
      "stateMutability": "nonpayable",
      "type": "function"
    },
    {
      "inputs": [
        {
          "internalType": "address",
          "name": "from",
          "type": "address"
        },
        {
          "internalType": "address",
          "name": "to",
          "type": "address"
        },
        {
          "internalType": "uint256",
          "name": "tokenId",
          "type": "uint256"
        },
        {
          "internalType": "bytes",
          "name": "data",
          "type": "bytes"
        }
      ],
      "name": "safeTransferFrom",
      "outputs": [],
      "stateMutability": "nonpayable",
      "type": "function"
    },
    {
      "inputs": [
        {
          "internalType": "address",
          "name": "operator",
          "type": "address"
        },
        {
          "internalType": "bool",
          "name": "approved",
          "type": "bool"
        }
      ],
      "name": "setApprovalForAll",
      "outputs": [],
      "stateMutability": "nonpayable",
      "type": "function"
    },
    {
      "inputs": [
        {
          "internalType": "bytes4",
          "name": "interfaceId",
          "type": "bytes4"
        }
      ],
      "name": "supportsInterface",
      "outputs": [
        {
          "internalType": "bool",
          "name": "",
          "type": "bool"
        }
      ],
      "stateMutability": "view",
      "type": "function"
    },
    {
      "inputs": [],
      "name": "symbol",
      "outputs": [
        {
          "internalType": "string",
          "name": "",
          "type": "string"
        }
      ],
      "stateMutability": "view",
      "type": "function"
    },
    {
      "inputs": [
        {
          "internalType": "uint256",
          "name": "tokenId",
          "type": "uint256"
        }
      ],
      "name": "tokenURI",
      "outputs": [
        {
          "internalType": "string",
          "name": "",
          "type": "string"
        }
      ],
      "stateMutability": "view",
      "type": "function"
    },
    {
      "inputs": [
        {
          "internalType": "address",
          "name": "from",
          "type": "address"
        },
        {
          "internalType": "address",
          "name": "to",
          "type": "address"
        },
        {
          "internalType": "uint256",
          "name": "tokenId",
          "type": "uint256"
        }
      ],
      "name": "transferFrom",
      "outputs": [],
      "stateMutability": "nonpayable",
      "type": "function"
    },
    {
      "inputs": [
        {
          "internalType": "address",
          "name": "newOwner",
          "type": "address"
        }
      ],
      "name": "transferOwnership",
      "outputs": [],
      "stateMutability": "nonpayable",
      "type": "function"
    },
    {
      "inputs": [
        {
          "internalType": "address",
          "name": "to",
          "type": "address"
        },
        {
          "internalType": "uint256",
          "name": "tokenId",
          "type": "uint256"
        }
      ],
      "name": "mint",
      "outputs": [],
      "stateMutability": "nonpayable",
      "type": "function"
    },
    {
      "inputs": [
        {
          "internalType": "address",
          "name": "to",
          "type": "address"
        }
      ],
      "name": "mintNext",
      "outputs": [
        {
          "internalType": "uint256",
          "name": "",
          "type": "uint256"
        }
      ],
      "stateMutability": "nonpayable",
      "type": "function"
    }
  ],
  "bytecode": "0x60806040523480156200001157600080fd5b5060405162001499380380620014998339810160408190526200003491620001b1565b3382826000620000458382620002aa565b506001620000548282620002aa565b5050506001600160a01b0381166200008657604051631e4fbdf760e01b81526000600482015260240160405180910390fd5b62000091816200009a565b50505062000376565b600680546001600160a01b038381166001600160a01b0319831681179093556040519116919082907f8be0079c531659141344cd1fd0a4f28419497f9722a3daafe3b4186f6b6457e090600090a35050565b634e487b7160e01b600052604160045260246000fd5b600082601f8301126200011457600080fd5b81516001600160401b0380821115620001315762000131620000ec565b604051601f8301601f19908116603f011681019082821181831017156200015c576200015c620000ec565b816040528381526020925086838588010111156200017957600080fd5b600091505b838210156200019d57858201830151818301840152908201906200017e565b600093810190920192909252949350505050565b60008060408385031215620001c557600080fd5b82516001600160401b0380821115620001dd57600080fd5b620001eb8683870162000102565b935060208501519150808211156200020257600080fd5b50620002118582860162000102565b9150509250929050565b600181811c908216806200023057607f821691505b6020821081036200025157634e487b7160e01b600052602260045260246000fd5b50919050565b601f821115620002a557600081815260208120601f850160051c81016020861015620002805750805b601f850160051c820191505b81811015620002a1578281556001016200028c565b5050505b505050565b81516001600160401b03811115620002c657620002c6620000ec565b620002de81620002d784546200021b565b8462000257565b602080601f831160018114620003165760008415620002fd5750858301515b600019600386901b1c1916600185901b178555620002a1565b600085815260208120601f198616915b82811015620003475788860151825594840194600190910190840162000326565b5085821015620003665787850151600019600388901b60f8161c191681555b5050505050600190811b01905550565b61111380620003866000396000f3fe608060405234801561001057600080fd5b50600436106101165760003560e01c806370a08231116100a2578063a22cb46511610071578063a22cb46514610239578063b88d4fde1461024c578063c87b56dd1461025f578063e985e9c514610272578063f2fde38b1461028557600080fd5b806370a0823114610205578063715018a6146102185780638da5cb5b1461022057806395d89b411461023157600080fd5b8063095ea7b3116100e9578063095ea7b3146101a457806323b872dd146101b957806340c10f19146101cc57806342842e0e146101df5780636352211e146101f257600080fd5b8063016ea35a1461011b57806301ffc9a71461014157806306fdde0314610164578063081812fc14610179575b600080fd5b61012e610129366004610d62565b610298565b6040519081526020015b60405180910390f35b61015461014f366004610d93565b6102cb565b6040519015158152602001610138565b61016c61031d565b6040516101389190610e00565b61018c610187366004610e13565b6103af565b6040516001600160a01b039091168152602001610138565b6101b76101b2366004610e2c565b6103d8565b005b6101b76101c7366004610e56565b6103e7565b6101b76101da366004610e2c565b610477565b6101b76101ed366004610e56565b610489565b61018c610200366004610e13565b6104a9565b61012e610213366004610d62565b6104b4565b6101b76104fc565b6006546001600160a01b031661018c565b61016c610510565b6101b7610247366004610e92565b61051f565b6101b761025a366004610ee4565b61052a565b61016c61026d366004610e13565b610542565b610154610280366004610fc0565b6105b7565b6101b7610293366004610d62565b6105e5565b60006102a2610623565b6007805490819060006102b483610ff3565b91905055506102c38382610650565b90505b919050565b60006001600160e01b031982166380ac58cd60e01b14806102fc57506001600160e01b03198216635b5e139f60e01b145b8061031757506301ffc9a760e01b6001600160e01b03198316145b92915050565b60606000805461032c9061101a565b80601f01602080910402602001604051908101604052809291908181526020018280546103589061101a565b80156103a55780601f1061037a576101008083540402835291602001916103a5565b820191906000526020600020905b81548152906001019060200180831161038857829003601f168201915b5050505050905090565b60006103ba826106b5565b506000828152600460205260409020546001600160a01b0316610317565b6103e38282336106ee565b5050565b6001600160a01b03821661041657604051633250574960e11b8152600060048201526024015b60405180910390fd5b60006104238383336106fb565b9050836001600160a01b0316816001600160a01b031614610471576040516364283d7b60e01b81526001600160a01b038086166004830152602482018490528216604482015260640161040d565b50505050565b61047f610623565b6103e38282610650565b6104a48383836040518060200160405280600081525061052a565b505050565b6000610317826106b5565b60006001600160a01b0382166104e0576040516322718ad960e21b81526000600482015260240161040d565b506001600160a01b031660009081526003602052604090205490565b610504610623565b61050e60006107f4565b565b60606001805461032c9061101a565b6103e3338383610846565b6105358484846103e7565b61047133858585856108e5565b606061054d826106b5565b50600061056560408051602081019091526000815290565b9050600081511161058557604051806020016040528060008152506105b0565b8061058f84610a10565b6040516020016105a0929190611054565b6040516020818303038152906040525b9392505050565b6001600160a01b03918216600090815260056020908152604080832093909416825291909152205460ff1690565b6105ed610623565b6001600160a01b03811661061757604051631e4fbdf760e01b81526000600482015260240161040d565b610620816107f4565b50565b6006546001600160a01b0316331461050e5760405163118cdaa760e01b815233600482015260240161040d565b6001600160a01b03821661067a57604051633250574960e11b81526000600482015260240161040d565b6000610688838360006106fb565b90506001600160a01b038116156104a4576040516339e3563760e11b81526000600482015260240161040d565b6000818152600260205260408120546001600160a01b0316806102c357604051637e27328960e01b81526004810184905260240161040d565b6104a48383836001610aa3565b6000828152600260205260408120546001600160a01b039081169083161561072857610728818486610ba9565b6001600160a01b0381161561076657610745600085600080610aa3565b6001600160a01b038116600090815260036020526040902080546000190190555b6001600160a01b03851615610795576001600160a01b0385166000908152600360205260409020805460010190555b60008481526002602052604080822080546001600160a01b0319166001600160a01b0389811691821790925591518793918516917fddf252ad1be2c89b69c2b068fc378daa952ba7f163c4a11628f55a4df523b3ef91a4949350505050565b600680546001600160a01b038381166001600160a01b0319831681179093556040519116919082907f8be0079c531659141344cd1fd0a4f28419497f9722a3daafe3b4186f6b6457e090600090a35050565b6001600160a01b03821661087857604051630b61174360e31b81526001600160a01b038316600482015260240161040d565b6001600160a01b03838116600081815260056020908152604080832094871680845294825291829020805460ff191686151590811790915591519182527f17307eab39ab6107e8899845ad3d59bd9653f200f220920489ca2b5937696c31910160405180910390a3505050565b6001600160a01b0383163b15610a0957604051630a85bd0160e11b81526001600160a01b0384169063150b7a0290610927908890889087908790600401611083565b6020604051808303816000875af1925050508015610962575060408051601f3d908101601f1916820190925261095f918101906110c0565b60015b6109cb573d808015610990576040519150601f19603f3d011682016040523d82523d6000602084013e610995565b606091505b5080516000036109c357604051633250574960e11b81526001600160a01b038516600482015260240161040d565b805181602001fd5b6001600160e01b03198116630a85bd0160e11b14610a0757604051633250574960e11b81526001600160a01b038516600482015260240161040d565b505b5050505050565b60606000610a1d83610c0d565b600101905060008167ffffffffffffffff811115610a3d57610a3d610ece565b6040519080825280601f01601f191660200182016040528015610a67576020820181803683370190505b5090508181016020015b600019016f181899199a1a9b1b9c1cb0b131b232b360811b600a86061a8153600a8504945084610a7157509392505050565b8080610ab757506001600160a01b03821615155b15610b79576000610ac7846106b5565b90506001600160a01b03831615801590610af35750826001600160a01b0316816001600160a01b031614155b8015610b065750610b0481846105b7565b155b15610b2f5760405163a9fbf51f60e01b81526001600160a01b038416600482015260240161040d565b8115610b775783856001600160a01b0316826001600160a01b03167f8c5be1e5ebec7d5bd14f71427d1e84f3dd0314c0f7b2291e5b200ac8c7c3b92560405160405180910390a45b505b5050600090815260046020526040902080546001600160a01b0319166001600160a01b0392909216919091179055565b610bb4838383610ce5565b6104a4576001600160a01b038316610be257604051637e27328960e01b81526004810182905260240161040d565b60405163177e802f60e01b81526001600160a01b03831660048201526024810182905260440161040d565b60008072184f03e93ff9f4daa797ed6e38ed64bf6a1f0160401b8310610c4c5772184f03e93ff9f4daa797ed6e38ed64bf6a1f0160401b830492506040015b6d04ee2d6d415b85acef81000000008310610c78576d04ee2d6d415b85acef8100000000830492506020015b662386f26fc100008310610c9657662386f26fc10000830492506010015b6305f5e1008310610cae576305f5e100830492506008015b6127108310610cc257612710830492506004015b60648310610cd4576064830492506002015b600a83106102c35760010192915050565b60006001600160a01b03831615801590610d435750826001600160a01b0316846001600160a01b03161480610d1f5750610d1f84846105b7565b80610d4357506000828152600460205260409020546001600160a01b038481169116145b949350505050565b80356001600160a01b03811681146102c657600080fd5b600060208284031215610d7457600080fd5b6105b082610d4b565b6001600160e01b03198116811461062057600080fd5b600060208284031215610da557600080fd5b81356105b081610d7d565b60005b83811015610dcb578181015183820152602001610db3565b50506000910152565b60008151808452610dec816020860160208601610db0565b601f01601f19169290920160200192915050565b6020815260006105b06020830184610dd4565b600060208284031215610e2557600080fd5b5035919050565b60008060408385031215610e3f57600080fd5b610e4883610d4b565b946020939093013593505050565b600080600060608486031215610e6b57600080fd5b610e7484610d4b565b9250610e8260208501610d4b565b9150604084013590509250925092565b60008060408385031215610ea557600080fd5b610eae83610d4b565b915060208301358015158114610ec357600080fd5b809150509250929050565b634e487b7160e01b600052604160045260246000fd5b60008060008060808587031215610efa57600080fd5b610f0385610d4b565b9350610f1160208601610d4b565b925060408501359150606085013567ffffffffffffffff80821115610f3557600080fd5b818701915087601f830112610f4957600080fd5b813581811115610f5b57610f5b610ece565b604051601f8201601f19908116603f01168101908382118183101715610f8357610f83610ece565b816040528281528a6020848701011115610f9c57600080fd5b82602086016020830137600060208483010152809550505050505092959194509250565b60008060408385031215610fd357600080fd5b610fdc83610d4b565b9150610fea60208401610d4b565b90509250929050565b60006001820161101357634e487b7160e01b600052601160045260246000fd5b5060010190565b600181811c9082168061102e57607f821691505b60208210810361104e57634e487b7160e01b600052602260045260246000fd5b50919050565b60008351611066818460208801610db0565b83519083019061107a818360208801610db0565b01949350505050565b6001600160a01b03858116825284166020820152604081018390526080606082018190526000906110b690830184610dd4565b9695505050505050565b6000602082840312156110d257600080fd5b81516105b081610d7d56fea26469706673582212202815385fa6b1a80c350ce846cd0626a94cc7989aacd698a1aff85687f6d5a4ef64736f6c63430008150033",
  "immutableReferences": {},
  "source": "// SPDX-License-Identifier: MIT\r\npragma solidity ^0.8.20;\r\n\r\nimport \"@openzeppelin/contracts/token/ERC721/ERC721.sol\";\r\nimport \"@openzeppelin/contracts/access/Ownable.sol\";\r\n\r\ncontract ERC721Mock is ERC721, Ownable {\r\n    uint256 private _nextTokenId;\r\n\r\n    // Modify the constructor to pass the correct arguments to the base constructors\r\n    constructor(string memory name, string memory symbol) ERC721(name, symbol) Ownable(msg.sender) {}\r\n\r\n    // Mint a new token to the specified address\r\n    function mint(address to, uint256 tokenId) public onlyOwner {\r\n        _mint(to, tokenId);\r\n    }\r\n\r\n    // Optional: Auto-increment token ID\r\n    function mintNext(address to) public onlyOwner returns (uint256) {\r\n        uint256 tokenId = _nextTokenId;\r\n        _nextTokenId++;\r\n        _mint(to, tokenId);\r\n        return tokenId;\r\n    }\r\n}\r\n",
  "sourcePath": "C:\\Users\\three\\OneDrive\\Documents\\GitHub\\Blockchain_Auction\\contracts\\ERC721Mock.sol",
  "compiler": {
    "name": "solc",
    "version": "0.8.21+commit.d9974bed.Emscripten.clang"
  },
  "schemaVersion": "3.4.16",
  "updatedAt": "2024-12-13T15:55:55.016Z",
  "devdoc": {
    "errors": {
      "ERC721IncorrectOwner(address,uint256,address)": [
        {
          "details": "Indicates an error related to the ownership over a particular token. Used in transfers.",
          "params": {
            "owner": "Address of the current owner of a token.",
            "sender": "Address whose tokens are being transferred.",
            "tokenId": "Identifier number of a token."
          }
        }
      ],
      "ERC721InsufficientApproval(address,uint256)": [
        {
          "details": "Indicates a failure with the `operator`s approval. Used in transfers.",
          "params": {
            "operator": "Address that may be allowed to operate on tokens without being their owner.",
            "tokenId": "Identifier number of a token."
          }
        }
      ],
      "ERC721InvalidApprover(address)": [
        {
          "details": "Indicates a failure with the `approver` of a token to be approved. Used in approvals.",
          "params": {
            "approver": "Address initiating an approval operation."
          }
        }
      ],
      "ERC721InvalidOperator(address)": [
        {
          "details": "Indicates a failure with the `operator` to be approved. Used in approvals.",
          "params": {
            "operator": "Address that may be allowed to operate on tokens without being their owner."
          }
        }
      ],
      "ERC721InvalidOwner(address)": [
        {
          "details": "Indicates that an address can't be an owner. For example, `address(0)` is a forbidden owner in ERC-20. Used in balance queries.",
          "params": {
            "owner": "Address of the current owner of a token."
          }
        }
      ],
      "ERC721InvalidReceiver(address)": [
        {
          "details": "Indicates a failure with the token `receiver`. Used in transfers.",
          "params": {
            "receiver": "Address to which tokens are being transferred."
          }
        }
      ],
      "ERC721InvalidSender(address)": [
        {
          "details": "Indicates a failure with the token `sender`. Used in transfers.",
          "params": {
            "sender": "Address whose tokens are being transferred."
          }
        }
      ],
      "ERC721NonexistentToken(uint256)": [
        {
          "details": "Indicates a `tokenId` whose `owner` is the zero address.",
          "params": {
            "tokenId": "Identifier number of a token."
          }
        }
      ],
      "OwnableInvalidOwner(address)": [
        {
          "details": "The owner is not a valid owner account. (eg. `address(0)`)"
        }
      ],
      "OwnableUnauthorizedAccount(address)": [
        {
          "details": "The caller account is not authorized to perform an operation."
        }
      ]
    },
    "events": {
      "Approval(address,address,uint256)": {
        "details": "Emitted when `owner` enables `approved` to manage the `tokenId` token."
      },
      "ApprovalForAll(address,address,bool)": {
        "details": "Emitted when `owner` enables or disables (`approved`) `operator` to manage all of its assets."
      },
      "Transfer(address,address,uint256)": {
        "details": "Emitted when `tokenId` token is transferred from `from` to `to`."
      }
    },
    "kind": "dev",
    "methods": {
      "approve(address,uint256)": {
        "details": "See {IERC721-approve}."
      },
      "balanceOf(address)": {
        "details": "See {IERC721-balanceOf}."
      },
      "getApproved(uint256)": {
        "details": "See {IERC721-getApproved}."
      },
      "isApprovedForAll(address,address)": {
        "details": "See {IERC721-isApprovedForAll}."
      },
      "name()": {
        "details": "See {IERC721Metadata-name}."
      },
      "owner()": {
        "details": "Returns the address of the current owner."
      },
      "ownerOf(uint256)": {
        "details": "See {IERC721-ownerOf}."
      },
      "renounceOwnership()": {
        "details": "Leaves the contract without owner. It will not be possible to call `onlyOwner` functions. Can only be called by the current owner. NOTE: Renouncing ownership will leave the contract without an owner, thereby disabling any functionality that is only available to the owner."
      },
      "safeTransferFrom(address,address,uint256)": {
        "details": "See {IERC721-safeTransferFrom}."
      },
      "safeTransferFrom(address,address,uint256,bytes)": {
        "details": "See {IERC721-safeTransferFrom}."
      },
      "setApprovalForAll(address,bool)": {
        "details": "See {IERC721-setApprovalForAll}."
      },
      "supportsInterface(bytes4)": {
        "details": "See {IERC165-supportsInterface}."
      },
      "symbol()": {
        "details": "See {IERC721Metadata-symbol}."
      },
      "tokenURI(uint256)": {
        "details": "See {IERC721Metadata-tokenURI}."
      },
      "transferFrom(address,address,uint256)": {
        "details": "See {IERC721-transferFrom}."
      },
      "transferOwnership(address)": {
        "details": "Transfers ownership of the contract to a new account (`newOwner`). Can only be called by the current owner."
      }
    },
    "version": 1
  },
  "userdoc": {
    "kind": "user",
    "methods": {},
    "version": 1
  }
}