{
  "contractName": "SecondPriceAuction",
  "abi": [
    {
      "inputs": [],
      "name": "FailedCall",
      "type": "error"
    },
    {
      "inputs": [
        {
          "internalType": "uint256",
          "name": "balance",
          "type": "uint256"
        },
        {
          "internalType": "uint256",
          "name": "needed",
          "type": "uint256"
        }
      ],
      "name": "InsufficientBalance",
      "type": "error"
    },
    {
      "anonymous": false,
      "inputs": [
        {
          "indexed": false,
          "internalType": "uint256",
          "name": "auctionId",
          "type": "uint256"
        },
        {
          "indexed": false,
          "internalType": "uint256",
          "name": "duration",
          "type": "uint256"
        },
        {
          "indexed": false,
          "internalType": "address",
          "name": "creator",
          "type": "address"
        }
      ],
      "name": "AuctionCreated",
      "type": "event"
    },
    {
      "anonymous": false,
      "inputs": [
        {
          "indexed": false,
          "internalType": "uint256",
          "name": "auctionId",
          "type": "uint256"
        },
        {
          "indexed": false,
          "internalType": "address",
          "name": "winner",
          "type": "address"
        },
        {
          "indexed": false,
          "internalType": "uint256",
          "name": "amount",
          "type": "uint256"
        }
      ],
      "name": "AuctionEnded",
      "type": "event"
    },
    {
      "anonymous": false,
      "inputs": [
        {
          "indexed": false,
          "internalType": "uint256",
          "name": "auctionId",
          "type": "uint256"
        },
        {
          "indexed": true,
          "internalType": "address",
          "name": "bidder",
          "type": "address"
        },
        {
          "indexed": false,
          "internalType": "uint256",
          "name": "amount",
          "type": "uint256"
        }
      ],
      "name": "BidSubmitted",
      "type": "event"
    },
    {
      "inputs": [
        {
          "internalType": "uint256",
          "name": "",
          "type": "uint256"
        }
      ],
      "name": "auctions",
      "outputs": [
        {
          "internalType": "uint256",
          "name": "auctionEndTime",
          "type": "uint256"
        },
        {
          "internalType": "bool",
          "name": "auctionEnded",
          "type": "bool"
        },
        {
          "internalType": "address",
          "name": "creator",
          "type": "address"
        },
        {
          "internalType": "uint256",
          "name": "highestBid",
          "type": "uint256"
        },
        {
          "internalType": "uint256",
          "name": "secondHighestBid",
          "type": "uint256"
        },
        {
          "internalType": "uint256",
          "name": "startingPrice",
          "type": "uint256"
        },
        {
          "internalType": "uint256",
          "name": "bidIncrement",
          "type": "uint256"
        },
        {
          "internalType": "address",
          "name": "highestBidder",
          "type": "address"
        }
      ],
      "stateMutability": "view",
      "type": "function"
    },
    {
      "stateMutability": "payable",
      "type": "receive"
    },
    {
      "inputs": [
        {
          "internalType": "uint256",
          "name": "auctionId",
          "type": "uint256"
        },
        {
          "internalType": "uint256",
          "name": "_duration",
          "type": "uint256"
        },
        {
          "internalType": "uint256",
          "name": "_startingPrice",
          "type": "uint256"
        },
        {
          "internalType": "uint256",
          "name": "_bidIncrement",
          "type": "uint256"
        }
      ],
      "name": "createAuction",
      "outputs": [],
      "stateMutability": "nonpayable",
      "type": "function"
    },
    {
      "inputs": [
        {
          "internalType": "uint256",
          "name": "auctionId",
          "type": "uint256"
        }
      ],
      "name": "submitBid",
      "outputs": [],
      "stateMutability": "payable",
      "type": "function"
    },
    {
      "inputs": [
        {
          "internalType": "uint256",
          "name": "auctionId",
          "type": "uint256"
        }
      ],
      "name": "endAuction",
      "outputs": [],
      "stateMutability": "nonpayable",
      "type": "function"
    },
    {
      "inputs": [
        {
          "internalType": "uint256",
          "name": "auctionId",
          "type": "uint256"
        }
      ],
      "name": "withdraw",
      "outputs": [],
      "stateMutability": "nonpayable",
      "type": "function"
    }
  ],
  "bytecode": "0x60806040526001805460ff1916905534801561001a57600080fd5b50610add8061002a6000396000f3fe60806040526004361061004e5760003560e01c80632e1a7d4d146100b0578063431f21da146100d2578063571a26a0146100f257806374bdda15146101a2578063b9a2de3a146101b557600080fd5b366100ab5760405162461bcd60e51b815260206004820152602260248201527f446972656374204574686572207472616e7366657273206e6f7420616c6c6f77604482015261195960f21b60648201526084015b60405180910390fd5b600080fd5b3480156100bc57600080fd5b506100d06100cb3660046109e3565b6101d5565b005b3480156100de57600080fd5b506100d06100ed3660046109fc565b6102e6565b3480156100fe57600080fd5b5061015861010d3660046109e3565b6000602081905290815260409020805460018201546002830154600384015460048501546005860154600690960154949560ff8516956001600160a01b036101009096048616951688565b6040805198895296151560208901526001600160a01b03958616888801526060880194909452608087019290925260a086015260c08501521660e083015251908190036101000190f35b6100d06101b03660046109e3565b6103fe565b3480156101c157600080fd5b506100d06101d03660046109e3565b610716565b60015460ff16156101f85760405162461bcd60e51b81526004016100a290610a2e565b6001805460ff19168117815560008281526020819052604090209081015460ff166102655760405162461bcd60e51b815260206004820152601760248201527f41756374696f6e206973207374696c6c2061637469766500000000000000000060448201526064016100a2565b336000908152600782016020526040902054806102bb5760405162461bcd60e51b81526020600482015260146024820152734e6f2066756e647320746f20776974686472617760601b60448201526064016100a2565b3360008181526007840160205260408120556102d79082610940565b50506001805460ff1916905550565b6000848152602081905260409020541561033b5760405162461bcd60e51b815260206004820152601660248201527541756374696f6e20616c72656164792065786973747360501b60448201526064016100a2565b60008481526020819052604090206103538442610a7b565b81556001810180546001600160a81b03191661010033021790558215610379578261037c565b60005b6004820155811561038d5781610390565b60005b600582015560048101546002820155600060038201556006810180546001600160a01b03191690556040805186815260208101869052338183015290517f269c6afe2aca013f0509579e940c72d6b65c998b5a6846f4da1c50992c23c50e9181900360600190a15050505050565b600081815260208190526040902060010154819060ff16156104565760405162461bcd60e51b8152602060048201526011602482015270105d58dd1a5bdb881a185cc8195b991959607a1b60448201526064016100a2565b60008181526020819052604090205442106104a95760405162461bcd60e51b8152602060048201526013602482015272105d58dd1a5bdb881a185cc8195e1c1a5c9959606a1b60448201526064016100a2565b60015460ff16156104cc5760405162461bcd60e51b81526004016100a290610a2e565b6001805460ff19168117905560008281526020819052604090203461053f5760405162461bcd60e51b815260206004820152602360248201527f4269642076616c7565206d7573742062652067726561746572207468616e207a60448201526265726f60e81b60648201526084016100a2565b33600090815260078201602052604081205461055c903490610a7b565b905081600401546000036105da57816002015481116105d55760405162461bcd60e51b815260206004820152602f60248201527f426964206d75737420626520686967686572207468616e20746865206375727260448201526e195b9d081a1a59da195cdd08189a59608a1b60648201526084016100a2565b610671565b816005015482600201546105ee9190610a7b565b8110156106715760405162461bcd60e51b815260206004820152604560248201527f426964206d75737420626520686967686572207468616e2063757272656e742060448201527f6869676865737420626964206279206174206c656173742074686520696e6372606482015264195b595b9d60da1b608482015260a4016100a2565b336000908152600783016020526040902081905560028201548111156106b85760028201805460038401558190556006820180546001600160a01b031916331790556106cc565b81600301548111156106cc57600382018190555b6040805185815234602082015233917f177554f051f4aa1f0d0310334854b429baeecdb5a96bc329a26fd0cb7c8a7be3910160405180910390a250506001805460ff191690555050565b600081815260208190526040902060010154819061010090046001600160a01b0316331461079f5760405162461bcd60e51b815260206004820152603060248201527f4f6e6c79207468652061756374696f6e2063726561746f722063616e2070657260448201526f3337b936903a3434b99030b1ba34b7b760811b60648201526084016100a2565b60015460ff16156107c25760405162461bcd60e51b81526004016100a290610a2e565b6001805460ff1916811790556000828152602081905260409020805442101561082d5760405162461bcd60e51b815260206004820152601960248201527f41756374696f6e20686173206e6f742079657420656e6465640000000000000060448201526064016100a2565b600181015460ff161561087a5760405162461bcd60e51b8152602060048201526015602482015274105d58dd1a5bdb88185b1c9958591e48195b991959605a1b60448201526064016100a2565b6001818101805460ff19169091179081905560038201546108a99161010090046001600160a01b031690610940565b6000816003015482600201546108bf9190610a94565b905080156108df5760068201546108df906001600160a01b031682610940565b60068201546003830154604080518781526001600160a01b0390931660208401528201527fd2aa34a4fdbbc6dff6a3e56f46e0f3ae2a31d7785ff3487aa5c95c642acea5019060600160405180910390a150506001805460ff191690555050565b8047101561096a5760405163cf47918160e01b8152476004820152602481018290526044016100a2565b6000826001600160a01b03168260405160006040518083038185875af1925050503d80600081146109b7576040519150601f19603f3d011682016040523d82523d6000602084013e6109bc565b606091505b50509050806109de5760405163d6bda27560e01b815260040160405180910390fd5b505050565b6000602082840312156109f557600080fd5b5035919050565b60008060008060808587031215610a1257600080fd5b5050823594602084013594506040840135936060013592509050565b60208082526017908201527f5265656e7472616e742063616c6c206465746563746564000000000000000000604082015260600190565b634e487b7160e01b600052601160045260246000fd5b80820180821115610a8e57610a8e610a65565b92915050565b81810381811115610a8e57610a8e610a6556fea26469706673582212204ebaab992d1662761e562ae6abb7fef2447372d5033d207077a6832d38cd86a664736f6c63430008150033",
  "immutableReferences": {},
  "source": "// SPDX-License-Identifier: MIT\r\npragma solidity ^0.8.20;\r\n\r\nimport \"@openzeppelin/contracts/access/Ownable.sol\";\r\nimport \"@openzeppelin/contracts/utils/Address.sol\";\r\n\r\ncontract SecondPriceAuction {\r\n    using Address for address payable;\r\n\r\n    struct Auction {\r\n        uint256 auctionEndTime;\r\n        bool auctionEnded;\r\n        address creator;\r\n        uint256 highestBid; // Highest bid amount\r\n        uint256 secondHighestBid; // Second-highest bid\r\n        uint256 startingPrice; // The starting price of the auction\r\n        uint256 bidIncrement; // Minimum increment required for the next bid\r\n        address highestBidder;\r\n        mapping(address => uint256) bids; // Bids submitted by participants\r\n    }\r\n\r\n    mapping(uint256 => Auction) public auctions;\r\n\r\n    bool private locked = false; // Custom reentrancy guard\r\n\r\n    event AuctionCreated(uint256 auctionId, uint256 duration, address creator);\r\n    event BidSubmitted(uint256 auctionId, address indexed bidder, uint256 amount);\r\n    event AuctionEnded(uint256 auctionId, address winner, uint256 amount);\r\n\r\n    modifier nonReentrant() {\r\n        require(!locked, \"Reentrant call detected\");\r\n        locked = true;\r\n        _;\r\n        locked = false;\r\n    }\r\n\r\n    modifier auctionActive(uint256 auctionId) {\r\n        require(!auctions[auctionId].auctionEnded, \"Auction has ended\");\r\n        require(block.timestamp < auctions[auctionId].auctionEndTime, \"Auction has expired\");\r\n        _;\r\n    }\r\n\r\n    modifier onlyAuctionCreator(uint256 auctionId) {\r\n        require(msg.sender == auctions[auctionId].creator, \"Only the auction creator can perform this action\");\r\n        _;\r\n    }\r\n\r\n    // Create a new second-price auction\r\n    function createAuction(\r\n        uint256 auctionId,\r\n        uint256 _duration,\r\n        uint256 _startingPrice, // Optionally set starting price\r\n        uint256 _bidIncrement    // Optionally set bid increment\r\n    ) external {\r\n        require(auctions[auctionId].auctionEndTime == 0, \"Auction already exists\");\r\n\r\n        // Initialize the auction fields individually\r\n        Auction storage auction = auctions[auctionId];\r\n        auction.auctionEndTime = block.timestamp + _duration;\r\n        auction.auctionEnded = false;\r\n        auction.creator = msg.sender;\r\n\r\n        // Set the starting price and bid increment, default to 0 if not provided\r\n        auction.startingPrice = _startingPrice == 0 ? 0 : _startingPrice;\r\n        auction.bidIncrement = _bidIncrement == 0 ? 0 : _bidIncrement;\r\n\r\n        // Set the highest bid to the starting price if provided, otherwise start at 0\r\n        auction.highestBid = auction.startingPrice;\r\n\r\n        // Initialize the second-highest bid and highest bidder\r\n        auction.secondHighestBid = 0;\r\n        auction.highestBidder = address(0);\r\n\r\n        emit AuctionCreated(auctionId, _duration, msg.sender);\r\n    }\r\n\r\n    // Submit a bid (sealed bid process)\r\n    function submitBid(uint256 auctionId) external payable auctionActive(auctionId) nonReentrant {\r\n        Auction storage auction = auctions[auctionId];\r\n        require(msg.value > 0, \"Bid value must be greater than zero\");\r\n\r\n        uint256 newBidAmount = auction.bids[msg.sender] + msg.value;\r\n\r\n        // If starting price is 0, the first bid can be any positive value\r\n        if (auction.startingPrice == 0) {\r\n            // If this is the first bid, no increment condition\r\n            require(newBidAmount > auction.highestBid, \"Bid must be higher than the current highest bid\");\r\n        } else {\r\n            // Ensure the new bid is higher than the highest bid by at least the increment\r\n            require(newBidAmount >= auction.highestBid + auction.bidIncrement, \"Bid must be higher than current highest bid by at least the increment\");\r\n        }\r\n\r\n        auction.bids[msg.sender] = newBidAmount;\r\n\r\n        // Update highest and second-highest bids\r\n        if (newBidAmount > auction.highestBid) {\r\n            // Update second-highest bid before changing the highest\r\n            auction.secondHighestBid = auction.highestBid;\r\n            auction.highestBid = newBidAmount;\r\n            auction.highestBidder = msg.sender;\r\n        } else if (newBidAmount > auction.secondHighestBid) {\r\n            // Update second-highest bid if higher than current second-highest\r\n            auction.secondHighestBid = newBidAmount;\r\n        }\r\n\r\n        emit BidSubmitted(auctionId, msg.sender, msg.value);\r\n    }\r\n\r\n\r\n    // End the auction and transfer funds\r\n    function endAuction(uint256 auctionId) external onlyAuctionCreator(auctionId) nonReentrant {\r\n        Auction storage auction = auctions[auctionId];\r\n        require(block.timestamp >= auction.auctionEndTime, \"Auction has not yet ended\");\r\n        require(!auction.auctionEnded, \"Auction already ended\");\r\n\r\n        auction.auctionEnded = true;\r\n\r\n        // Transfer the second-highest bid amount to the creator\r\n        payable(auction.creator).sendValue(auction.secondHighestBid);\r\n\r\n        // Refund any overbids to the winner\r\n        uint256 refund = auction.highestBid - auction.secondHighestBid;\r\n        if (refund > 0) {\r\n            payable(auction.highestBidder).sendValue(refund);\r\n        }\r\n\r\n        emit AuctionEnded(auctionId, auction.highestBidder, auction.secondHighestBid);\r\n    }\r\n\r\n    // Allow bidders to withdraw their unused funds\r\n    function withdraw(uint256 auctionId) external nonReentrant {\r\n        Auction storage auction = auctions[auctionId];\r\n        require(auction.auctionEnded, \"Auction is still active\");\r\n\r\n        uint256 amount = auction.bids[msg.sender];\r\n        require(amount > 0, \"No funds to withdraw\");\r\n\r\n        auction.bids[msg.sender] = 0; // Set to zero before transfer to prevent reentrancy\r\n        payable(msg.sender).sendValue(amount);\r\n    }\r\n\r\n    // Fallback to reject unexpected Ether transfers\r\n    receive() external payable {\r\n        revert(\"Direct Ether transfers not allowed\");\r\n    }\r\n}\r\n",
  "sourcePath": "C:\\Users\\three\\OneDrive\\Documents\\GitHub\\Blockchain_Auction\\contracts\\SecondPriceAuction.sol",
  "compiler": {
    "name": "solc",
    "version": "0.8.21+commit.d9974bed.Emscripten.clang"
  },
  "schemaVersion": "3.4.16",
  "updatedAt": "2024-12-13T08:47:19.857Z",
  "devdoc": {
    "errors": {
      "FailedCall()": [
        {
          "details": "A call to an address target failed. The target may have reverted."
        }
      ],
      "InsufficientBalance(uint256,uint256)": [
        {
          "details": "The ETH balance of the account is not enough to perform the operation."
        }
      ]
    },
    "kind": "dev",
    "methods": {},
    "version": 1
  },
  "userdoc": {
    "kind": "user",
    "methods": {},
    "version": 1
  }
}