{
  "contractName": "SecondPriceAuction",
  "abi": [
    {
      "inputs": [],
      "name": "FailedCall",
      "type": "error"
    },
    {
      "inputs": [
        {
          "internalType": "uint256",
          "name": "balance",
          "type": "uint256"
        },
        {
          "internalType": "uint256",
          "name": "needed",
          "type": "uint256"
        }
      ],
      "name": "InsufficientBalance",
      "type": "error"
    },
    {
      "anonymous": false,
      "inputs": [
        {
          "indexed": false,
          "internalType": "uint256",
          "name": "auctionId",
          "type": "uint256"
        },
        {
          "indexed": false,
          "internalType": "uint256",
          "name": "duration",
          "type": "uint256"
        },
        {
          "indexed": false,
          "internalType": "address",
          "name": "creator",
          "type": "address"
        },
        {
          "indexed": false,
          "internalType": "address",
          "name": "nftContract",
          "type": "address"
        },
        {
          "indexed": false,
          "internalType": "uint256",
          "name": "tokenId",
          "type": "uint256"
        }
      ],
      "name": "AuctionCreated",
      "type": "event"
    },
    {
      "anonymous": false,
      "inputs": [
        {
          "indexed": false,
          "internalType": "uint256",
          "name": "auctionId",
          "type": "uint256"
        },
        {
          "indexed": false,
          "internalType": "address",
          "name": "winner",
          "type": "address"
        },
        {
          "indexed": false,
          "internalType": "uint256",
          "name": "amount",
          "type": "uint256"
        },
        {
          "indexed": false,
          "internalType": "address",
          "name": "nftContract",
          "type": "address"
        },
        {
          "indexed": false,
          "internalType": "uint256",
          "name": "tokenId",
          "type": "uint256"
        }
      ],
      "name": "AuctionEnded",
      "type": "event"
    },
    {
      "anonymous": false,
      "inputs": [
        {
          "indexed": false,
          "internalType": "uint256",
          "name": "auctionId",
          "type": "uint256"
        },
        {
          "indexed": true,
          "internalType": "address",
          "name": "bidder",
          "type": "address"
        },
        {
          "indexed": false,
          "internalType": "uint256",
          "name": "amount",
          "type": "uint256"
        }
      ],
      "name": "BidSubmitted",
      "type": "event"
    },
    {
      "inputs": [
        {
          "internalType": "uint256",
          "name": "",
          "type": "uint256"
        }
      ],
      "name": "auctions",
      "outputs": [
        {
          "internalType": "uint256",
          "name": "auctionEndTime",
          "type": "uint256"
        },
        {
          "internalType": "bool",
          "name": "auctionEnded",
          "type": "bool"
        },
        {
          "internalType": "address",
          "name": "creator",
          "type": "address"
        },
        {
          "internalType": "uint256",
          "name": "highestBid",
          "type": "uint256"
        },
        {
          "internalType": "uint256",
          "name": "secondHighestBid",
          "type": "uint256"
        },
        {
          "internalType": "uint256",
          "name": "startingPrice",
          "type": "uint256"
        },
        {
          "internalType": "uint256",
          "name": "bidIncrement",
          "type": "uint256"
        },
        {
          "internalType": "address",
          "name": "highestBidder",
          "type": "address"
        },
        {
          "internalType": "address",
          "name": "nftContract",
          "type": "address"
        },
        {
          "internalType": "uint256",
          "name": "nftTokenId",
          "type": "uint256"
        }
      ],
      "stateMutability": "view",
      "type": "function"
    },
    {
      "stateMutability": "payable",
      "type": "receive"
    },
    {
      "inputs": [
        {
          "internalType": "uint256",
          "name": "auctionId",
          "type": "uint256"
        },
        {
          "internalType": "uint256",
          "name": "_duration",
          "type": "uint256"
        },
        {
          "internalType": "uint256",
          "name": "_bidIncrement",
          "type": "uint256"
        },
        {
          "internalType": "uint256",
          "name": "_startingPrice",
          "type": "uint256"
        },
        {
          "internalType": "address",
          "name": "_nftContract",
          "type": "address"
        },
        {
          "internalType": "uint256",
          "name": "_nftTokenId",
          "type": "uint256"
        }
      ],
      "name": "createAuction",
      "outputs": [],
      "stateMutability": "nonpayable",
      "type": "function"
    },
    {
      "inputs": [
        {
          "internalType": "uint256",
          "name": "auctionId",
          "type": "uint256"
        }
      ],
      "name": "submitBid",
      "outputs": [],
      "stateMutability": "payable",
      "type": "function"
    },
    {
      "inputs": [
        {
          "internalType": "uint256",
          "name": "auctionId",
          "type": "uint256"
        }
      ],
      "name": "endAuction",
      "outputs": [],
      "stateMutability": "nonpayable",
      "type": "function"
    },
    {
      "inputs": [
        {
          "internalType": "uint256",
          "name": "auctionId",
          "type": "uint256"
        }
      ],
      "name": "withdraw",
      "outputs": [],
      "stateMutability": "nonpayable",
      "type": "function"
    }
  ],
  "bytecode": "0x60806040526001805460ff1916905534801561001a57600080fd5b50610d188061002a6000396000f3fe60806040526004361061004e5760003560e01c806328012606146100b05780632e1a7d4d146100d2578063571a26a0146100f257806374bdda15146101c6578063b9a2de3a146101d957600080fd5b366100ab5760405162461bcd60e51b815260206004820152602260248201527f446972656374204574686572207472616e7366657273206e6f7420616c6c6f77604482015261195960f21b60648201526084015b60405180910390fd5b600080fd5b3480156100bc57600080fd5b506100d06100cb366004610bd7565b6101f9565b005b3480156100de57600080fd5b506100d06100ed366004610c2c565b6104ad565b3480156100fe57600080fd5b5061016961010d366004610c2c565b600060208190529081526040902080546001820154600283015460038401546004850154600586015460068701546008880154600990980154969760ff8716976101009097046001600160a01b0390811697928116929116908a565b604080519a8b5298151560208b01526001600160a01b039788168a8a015260608a0196909652608089019490945260a088019290925260c0870152831660e086015290911661010084015261012083015251908190036101400190f35b6100d06101d4366004610c2c565b6105be565b3480156101e557600080fd5b506100d06101f4366004610c2c565b61085b565b6000868152602081905260409020541561024e5760405162461bcd60e51b815260206004820152601660248201527541756374696f6e20616c72656164792065786973747360501b60448201526064016100a2565b6001600160a01b0382166102a45760405162461bcd60e51b815260206004820152601c60248201527f496e76616c6964204e465420636f6e747261637420616464726573730000000060448201526064016100a2565b6040516331a9108f60e11b815260048101829052829033906001600160a01b03831690636352211e90602401602060405180830381865afa1580156102ed573d6000803e3d6000fd5b505050506040513d601f19601f820116820180604052508101906103119190610c45565b6001600160a01b0316146103675760405162461bcd60e51b815260206004820181905260248201527f596f7520646f206e6f74206f776e2074686520737065636966696564204e465460448201526064016100a2565b6040516323b872dd60e01b8152336004820152306024820152604481018390526001600160a01b038216906323b872dd90606401600060405180830381600087803b1580156103b557600080fd5b505af11580156103c9573d6000803e3d6000fd5b505050600088815260208190526040902090506103e68742610c7f565b81556001810180543361010081026001600160a81b031990921691909117909155600482018690556005820187905560028201869055600060038301556006820180546001600160a01b03199081169091556008830180546001600160a01b03881692168217905560098301859055604080518b8152602081018b9052908101929092526060820152608081018490527fabee754a345636092ebb09f146850d947ebb1a905c014df0b3567126093be7e09060a00160405180910390a15050505050505050565b60015460ff16156104d05760405162461bcd60e51b81526004016100a290610c98565b6001805460ff19168117815560008281526020819052604090209081015460ff1661053d5760405162461bcd60e51b815260206004820152601760248201527f41756374696f6e206973207374696c6c2061637469766500000000000000000060448201526064016100a2565b336000908152600782016020526040902054806105935760405162461bcd60e51b81526020600482015260146024820152734e6f2066756e647320746f20776974686472617760601b60448201526064016100a2565b3360008181526007840160205260408120556105af9082610b1c565b50506001805460ff1916905550565b600081815260208190526040902060010154819060ff16156106165760405162461bcd60e51b8152602060048201526011602482015270105d58dd1a5bdb881a185cc8195b991959607a1b60448201526064016100a2565b60008181526020819052604090205442106106695760405162461bcd60e51b8152602060048201526013602482015272105d58dd1a5bdb881a185cc8195e1c1a5c9959606a1b60448201526064016100a2565b60015460ff161561068c5760405162461bcd60e51b81526004016100a290610c98565b6001805460ff1916811790556000828152602081905260409020346106ff5760405162461bcd60e51b815260206004820152602360248201527f4269642076616c7565206d7573742062652067726561746572207468616e207a60448201526265726f60e81b60648201526084016100a2565b33600090815260078201602052604081205461071c903490610c7f565b9050816005015482600201546107329190610c7f565b8110156107b55760405162461bcd60e51b815260206004820152604560248201527f426964206d75737420626520686967686572207468616e2063757272656e742060448201527f6869676865737420626964206279206174206c656173742074686520696e6372606482015264195b595b9d60da1b608482015260a4016100a2565b336000908152600783016020526040902081905560028201548111156107fc5760028201805460038401558190556006820180546001600160a01b03191633179055610810565b816003015481111561081057600382018190555b604080518581526020810183905233917f177554f051f4aa1f0d0310334854b429baeecdb5a96bc329a26fd0cb7c8a7be3910160405180910390a250506001805460ff191690555050565b600081815260208190526040902060010154819061010090046001600160a01b031633146108e45760405162461bcd60e51b815260206004820152603060248201527f4f6e6c79207468652061756374696f6e2063726561746f722063616e2070657260448201526f3337b936903a3434b99030b1ba34b7b760811b60648201526084016100a2565b60015460ff16156109075760405162461bcd60e51b81526004016100a290610c98565b6001805460ff191681179055600082815260208190526040902080544210156109725760405162461bcd60e51b815260206004820152601960248201527f41756374696f6e20686173206e6f742079657420656e6465640000000000000060448201526064016100a2565b600181015460ff16156109bf5760405162461bcd60e51b8152602060048201526015602482015274105d58dd1a5bdb88185b1c9958591e48195b991959605a1b60448201526064016100a2565b6001818101805460ff191690911790556008810154600682015460098301546040516323b872dd60e01b81523060048201526001600160a01b03928316602482015260448101919091529116906323b872dd90606401600060405180830381600087803b158015610a2f57600080fd5b505af1158015610a43573d6000803e3d6000fd5b50505060038201546001830154610a6a92506001600160a01b036101009091041690610b1c565b600081600301548260020154610a809190610ccf565b90508015610aa0576006820154610aa0906001600160a01b031682610b1c565b6006820154600383015460088401546009850154604080518981526001600160a01b03958616602082015280820194909452939091166060830152608082015290517fe5475ecf90fac88802f904d6cb8390f7106dec2526f70b078ce579d6f72212519181900360a00190a150506001805460ff191690555050565b80471015610b465760405163cf47918160e01b8152476004820152602481018290526044016100a2565b6000826001600160a01b03168260405160006040518083038185875af1925050503d8060008114610b93576040519150601f19603f3d011682016040523d82523d6000602084013e610b98565b606091505b5050905080610bba5760405163d6bda27560e01b815260040160405180910390fd5b505050565b6001600160a01b0381168114610bd457600080fd5b50565b60008060008060008060c08789031215610bf057600080fd5b863595506020870135945060408701359350606087013592506080870135610c1781610bbf565b8092505060a087013590509295509295509295565b600060208284031215610c3e57600080fd5b5035919050565b600060208284031215610c5757600080fd5b8151610c6281610bbf565b9392505050565b634e487b7160e01b600052601160045260246000fd5b80820180821115610c9257610c92610c69565b92915050565b60208082526017908201527f5265656e7472616e742063616c6c206465746563746564000000000000000000604082015260600190565b81810381811115610c9257610c92610c6956fea2646970667358221220898d18cc70ba479f6687006a1d3674d3f995c17a0e1ae321075368b85b2405cc64736f6c63430008150033",
  "immutableReferences": {},
  "source": "// SPDX-License-Identifier: MIT\r\npragma solidity ^0.8.20;\r\n\r\nimport \"@openzeppelin/contracts/token/ERC721/IERC721.sol\";\r\nimport \"@openzeppelin/contracts/access/Ownable.sol\";\r\nimport \"@openzeppelin/contracts/utils/Address.sol\";\r\n\r\ncontract SecondPriceAuction {\r\n    using Address for address payable;\r\n\r\n    struct Auction {\r\n        uint256 auctionEndTime;\r\n        bool auctionEnded;\r\n        address creator;\r\n        uint256 highestBid; // Highest bid amount\r\n        uint256 secondHighestBid; // Second-highest bid\r\n        uint256 startingPrice; // The starting price of the auction\r\n        uint256 bidIncrement; // Minimum increment required for the next bid\r\n        address highestBidder;\r\n        mapping(address => uint256) bids; // Bids submitted by participants\r\n        address nftContract; // Address of the ERC721 contract\r\n        uint256 nftTokenId; // Token ID of the NFT being auctioned\r\n    }\r\n\r\n    mapping(uint256 => Auction) public auctions;\r\n\r\n    bool private locked = false; // Custom reentrancy guard\r\n\r\n    event AuctionCreated(uint256 auctionId, uint256 duration, address creator, address nftContract, uint256 tokenId);\r\n    event BidSubmitted(uint256 auctionId, address indexed bidder, uint256 amount);\r\n    event AuctionEnded(uint256 auctionId, address winner, uint256 amount, address nftContract, uint256 tokenId);\r\n\r\n    modifier nonReentrant() {\r\n        require(!locked, \"Reentrant call detected\");\r\n        locked = true;\r\n        _;\r\n        locked = false;\r\n    }\r\n\r\n    modifier auctionActive(uint256 auctionId) {\r\n        require(!auctions[auctionId].auctionEnded, \"Auction has ended\");\r\n        require(block.timestamp < auctions[auctionId].auctionEndTime, \"Auction has expired\");\r\n        _; \r\n    }\r\n\r\n    modifier onlyAuctionCreator(uint256 auctionId) {\r\n        require(msg.sender == auctions[auctionId].creator, \"Only the auction creator can perform this action\");\r\n        _;\r\n    }\r\n\r\n    // Create a new second-price auction for an NFT\r\n    function createAuction(\r\n        uint256 auctionId,\r\n        uint256 _duration,\r\n        uint256 _bidIncrement,\r\n        uint256 _startingPrice,\r\n        address _nftContract,\r\n        uint256 _nftTokenId\r\n    ) external {\r\n        require(auctions[auctionId].auctionEndTime == 0, \"Auction already exists\");\r\n        require(_nftContract != address(0), \"Invalid NFT contract address\");\r\n        \r\n        // Transfer the NFT to this contract\r\n        IERC721 nft = IERC721(_nftContract);\r\n        require(nft.ownerOf(_nftTokenId) == msg.sender, \"You do not own the specified NFT\");\r\n        nft.transferFrom(msg.sender, address(this), _nftTokenId);\r\n\r\n        // Initialize the auction fields\r\n        Auction storage auction = auctions[auctionId];\r\n        auction.auctionEndTime = block.timestamp + _duration;\r\n        auction.auctionEnded = false;\r\n        auction.creator = msg.sender;\r\n        auction.startingPrice = _startingPrice;\r\n        auction.bidIncrement = _bidIncrement;\r\n        auction.highestBid = _startingPrice;\r\n        auction.secondHighestBid = 0;\r\n        auction.highestBidder = address(0);\r\n        auction.nftContract = _nftContract;\r\n        auction.nftTokenId = _nftTokenId;\r\n\r\n        emit AuctionCreated(auctionId, _duration, msg.sender, _nftContract, _nftTokenId);\r\n    }\r\n\r\n    // Submit a bid (sealed bid process)\r\n    function submitBid(uint256 auctionId) external payable auctionActive(auctionId) nonReentrant {\r\n        Auction storage auction = auctions[auctionId];\r\n        require(msg.value > 0, \"Bid value must be greater than zero\");\r\n\r\n        uint256 newBidAmount = auction.bids[msg.sender] + msg.value;\r\n\r\n        require(newBidAmount >= auction.highestBid + auction.bidIncrement, \"Bid must be higher than current highest bid by at least the increment\");\r\n\r\n        auction.bids[msg.sender] = newBidAmount;\r\n\r\n        // Update highest and second-highest bids\r\n        if (newBidAmount > auction.highestBid) {\r\n            auction.secondHighestBid = auction.highestBid;\r\n            auction.highestBid = newBidAmount;\r\n            auction.highestBidder = msg.sender;\r\n        } else if (newBidAmount > auction.secondHighestBid) {\r\n            auction.secondHighestBid = newBidAmount;\r\n        }\r\n\r\n        emit BidSubmitted(auctionId, msg.sender, newBidAmount);\r\n    }\r\n\r\n    // End the auction, transfer NFT to the winner, and handle funds\r\n    function endAuction(uint256 auctionId) external onlyAuctionCreator(auctionId) nonReentrant {\r\n        Auction storage auction = auctions[auctionId];\r\n        require(block.timestamp >= auction.auctionEndTime, \"Auction has not yet ended\");\r\n        require(!auction.auctionEnded, \"Auction already ended\");\r\n\r\n        auction.auctionEnded = true;\r\n\r\n        // Transfer the NFT to the highest bidder\r\n        IERC721(auction.nftContract).transferFrom(address(this), auction.highestBidder, auction.nftTokenId);\r\n\r\n        // Transfer the second-highest bid amount to the creator\r\n        payable(auction.creator).sendValue(auction.secondHighestBid);\r\n\r\n        // Refund any overbids to the winner\r\n        uint256 refund = auction.highestBid - auction.secondHighestBid;\r\n        if (refund > 0) {\r\n            payable(auction.highestBidder).sendValue(refund);\r\n        }\r\n\r\n        emit AuctionEnded(auctionId, auction.highestBidder, auction.secondHighestBid, auction.nftContract, auction.nftTokenId);\r\n    }\r\n\r\n    // Allow bidders to withdraw their unused funds\r\n    function withdraw(uint256 auctionId) external nonReentrant {\r\n        Auction storage auction = auctions[auctionId];\r\n        require(auction.auctionEnded, \"Auction is still active\");\r\n\r\n        uint256 amount = auction.bids[msg.sender];\r\n        require(amount > 0, \"No funds to withdraw\");\r\n\r\n        auction.bids[msg.sender] = 0; // Prevent reentrancy\r\n        payable(msg.sender).sendValue(amount);\r\n    }\r\n\r\n    // Fallback to reject unexpected Ether transfers\r\n    receive() external payable {\r\n        revert(\"Direct Ether transfers not allowed\");\r\n    }\r\n}\r\n",
  "sourcePath": "C:\\Users\\three\\OneDrive\\Documents\\GitHub\\Blockchain_Auction\\contracts\\SecondPriceAuction.sol",
  "compiler": {
    "name": "solc",
    "version": "0.8.21+commit.d9974bed.Emscripten.clang"
  },
  "schemaVersion": "3.4.16",
  "updatedAt": "2024-12-16T03:16:24.428Z",
  "devdoc": {
    "errors": {
      "FailedCall()": [
        {
          "details": "A call to an address target failed. The target may have reverted."
        }
      ],
      "InsufficientBalance(uint256,uint256)": [
        {
          "details": "The ETH balance of the account is not enough to perform the operation."
        }
      ]
    },
    "kind": "dev",
    "methods": {},
    "version": 1
  },
  "userdoc": {
    "kind": "user",
    "methods": {},
    "version": 1
  }
}