{
  "contractName": "SecondPriceAuction",
  "abi": [
    {
      "inputs": [],
      "name": "FailedCall",
      "type": "error"
    },
    {
      "inputs": [
        {
          "internalType": "uint256",
          "name": "balance",
          "type": "uint256"
        },
        {
          "internalType": "uint256",
          "name": "needed",
          "type": "uint256"
        }
      ],
      "name": "InsufficientBalance",
      "type": "error"
    },
    {
      "anonymous": false,
      "inputs": [
        {
          "indexed": false,
          "internalType": "uint256",
          "name": "auctionId",
          "type": "uint256"
        },
        {
          "indexed": false,
          "internalType": "uint256",
          "name": "duration",
          "type": "uint256"
        },
        {
          "indexed": false,
          "internalType": "address",
          "name": "creator",
          "type": "address"
        }
      ],
      "name": "AuctionCreated",
      "type": "event"
    },
    {
      "anonymous": false,
      "inputs": [
        {
          "indexed": false,
          "internalType": "uint256",
          "name": "auctionId",
          "type": "uint256"
        },
        {
          "indexed": false,
          "internalType": "address",
          "name": "winner",
          "type": "address"
        },
        {
          "indexed": false,
          "internalType": "uint256",
          "name": "amount",
          "type": "uint256"
        }
      ],
      "name": "AuctionEnded",
      "type": "event"
    },
    {
      "anonymous": false,
      "inputs": [
        {
          "indexed": false,
          "internalType": "uint256",
          "name": "auctionId",
          "type": "uint256"
        },
        {
          "indexed": true,
          "internalType": "address",
          "name": "bidder",
          "type": "address"
        },
        {
          "indexed": false,
          "internalType": "uint256",
          "name": "amount",
          "type": "uint256"
        }
      ],
      "name": "BidSubmitted",
      "type": "event"
    },
    {
      "inputs": [
        {
          "internalType": "uint256",
          "name": "",
          "type": "uint256"
        }
      ],
      "name": "auctions",
      "outputs": [
        {
          "internalType": "uint256",
          "name": "auctionEndTime",
          "type": "uint256"
        },
        {
          "internalType": "bool",
          "name": "auctionEnded",
          "type": "bool"
        },
        {
          "internalType": "address",
          "name": "creator",
          "type": "address"
        },
        {
          "internalType": "uint256",
          "name": "highestBid",
          "type": "uint256"
        },
        {
          "internalType": "uint256",
          "name": "secondHighestBid",
          "type": "uint256"
        },
        {
          "internalType": "address",
          "name": "highestBidder",
          "type": "address"
        }
      ],
      "stateMutability": "view",
      "type": "function",
      "constant": true
    },
    {
      "stateMutability": "payable",
      "type": "receive",
      "payable": true
    },
    {
      "inputs": [
        {
          "internalType": "uint256",
          "name": "auctionId",
          "type": "uint256"
        },
        {
          "internalType": "uint256",
          "name": "_duration",
          "type": "uint256"
        }
      ],
      "name": "createAuction",
      "outputs": [],
      "stateMutability": "nonpayable",
      "type": "function"
    },
    {
      "inputs": [
        {
          "internalType": "uint256",
          "name": "auctionId",
          "type": "uint256"
        }
      ],
      "name": "submitBid",
      "outputs": [],
      "stateMutability": "payable",
      "type": "function",
      "payable": true
    },
    {
      "inputs": [
        {
          "internalType": "uint256",
          "name": "auctionId",
          "type": "uint256"
        }
      ],
      "name": "endAuction",
      "outputs": [],
      "stateMutability": "nonpayable",
      "type": "function"
    },
    {
      "inputs": [
        {
          "internalType": "uint256",
          "name": "auctionId",
          "type": "uint256"
        }
      ],
      "name": "withdraw",
      "outputs": [],
      "stateMutability": "nonpayable",
      "type": "function"
    }
  ],
  "bytecode": "0x60806040526001805460ff1916905534801561001a57600080fd5b506109b58061002a6000396000f3fe60806040526004361061004e5760003560e01c80630121683f146100b05780632e1a7d4d146100d2578063571a26a0146100f257806374bdda151461018a578063b9a2de3a1461019d57600080fd5b366100ab5760405162461bcd60e51b815260206004820152602260248201527f446972656374204574686572207472616e7366657273206e6f7420616c6c6f77604482015261195960f21b60648201526084015b60405180910390fd5b600080fd5b3480156100bc57600080fd5b506100d06100cb3660046108cb565b6101bd565b005b3480156100de57600080fd5b506100d06100ed3660046108ed565b6102b1565b3480156100fe57600080fd5b5061014e61010d3660046108ed565b60006020819052908152604090208054600182015460028301546003840154600490940154929360ff8316936001600160a01b036101009094048416931686565b6040805196875294151560208701526001600160a01b0393841686860152606086019290925260808501521660a0830152519081900360c00190f35b6100d06101983660046108ed565b6103c2565b3480156101a957600080fd5b506100d06101b83660046108ed565b6105fe565b600082815260208190526040902054156102125760405162461bcd60e51b815260206004820152601660248201527541756374696f6e20616c72656164792065786973747360501b60448201526064016100a2565b600082815260208190526040902061022a824261091c565b81556001810180546001600160a81b031916610100339081029190911790915560006002830181905560038301556004820180546001600160a01b03191690556040805185815260208101859052908101919091527f269c6afe2aca013f0509579e940c72d6b65c998b5a6846f4da1c50992c23c50e9060600160405180910390a1505050565b60015460ff16156102d45760405162461bcd60e51b81526004016100a290610935565b6001805460ff19168117815560008281526020819052604090209081015460ff166103415760405162461bcd60e51b815260206004820152601760248201527f41756374696f6e206973207374696c6c2061637469766500000000000000000060448201526064016100a2565b336000908152600582016020526040902054806103975760405162461bcd60e51b81526020600482015260146024820152734e6f2066756e647320746f20776974686472617760601b60448201526064016100a2565b3360008181526005840160205260408120556103b39082610828565b50506001805460ff1916905550565b600081815260208190526040902060010154819060ff161561041a5760405162461bcd60e51b8152602060048201526011602482015270105d58dd1a5bdb881a185cc8195b991959607a1b60448201526064016100a2565b600081815260208190526040902054421061046d5760405162461bcd60e51b8152602060048201526013602482015272105d58dd1a5bdb881a185cc8195e1c1a5c9959606a1b60448201526064016100a2565b60015460ff16156104905760405162461bcd60e51b81526004016100a290610935565b6001805460ff1916811790556000828152602081905260409020346105035760405162461bcd60e51b815260206004820152602360248201527f4269642076616c7565206d7573742062652067726561746572207468616e207a60448201526265726f60e81b60648201526084016100a2565b3360009081526005820160205260408120805434929061052490849061091c565b9091555050600281015433600090815260058301602052604090205411156105805760028101805460038301553360008181526005840160205260409020549091556004820180546001600160a01b03191690911790556105b5565b600381015433600090815260058301602052604090205411156105b55733600090815260058201602052604090205460038201555b6040805184815234602082015233917f177554f051f4aa1f0d0310334854b429baeecdb5a96bc329a26fd0cb7c8a7be3910160405180910390a250506001805460ff1916905550565b600081815260208190526040902060010154819061010090046001600160a01b031633146106875760405162461bcd60e51b815260206004820152603060248201527f4f6e6c79207468652061756374696f6e2063726561746f722063616e2070657260448201526f3337b936903a3434b99030b1ba34b7b760811b60648201526084016100a2565b60015460ff16156106aa5760405162461bcd60e51b81526004016100a290610935565b6001805460ff191681179055600082815260208190526040902080544210156107155760405162461bcd60e51b815260206004820152601960248201527f41756374696f6e20686173206e6f742079657420656e6465640000000000000060448201526064016100a2565b600181015460ff16156107625760405162461bcd60e51b8152602060048201526015602482015274105d58dd1a5bdb88185b1c9958591e48195b991959605a1b60448201526064016100a2565b6001818101805460ff19169091179081905560038201546107919161010090046001600160a01b031690610828565b6000816003015482600201546107a7919061096c565b905080156107c75760048201546107c7906001600160a01b031682610828565b60048201546003830154604080518781526001600160a01b0390931660208401528201527fd2aa34a4fdbbc6dff6a3e56f46e0f3ae2a31d7785ff3487aa5c95c642acea5019060600160405180910390a150506001805460ff191690555050565b804710156108525760405163cf47918160e01b8152476004820152602481018290526044016100a2565b6000826001600160a01b03168260405160006040518083038185875af1925050503d806000811461089f576040519150601f19603f3d011682016040523d82523d6000602084013e6108a4565b606091505b50509050806108c65760405163d6bda27560e01b815260040160405180910390fd5b505050565b600080604083850312156108de57600080fd5b50508035926020909101359150565b6000602082840312156108ff57600080fd5b5035919050565b634e487b7160e01b600052601160045260246000fd5b8082018082111561092f5761092f610906565b92915050565b60208082526017908201527f5265656e7472616e742063616c6c206465746563746564000000000000000000604082015260600190565b8181038181111561092f5761092f61090656fea264697066735822122054f6d3f94aef9a4876a3dd453c0c46b46059371395a0ed48eaae9b6fe602c5d064736f6c63430008150033",
  "immutableReferences": {},
  "source": "// SPDX-License-Identifier: MIT\npragma solidity ^0.8.20;\n\nimport \"@openzeppelin/contracts/access/Ownable.sol\";\nimport \"@openzeppelin/contracts/utils/Address.sol\";\n\ncontract SecondPriceAuction {\n    using Address for address payable;\n\n    struct Auction {\n        uint256 auctionEndTime;\n        bool auctionEnded;\n        address creator;\n        uint256 highestBid; // Placeholder to determine the second-highest bid\n        uint256 secondHighestBid; // Keeps track of the second-highest bid\n        address highestBidder;\n        mapping(address => uint256) bids; // Bids submitted by participants\n    }\n\n    mapping(uint256 => Auction) public auctions;\n\n    bool private locked = false; // Custom reentrancy guard\n\n    event AuctionCreated(uint256 auctionId, uint256 duration, address creator);\n    event BidSubmitted(uint256 auctionId, address indexed bidder, uint256 amount);\n    event AuctionEnded(uint256 auctionId, address winner, uint256 amount);\n\n    modifier nonReentrant() {\n        require(!locked, \"Reentrant call detected\");\n        locked = true;\n        _;\n        locked = false;\n    }\n\n    modifier auctionActive(uint256 auctionId) {\n        require(!auctions[auctionId].auctionEnded, \"Auction has ended\");\n        require(block.timestamp < auctions[auctionId].auctionEndTime, \"Auction has expired\");\n        _;\n    }\n\n    modifier onlyAuctionCreator(uint256 auctionId) {\n        require(msg.sender == auctions[auctionId].creator, \"Only the auction creator can perform this action\");\n        _;\n    }\n\n    // Create a new second-price auction\n    function createAuction(uint256 auctionId, uint256 _duration) external {\n        require(auctions[auctionId].auctionEndTime == 0, \"Auction already exists\");\n        \n        // Initialize the auction fields individually\n        Auction storage auction = auctions[auctionId];\n        auction.auctionEndTime = block.timestamp + _duration;\n        auction.auctionEnded = false;\n        auction.creator = msg.sender;\n        auction.highestBid = 0;\n        auction.secondHighestBid = 0;\n        auction.highestBidder = address(0);\n\n        emit AuctionCreated(auctionId, _duration, msg.sender);\n    }\n\n    // Submit a bid (sealed bid process)\n    function submitBid(uint256 auctionId) external payable auctionActive(auctionId) nonReentrant {\n        Auction storage auction = auctions[auctionId];\n        require(msg.value > 0, \"Bid value must be greater than zero\");\n\n        auction.bids[msg.sender] += msg.value;\n\n        if (auction.bids[msg.sender] > auction.highestBid) {\n            // Update second-highest bid before changing highest\n            auction.secondHighestBid = auction.highestBid;\n            auction.highestBid = auction.bids[msg.sender];\n            auction.highestBidder = msg.sender;\n        } else if (auction.bids[msg.sender] > auction.secondHighestBid) {\n            // Update second-highest bid if higher than current second-highest\n            auction.secondHighestBid = auction.bids[msg.sender];\n        }\n\n        emit BidSubmitted(auctionId, msg.sender, msg.value);\n    }\n\n    // End the auction and transfer funds\n    function endAuction(uint256 auctionId) external onlyAuctionCreator(auctionId) nonReentrant {\n        Auction storage auction = auctions[auctionId];\n        require(block.timestamp >= auction.auctionEndTime, \"Auction has not yet ended\");\n        require(!auction.auctionEnded, \"Auction already ended\");\n\n        auction.auctionEnded = true;\n\n        // Transfer the second-highest bid amount to the creator\n        payable(auction.creator).sendValue(auction.secondHighestBid);\n\n        // Refund any overbids to the winner\n        uint256 refund = auction.highestBid - auction.secondHighestBid;\n        if (refund > 0) {\n            payable(auction.highestBidder).sendValue(refund);\n        }\n\n        emit AuctionEnded(auctionId, auction.highestBidder, auction.secondHighestBid);\n    }\n\n    // Allow bidders to withdraw their unused funds\n    function withdraw(uint256 auctionId) external nonReentrant {\n        Auction storage auction = auctions[auctionId];\n        require(auction.auctionEnded, \"Auction is still active\");\n\n        uint256 amount = auction.bids[msg.sender];\n        require(amount > 0, \"No funds to withdraw\");\n\n        auction.bids[msg.sender] = 0; // Set to zero before transfer to prevent reentrancy\n        payable(msg.sender).sendValue(amount);\n    }\n\n    // Fallback to reject unexpected Ether transfers\n    receive() external payable {\n        revert(\"Direct Ether transfers not allowed\");\n    }\n}\n",
  "sourcePath": "/Users/pansaarkerdpol/Blockchain_Auction/contracts/SecondPriceAuction.sol",
  "compiler": {
    "name": "solc",
    "version": "0.8.21+commit.d9974bed.Emscripten.clang"
  },
  "schemaVersion": "3.4.16",
  "updatedAt": "2024-12-12T15:05:54.835Z",
  "networkType": "ethereum",
  "devdoc": {
    "errors": {
      "FailedCall()": [
        {
          "details": "A call to an address target failed. The target may have reverted."
        }
      ],
      "InsufficientBalance(uint256,uint256)": [
        {
          "details": "The ETH balance of the account is not enough to perform the operation."
        }
      ]
    },
    "kind": "dev",
    "methods": {},
    "version": 1
  },
  "userdoc": {
    "kind": "user",
    "methods": {},
    "version": 1
  }
}