{
  "contractName": "EnglishAuction",
  "abi": [
    {
      "inputs": [
        {
          "internalType": "uint256",
          "name": "_duration",
          "type": "uint256"
        },
        {
          "internalType": "uint256",
          "name": "_minBidIncrement",
          "type": "uint256"
        }
      ],
      "stateMutability": "nonpayable",
      "type": "constructor"
    },
    {
      "anonymous": false,
      "inputs": [
        {
          "indexed": false,
          "internalType": "address",
          "name": "winner",
          "type": "address"
        },
        {
          "indexed": false,
          "internalType": "uint256",
          "name": "amount",
          "type": "uint256"
        }
      ],
      "name": "AuctionEnded",
      "type": "event"
    },
    {
      "anonymous": false,
      "inputs": [
        {
          "indexed": true,
          "internalType": "address",
          "name": "bidder",
          "type": "address"
        },
        {
          "indexed": false,
          "internalType": "uint256",
          "name": "amount",
          "type": "uint256"
        }
      ],
      "name": "NewBidPlaced",
      "type": "event"
    },
    {
      "inputs": [],
      "name": "auctionEndTime",
      "outputs": [
        {
          "internalType": "uint256",
          "name": "",
          "type": "uint256"
        }
      ],
      "stateMutability": "view",
      "type": "function",
      "constant": true
    },
    {
      "inputs": [],
      "name": "auctionEnded",
      "outputs": [
        {
          "internalType": "bool",
          "name": "",
          "type": "bool"
        }
      ],
      "stateMutability": "view",
      "type": "function",
      "constant": true
    },
    {
      "inputs": [],
      "name": "highestBid",
      "outputs": [
        {
          "internalType": "uint256",
          "name": "",
          "type": "uint256"
        }
      ],
      "stateMutability": "view",
      "type": "function",
      "constant": true
    },
    {
      "inputs": [],
      "name": "highestBidder",
      "outputs": [
        {
          "internalType": "address",
          "name": "",
          "type": "address"
        }
      ],
      "stateMutability": "view",
      "type": "function",
      "constant": true
    },
    {
      "inputs": [],
      "name": "minBidIncrement",
      "outputs": [
        {
          "internalType": "uint256",
          "name": "",
          "type": "uint256"
        }
      ],
      "stateMutability": "view",
      "type": "function",
      "constant": true
    },
    {
      "inputs": [],
      "name": "owner",
      "outputs": [
        {
          "internalType": "address",
          "name": "",
          "type": "address"
        }
      ],
      "stateMutability": "view",
      "type": "function",
      "constant": true
    },
    {
      "inputs": [],
      "name": "placeBid",
      "outputs": [],
      "stateMutability": "payable",
      "type": "function",
      "payable": true
    },
    {
      "inputs": [],
      "name": "endAuction",
      "outputs": [],
      "stateMutability": "nonpayable",
      "type": "function"
    },
    {
      "inputs": [],
      "name": "withdrawBid",
      "outputs": [],
      "stateMutability": "nonpayable",
      "type": "function"
    },
    {
      "inputs": [],
      "name": "timeRemaining",
      "outputs": [
        {
          "internalType": "uint256",
          "name": "",
          "type": "uint256"
        }
      ],
      "stateMutability": "view",
      "type": "function",
      "constant": true
    }
  ],
  "bytecode": "0x608060405234801561001057600080fd5b5060405161079838038061079883398101604081905261002f91610064565b600080546001600160a01b031916331781556003805460ff191690556002556100588242610088565b600455600555506100af565b6000806040838503121561007757600080fd5b505080516020909101519092909150565b808201808211156100a957634e487b7160e01b600052601160045260246000fd5b92915050565b6106da806100be6000396000f3fe6080604052600436106100915760003560e01c806391f901571161005957806391f901571461014e578063d57bde791461016e578063e3cfef6014610184578063ecfc7ecc14610199578063fe67a54b146101a157600080fd5b8063335b115e1461009657806337271cc7146100bf5780634b449cba146100d657806386433374146100ec5780638da5cb5b14610116575b600080fd5b3480156100a257600080fd5b506100ac60055481565b6040519081526020015b60405180910390f35b3480156100cb57600080fd5b506100d46101b6565b005b3480156100e257600080fd5b506100ac60045481565b3480156100f857600080fd5b506003546101069060ff1681565b60405190151581526020016100b6565b34801561012257600080fd5b50600054610136906001600160a01b031681565b6040516001600160a01b0390911681526020016100b6565b34801561015a57600080fd5b50600154610136906001600160a01b031681565b34801561017a57600080fd5b506100ac60025481565b34801561019057600080fd5b506100ac6102ff565b6100d4610323565b3480156101ad57600080fd5b506100d46104cb565b6001546001600160a01b031633146102215760405162461bcd60e51b8152602060048201526024808201527f4f6e6c79207468652068696768657374206269646465722063616e20776974686044820152636472617760e01b60648201526084015b60405180910390fd5b600454421061027d5760405162461bcd60e51b815260206004820152602260248201527f41756374696f6e2068617320656e6465642c2063616e6e6f7420776974686472604482015261617760f01b6064820152608401610218565b60028054600091829055600180546001600160a01b03191690556040519091339183156108fc0291849190818181858888f193505050501580156102c5573d6000803e3d6000fd5b506040516000815233907f0c392f23045b2b8b64c77b9d568e610314c52ac5adfa73f8e8c31a15909186c49060200160405180910390a250565b600060045442106103105750600090565b4260045461031e9190610678565b905090565b60035460ff161561036a5760405162461bcd60e51b8152602060048201526011602482015270105d58dd1a5bdb881a185cc8195b991959607a1b6044820152606401610218565b60045442106103b15760405162461bcd60e51b8152602060048201526013602482015272105d58dd1a5bdb881a185cc8195e1c1a5c9959606a1b6044820152606401610218565b6005546002546103c19190610691565b34116104355760405162461bcd60e51b815260206004820152603e60248201527f426964206d75737420626520686967686572207468616e2063757272656e742060448201527f62696420706c757320746865206d696e696d756d20696e6372656d656e7400006064820152608401610218565b6002541561047b576001546002546040516001600160a01b039092169181156108fc0291906000818181858888f19350505050158015610479573d6000803e3d6000fd5b505b600180546001600160a01b031916339081179091553460028190556040519081527f0c392f23045b2b8b64c77b9d568e610314c52ac5adfa73f8e8c31a15909186c49060200160405180910390a2565b6000546001600160a01b031633146105305760405162461bcd60e51b815260206004820152602260248201527f4f6e6c7920746865206f776e65722063616e20656e642074686520617563746960448201526137b760f11b6064820152608401610218565b6004544210156105825760405162461bcd60e51b815260206004820152601960248201527f41756374696f6e20686173206e6f742079657420656e646564000000000000006044820152606401610218565b60035460ff16156105cd5760405162461bcd60e51b8152602060048201526015602482015274105d58dd1a5bdb88185b1c9958591e48195b991959605a1b6044820152606401610218565b6003805460ff19166001179055600080546002546040516001600160a01b039092169281156108fc029290818181858888f19350505050158015610615573d6000803e3d6000fd5b50600154600254604080516001600160a01b03909316835260208301919091527fdaec4582d5d9595688c8c98545fdd1c696d41c6aeaeb636737e84ed2f5c00eda910160405180910390a1565b634e487b7160e01b600052601160045260246000fd5b8181038181111561068b5761068b610662565b92915050565b8082018082111561068b5761068b61066256fea2646970667358221220ffa06066e4e8400b9dcd9e190d0cb21d00c40e868c6806b4a7dd36deadd48d0c64736f6c63430008150033",
  "immutableReferences": {},
  "source": "// SPDX-License-Identifier: MIT\r\npragma solidity ^0.8.0;\r\n\r\ncontract EnglishAuction {\r\n    address public owner;\r\n    address public highestBidder;\r\n    uint256 public highestBid;\r\n    bool public auctionEnded;\r\n    uint256 public auctionEndTime;\r\n    uint256 public minBidIncrement;\r\n\r\n    // Events for tracking auction state\r\n    event NewBidPlaced(address indexed bidder, uint256 amount);\r\n    event AuctionEnded(address winner, uint256 amount);\r\n\r\n    constructor(uint256 _duration, uint256 _minBidIncrement) {\r\n        owner = msg.sender;\r\n        auctionEnded = false;\r\n        highestBid = 0;\r\n        auctionEndTime = block.timestamp + _duration; // Set auction duration\r\n        minBidIncrement = _minBidIncrement; // Set minimum bid increment\r\n    }\r\n\r\n    // Modifier to check if the auction has ended\r\n    modifier auctionActive() {\r\n        require(!auctionEnded, \"Auction has ended\");\r\n        require(block.timestamp < auctionEndTime, \"Auction has expired\");\r\n        _;\r\n    }\r\n\r\n    // Function to place a bid\r\n    function placeBid() external payable auctionActive {\r\n        require(msg.value > highestBid + minBidIncrement, \"Bid must be higher than current bid plus the minimum increment\");\r\n\r\n        // Refund the previous highest bidder\r\n        if (highestBid > 0) {\r\n            payable(highestBidder).transfer(highestBid);\r\n        }\r\n\r\n        // Update the highest bid and bidder\r\n        highestBidder = msg.sender;\r\n        highestBid = msg.value;\r\n\r\n        // Emit event for a new bid\r\n        emit NewBidPlaced(msg.sender, msg.value);\r\n    }\r\n\r\n    // Function to end the auction manually (owner only)\r\n    function endAuction() external {\r\n        require(msg.sender == owner, \"Only the owner can end the auction\");\r\n        require(block.timestamp >= auctionEndTime, \"Auction has not yet ended\");\r\n        require(!auctionEnded, \"Auction already ended\");\r\n\r\n        auctionEnded = true;\r\n\r\n        // Transfer funds to the owner\r\n        payable(owner).transfer(highestBid);\r\n\r\n        // Emit event for auction end\r\n        emit AuctionEnded(highestBidder, highestBid);\r\n    }\r\n\r\n    // Function to withdraw bid if you are the highest bidder (before auction ends)\r\n    function withdrawBid() external {\r\n        require(msg.sender == highestBidder, \"Only the highest bidder can withdraw\");\r\n        require(block.timestamp < auctionEndTime, \"Auction has ended, cannot withdraw\");\r\n\r\n        uint256 amount = highestBid;\r\n        highestBid = 0;\r\n        highestBidder = address(0);\r\n\r\n        payable(msg.sender).transfer(amount);\r\n\r\n        emit NewBidPlaced(msg.sender, 0); // Emit zero bid event for withdrawal\r\n    }\r\n\r\n    // Get current auction time remaining\r\n    function timeRemaining() external view returns (uint256) {\r\n        if (block.timestamp >= auctionEndTime) {\r\n            return 0;\r\n        }\r\n        return auctionEndTime - block.timestamp;\r\n    }\r\n}\r\n",
  "sourcePath": "/Users/pansaarkerdpol/Blockchain_Auction/contracts/LegacyEnglish.sol",
  "compiler": {
    "name": "solc",
    "version": "0.8.21+commit.d9974bed.Emscripten.clang"
  },
  "schemaVersion": "3.4.16",
  "updatedAt": "2024-12-04T15:00:08.289Z",
  "networkType": "ethereum",
  "devdoc": {
    "kind": "dev",
    "methods": {},
    "version": 1
  },
  "userdoc": {
    "kind": "user",
    "methods": {},
    "version": 1
  }
}